:020000040000FA
:06000000020EF102040EE5
:03001B000205E6F5
:03002B00020CC400
:030033000204DEE6
:030043000208D2DE
:030053000202E6C0
:03006B0002044844
:0300730002063B47
:1000830002036F010000000000F8FF07FFFF0000FC
:100093000504000000030001FFFFFFFF0014102709
:1000A30000000020FD000206FFFF1EB9150000003E
:1000B300000000000000000000000000000000003D
:1000C3000000001E000104010C000201128702025D
:1000D3008701040000241A000000E8030000FFFF6A
:1000E300751A0188130000E803000064006400B877
:1000F30001A0BB0D00A0BB0D000202020704010515
:100103001E02051E020A0A010108080103B80B02B8
:10011300803E0102FEFFE8030A050001FFFF020A19
:10012300011401E0000000000200000005030101CA
:100133000F03000300030003000300030003000395
:1001430000030005000A00140028004F009E000071
:1001530000B02600000000842500000000FF00001E
:1001630000FF0000120F01604F120F106012E754DE
:100173008066F6120DA67011120F9E703B090909D5
:10018300F4F618F618F618F622120DBA7015120FB7
:10019300A708080860EAE6447FF618768018E4F6B4
:1001A30018F622120FA76016120F9E7012E4F608BB
:1001B300F608F608E65480F609090918181822EA21
:1001C300C0E0EBC0E0ECC0E0EDC0E0E687F0A4FBEC
:1001D300ACF008E687F0A42CFCE435F0FA1809E645
:1001E30087F0A42C4B60027401CA35F0FCE433FBA6
:1001F30009E687F0D2F7A42CCB35F0FC1908E68783
:10020300F0A42BCC35F0FBE433FD0819E687F0D2DC
:10021300E7A42C4ACB35F0CD3400FC09E687F0D2B5
:10022300E7A42DCC35F0FDE433FA0918E687F0D2C4
:10023300F7A42CCD35F0CA3400FC08E687F0D2E7EA
:10024300D2F7A42ACC35F07A7E20E70B0ACB33CB46
:10025300CD33CDCC33CC33CB3350147004ED30E0FD
:100263000ED2F1E4CD3DCDCC3CCC3B5005DA05C2FA
:10027300F1EB547FC63308E63392F0FBE73309E72B
:1002830033C39A502D2B70190C0D4C4D7015180655
:10029300E608C333700D20F10AA2F013F6E41880C8
:1002A3000B4024E4F630F002768018F618F618F6C0
:1002B3008024D33B14501074FFA2F013F6187680F9
:1002C300E418F618F6800FA2F013F618E63303F6D7
:1002D30018ECF618EDF6D0E0FDD0E0FCD0E0FBD052
:1002E300E0FA22C0E0C0D0E8C0E0E9C0E0EAC0E044
:1002F300EBC0E0ECC0E0EDC0E0EEC0E0EFC0E0C07A
:1003030008C009C082C083C0F0A2AFE433F509D2AC
:10031300AF85A708AFA1EF5508FE74105E60061203
:10032300114575A1EF74085E600812114B75A1F7B2
:100333008024EFA2E092F0E508A2E082F05017904B
:100343006198E0F8900AB6E0C398A2D265D0335022
:1003530002E8F075A1FEE509A2E092AFD0F0D083E8
:10036300D082D009D008D0E0FF0203F4C0E0C0D0AF
:10037300E8C0E0E9C0E0EAC0E0EBC0E0ECC0E0EDDB
:10038300C0E0EEC0E0C082C083C0F0A2AFE433FEA1
:10039300D2AF9061A4E0F8759B00E59158540860D2
:1003A300087591F712118D8023E591585410600858
:1003B3007591EF1211938014E591A2E092F0E8A2F7
:1003C300E082F05007E0C2E0F01212C59061A3E0B2
:1003D300F8E5E9585404600E1212A775E9FB906121
:1003E30093E0A2E640F2EEA2E092AFD0F0D083D049
:1003F30082D0E0FED0E0FDD0E0FCD0E0FBD0E0FA1C
:10040300D0E0F9D0E0F8D0D0D0E032C0E0C0D0E8FE
:10041300C0E0E9C0E0EAC0E0EBC0E0ECC0E0EDC062
:10042300E0EEC0E0C082C083C0F0A2AFE433FED2EE
:10043300AF9061A5E0F8E5BF585404600675BFFBB3
:100443001212D180A1C0E0C0D0E8C0E0E9C0E0EA68
:10045300C0E0EBC0E0ECC0E0EDC0E0EEC0E0C008FF
:10046300C009C00AC00BC082C083C0F0A2AFE4338E
:10047300FED2AFE589A2E1503090056A7401F0E540
:1004830089540290056BF0750819750900750A0007
:10049300750B007808120C8F7A107B00900569E0C9
:1004A300F91214AB7404120C74758900C2C5EEA260
:1004B300E092AFD0F0D083D082D00BD00AD009D055
:1004C30008D0E0FED0E0FDD0E0FCD0E0FBD0E0FAC5
:1004D300D0E0F9D0E0F8D0D0D0E032C0E0C0D0E82E
:1004E300C0E0E9C0E0EAC0E0EBC0E0ECC0E0EDC092
:1004F300E0EEC0E0C008C009C00AC00BC082C083E0
:10050300C0F0A2AFE433FED2AFE58BA2E05032904D
:10051300056A7404F0E58BA2E0E43390056BF07593
:100523000819750900750A00750B007808120C8FFD
:100533007A107B00900569E0F91214AB7404120C75
:1005430074758B00C2E80204B112059730F03912BA
:1005530005DC803412059720F01430E72B74FFFC80
:10056300FBFA747F8022E4FCFBFA7480801AB48067
:1005730008BC00F2BB00EF800F50EBF9E4C39AFA1A
:10058300E49BFBE49CFCE499C6CC18C6CB18C6CA12
:1005930018C6F922E4C9C608CAC608CBC6D33303B2
:1005A30008CCC63392F0C3947F402E94184019C9E7
:1005B300B90704CACBCC225025C309CA33CACB33EB
:1005C300CBCC33CC33D9F422F4600DC9CCC313CBD9
:1005D30013CBCA13CAD9F6CC22E4FCFBFA2214FCCF
:1005E300FBFA22C0E0C0D0E8C0E0E9C0E0C082C0AE
:1005F30083A8F9E8C0E0900A23E0F874A228F58202
:10060300E43409F583D0E0F0900A22E0F8A3E0682F
:100613007006E595900A25F0900A23E004F0C39450
:10062300804002E4F0A374C6F0D083D082D0E0F916
:10063300D0E0F8D0D0D0E032C0E0C0D0E8C0E0E9EC
:10064300C0E0C082C083900AA6E0F8A3E068700807
:10065300539AF7A374018022C2EA900AA6E0F874C1
:100663000128F0742628F582E4340AF583E0F5F9CD
:10067300900AA6E0C394804002E4F080ACC3E498FF
:10068300F8E499F91206C18026C3E49AFAE49BFBC5
:10069300E920E7E91206C1E498F8E499F922C3E4F2
:1006A30098F8E499F91206C1E498F8E499F9C3E4D7
:1006B3009AFAE49BFB22EB20E7CFE920E7E0B900BD
:1006C30010BB0008E88AF084F8AAF022E4FBC8FA19
:1006D30022EB70227B10C833C8C933C9335007C318
:1006E3009AC3DBF280069A50012ADBEAC833F4C8C6
:1006F300C933F4C9FA2275F008E4C833C8C933C949
:1007030033C99AC99B5004C92AC93BD5F0ECFBC82D
:1007130033F4C8E4C9FA22080808EAC0E0EBC0E0F1
:1007230086F0E7A4FA180986F0E7A42AFA180986DE
:10073300F0E7A42AFA180986F0E7A42AFA1986F042
:10074300E7A4FBE5F02AFA190886F0E7A42BFBE5FA
:10075300F03AFA190886F0E7A42BFBE5F03AFA1809
:10076300180986F0E7A4C5F02BFBE43AFA1908E769
:10077300C5F0C6A426F6E5F03BFBE43AFA1886F08A
:10078300E7A4F6E5F00826F6E43B08F6E43A08F6B3
:10079300D0E0FBD0E0FA22E4CFC0E0E4CEC0E0E456
:1007A300CDC0E0E4CCC0E075F020E626F608E633E1
:1007B300F608E633F608E633F6181818EC33FCEDC2
:1007C30033FDEE33FEEF33FFC3EC9709ED9709EEEC
:1007D3009709EF97191919400FFFEC97FC09ED974B
:1007E300FD09EE97FE191906D5F0BFECF709EDF7F1
:1007F30009EEF709EFF7191919D0E0FCD0E0FDD0A5
:10080300E0FED0E0FF222521C582C0E0E52234FFCF
:10081300C583C0E0E521C3958224F810AF08858322
:10082300228582218008858322858221D2AFCEF062
:10083300A3E520F0A37808E608F0A3DEFAEFF0A31F
:10084300E58124FAF8E608F0A3E608F0A3E608F049
:10085300A30808E608F0A3E608F0A315811581D0E4
:10086300E0FED0E0F8158115811581E8C0E0EEC007
:10087300E022E9799EC608CAC608CBC608CCC6C31F
:1008830070207996CACBCC7019798ECBCC70137942
:1008930086CC700EF9802ACA33CACB33CBCC33CC87
:1008A300331930E7F2CCCBCA3350147004EA30E08A
:1008B3000DE4CA3ACACB3BCBCC3CCC500209C3E9CA
:1008C30013C6CC182313C6CB18C6CA18C6F922C040
:1008D300E0C0D0E8C0E0E9C0E0EAC0E0EBC0E0EC93
:1008E300C0E0EDC0E0EEC0E0C082C083C0F0A2AFC4
:1008F300E433FED2AFC2C0E5D1A2E450031210BB71
:10090300EEA2E092AFD0F0D083D082D0E0FED0E070
:10091300FDD0E0FCD0E0FBD0E0FAD0E0F9D0E0F885
:10092300D0D0D0E032120F89B90003020967E490F6
:100933000501781079198002F0A3D8FCD9FA7A104E
:100943007B1D90008678E179018015E493A3AD8245
:10095300AE838A828B83F0A3AA82AB838D828E833C
:10096300D8E9D9E775820075837E7400120C3B7554
:1009730082097583237400120C3BE473FF75F01036
:100983008E238F2485822885832785218285228350
:10099300E0CEA3E0CF852882852783EBC9EAC8EDA3
:1009A300CBECCAC3E833C8E933C9EA33CAEB33CB68
:1009B300C3EA9EF526EB9FF525B35004AB25AA2683
:1009C300EC33CCED33CDD5F0DAAE23AF2422D08394
:1009D300D082ECC0E0EDC0E0E493A3FCE493A3FD7C
:1009E300ED4C600D120AA9EC24FFFCED34FFFD80F1
:1009F300EFE493A3FCE493A3FDED4C600D120B46CF
:100A0300EC24FFFCED34FFFD80EFD0E0FDD0E0FCF3
:100A1300E493A3C0E0E493C0E0228522838521828E
:100A2300E0A3FEE0A3F5207808E0A3F608DFFAE0F0
:100A3300A3FFE0A3C0E0E0A3C0E0E0A3C0E0E0A325
:100A4300C0E0E0A3C0E010AF088582218583228047
:100A530008858221858322D2AFD083D082020C41C4
:100A6300D083D082E9C0E0E493A3C386F0C5F095B8
:100A7300F0F908E493A386F0C5F095F0700BE493C6
:100A8300A3C3994005E9048002A3E475F002A425F9
:100A930082F582E5F03583F583D0E0F9E493A3C0D2
:100AA300E0E493C0E022C0E0C3E4939608740193AA
:100AB3009618400FE49366700808740193661870E3
:100AC300007019A3A3C3E49396087401939618A323
:100AD300A3400DD0E0D0E0D0E0020A0DA3A3A3A36E
:100AE300A3A3D0E0227404800474028000CCC0E08D
:100AF300EDC0E0E521C39CCCAD2250011D10AF0633
:100B03008C218D2280068C218D22D2AF120BBDD079
:100B1300E0FDD0E0FC2274028000CCC0E0EDC0E038
:100B2300E521C39CCCAD2250011D10AF068C218D55
:100B33002280068C218D22D2AF120B9BD0E0FDD0F8
:100B4300E0FC22C0E0C0F088F0E49366700808740B
:100B5300019366187000A8F0A3A3700BD0F0D0E047
:100B6300D0E0D0E0020A0DA3A3D0F0D0E022D083DE
:100B7300D082CCC0E0E493A36006120BFD1470FA9C
:100B8300E493A36006120D3D1470FAD0E0FCE493E5
:100B9300A3C0E0E493C0E022CAC0E0E493A3C5820B
:100BA300CCC582C583CDC583F0A3C582CCC582C520
:100BB30083CDC583DAE5D0E0CA22CAC0E0E0A3C58D
:100BC30082CCC582C583CDC583F0A3C582CCC58243
:100BD300C583CDC583DAE6D0E0CA22C008C3E09658
:100BE300F50808A3E096420808A3E096420808A384
:100BF300E09645087001D3D00822C0E0E493A3D364
:100C03009C5010E493A3C39C400AD0E0D0E0D0E012
:100C1300020B8EA3A3A3D0E0227009080808226068
:100C230016181818C6C333C608C633C608C633C653
:100C330008C633C6D5E0EA22C09FF59FE473D09F70
:100C430022D083D082C09FE493C0E0740193C0E0BC
:100C5300740293F59F222521F58210AF08F52140F8
:100C63000C15228008F52140021522D2AF8522837C
:100C73002200C0D0252110AF08F521500C05228099
:100C830008F52150020522D2AFD0D0227404800A85
:100C930074038006740280027401C0E0F404120C31
:100CA30059D0E0120F4C22BB0102E722C082C0835D
:100CB30089828A83BB0003E08002E493D083D082DD
:100CC30022C0E0C0D0E8C0E0A8A8D2AFC2C7E8A263
:100CD300E792AFD0E0F8D0D0D0E032601608080831
:100CE300C6C313C618C613C618C613C618C613C67A
:100CF300D5E0EA222521F8E43522F9222521FAE478
:100D03003522FB222521FCE43522FD22C3E0C696D1
:100D1300F608A3E0C696F608A3E0C696F608A3E095
:100D2300C696F622252110AF08F521400C15228026
:100D330008F52140021522D2AF22C0E0E493A36C50
:100D43007009D0E0D0E0D0E0020B8EA3A3D0E02264
:100D5300E066701008A3E066700A08A3E0667004FA
:100D630008A3E06622C3E09608A3E09608A3E096F2
:100D730008A3E096A2D265D03322E7667010080973
:100D8300E766700A0809E76670040809E76622C384
:100D9300E096F008A3E096F008A3E096F008A3E03D
:100DA30096F022181818E60846087009E626087017
:100DB30005E633F4220822191919E70947097009CE
:100DC300E727097005E733F4220922C3E493960861
:100DD300740193960874029396087403939622C33E
:100DE300E697F60809E697F60809E697F60809E68E
:100DF30097F622E647F60809E647F60809E647F6B6
:100E03000809E647F622700422600D18C6C333C6EC
:100E130008C633C6D5E0F41822E026F608A3E03668
:100E2300F608A3E036F608A3E036F622E657F608FE
:100E330009E657F60809E657F60809E657F622E0E9
:100E430056F608A3E056F608A3E056F608A3E056C4
:100E5300F622E056F008A3E056F008A3E056F008A7
:100E6300A3E056F022E627F60809E637F60809E676
:100E730037F60809E637F622E026F008A3E036F055
:100E830008A3E036F008A3E036F02206E6700D086A
:100E930006E670080806E670030806E622E4C39631
:100EA300F608E496F608E496F608E496F622600D52
:100EB30008C6A2E713C618C613C6D5E0F322C6F4C4
:100EC300C608C6F4C608C6F4C608C6F4C622C3E7F5
:100ED300960809E7960809E7960809E79622C3E00A
:100EE3009608A3E09608A3E09608A3E0962275D09F
:100EF3000075813F75210175220500020928E60866
:100F03004608C3134608336002E633F422E7094771
:100F130009C3134709336002E733F422600C08C6A0
:100F2300C313C618C613C6D5E0F422E6F008A3E639
:100F3300F008A3E6F008A3E6F022E0F608A3E0F643
:100F430008A3E0F608A3E0F622CAC0E0E6F0A3088F
:100F5300DAFAD0E0FA22E0FAA3E0FBA3E0FCA3E094
:100F6300FD22EAF0A3EBF0A3ECF0A3EDF022E0F80E
:100F7300A3E0F9A3E0FAA3E0FB22E8F0A3E9F0A3DE
:100F8300EAF0A3EBF022E5C754F84401F5C7790171
:100F9300222521F582E43522F58322E72719471913
:100FA30047194722E62618461846184622C2AF7547
:100FB300D69F02000022120C444BA304120C448956
:100FC300A304120C4453A504120C4432A604120CBD
:100FD3004410A704120C444D8C05120C44798C0563
:100FE300120C440C8E05120C44FE8E05120C449117
:100FF3008F05120C44D6FE02120C4460FF02120C41
:101003004482FF02120C44879F05120C444EA00534
:10101300120C447FA105120C442FAD05120C444061
:10102300AD05120C44DAAD05120C44E5AD05120C06
:1010330044FDAD05120C44ED7F00120C44F0B105E4
:10104300120C444AFF04120C445AFF04120C44725B
:10105300FF04120C44EFFF04120C44F6FE01120CC1
:10106300447BFF01120C44E1FF01120C442BFF03EC
:10107300120C44B2FF03120C44C1FF03120C4409C7
:10108300EB04120C444DEB04120C44EBEC04120C75
:101093004428EE04120C440EF004120C4411B10562
:1010A300120C44CD7500120C44867600120C44D207
:1010B3007700120C44A87900120C44FB7900120C3F
:1010C300443F7A00120C44D27A00120C44767B001F
:1010D300120C44FC7B00120C447B7C00120C444930
:1010E3007D00120C44687D00120C44757D00120CC7
:1010F300442BE004120C4456E004120C4467E3044E
:10110300120C4441E404120C4462E404120C447EC5
:10111300E404120C4497E404120C4412A605120CC6
:101123004447A605120C4482A605120C44F4A605F6
:10113300120C4424A705120C4451A705120C44AE0B
:10114300A705120C44B1A705120C44C4A705120C41
:1011530044D0A705120C44BD9905120C44119A05FD
:10116300120C44619A05120C44CF9A05120C4410D8
:101173009B05120C44699B05120C44789B05120CC9
:1011830044A09B05120C44919C05120C449E9C05A3
:10119300120C44AF9C05120C442AAF05120C447A7E
:1011A300AF05120C44A4AF05120C44C5F504120C90
:1011B3004426F704120C4434F704120C4447F70492
:1011C300120C445CF704120C4471F704120C4484AF
:1011D300F704120C444BF804120C44C1F804120C2B
:1011E3004443F904120C441CFA04120C442CFA0470
:1011F300120C443BFA04120C440CAE05120C44319D
:10120300AE05120C445AAE05120C4482AE05120C04
:1012130044EFA105120C4416A205120C448DA2053D
:10122300120C44C08F05120C44D98F05120C44F7DD
:101233008F05120C440B9005120C44299005120CD7
:1012430044339005120C443D9005120C4450900514
:10125300120C44419105120C44B29105120C44DD69
:101263009105120C442B9205120C44789205120C32
:1012730044939205120C449D9205120C44E8920586
:10128300120C44C6B005120C44C4C304120C44F837
:10129300C304120C441AC404120C4433C404120CC5
:1012A300444DC404120C44B8C404120C44EBC404EB
:1012B300120C44D0CA04120C445BCC04120C44DA62
:1012C300CC04120C4468CE04120C4483CE04120CDA
:1012D30044F6CE04120C4447A405120C4457A4054B
:1012E300120C448FA405120C44A8A405120C441933
:1012F300A505120C443EA505120C4469A505120C64
:1013030044BFA505120C44E5A505120C4462B105C2
:10131300120C446CFA04120C4473FA04120C4426A3
:10132300FC04120C444AFC04120C44D8FC04120CB6
:1013330044B7FD04120C4416FE04120C44ABFE0425
:10134300120C44F6FE04120C4464A905120C4476F4
:10135300A905120C448BAA05120C448EAA05120C83
:1013630044BBAA05120C44F1AA05120C4407AB05B1
:10137300120C4449AB05120C448FAB05120C44D339
:10138300AB05120C44DDAB05120C4424F703120C1D
:10139300442EF703120C446BF703120C44D0F703EB
:1013A300120C44EDF703120C44A4F803120C44AEE0
:1013B300F803120C44FBF803120C4429F903120C32
:1013C3004413FA03120C4430FB03120C447EFB0358
:1013D300120C44C3FB03120C442EFC03120C44A155
:1013E300FC03120C44FCFC03120C4437FD03120CE7
:1013F3004478FD03120C448AFD03120C449CFD0344
:10140300120C44BBFD03120C44C4FD03120C4476BE
:10141300FE03120C44C7FE03120C4401FF03120C1B
:101423004466B005120C44D9A705120C4476960500
:10143300120C44AC9605120C44FB9705120C445451
:101443009905120C4476A203120C44F4A803120C5F
:10145300449CAF03120C442EB203120C4491B40308
:10146300120C442FB503120C4407B703120C44406B
:10147300B903120C446DBC03120C447BBC03120C65
:101483004445BD03120C44E6BD03120C444DC30393
:10149300120C44F7C303120C44E7FF02120C44007E
:1014A3008005120C44128005120C44008105120CB5
:1014B30044318105120C447E8105120C44DE810502
:1014C300120C444A8205120C44678405120C44F73B
:1014D300AB05120C447BAC05120C44D1AC05120CC9
:1014E3004410AD05120C440BB005120C441C8701CB
:1014F300120C44288701120C44CD8701120C444975
:101503008801120C44528901120C44E58901120C22
:1015130044838A01120C44C58A01120C44C48C0111
:10152300120C44A48F01120C44AB9401120C44EB33
:101533009901120C44AAA401120C44ACA501120C8B
:101543004444A601120C44F5A601120C446EA701F3
:10155300120C4425A901120C4418AA01120C44854B
:10156300AC01120C440DAD01120C4474B001120C09
:1015730044C6B301120C449BB401120C44ACB90130
:10158300120C443DBA01120C4478BA01120C4462A5
:10159300BD01120C4449C401120C446CC701120C66
:1015A300442CDA04120C44DDDB04120C442CDD045D
:1015B300120C44F0DD04120C4438DF04120C4450C6
:1015C300DF04120C4483DF04120C4405B205120C31
:1015D30044B3E504120C445AE604120C447BE604BB
:1015E300120C4475E704120C4429E904120C4471EB
:1015F300DE03120C44E6DE03120C446DDF03120C0F
:1016030044BCE103120C44EFE203120C44D6E4039E
:10161300120C4425E503120C4482E503120C44FB2F
:10162300E503120C4427EA03120C442BEB03120CC0
:10163300448BEC03120C447BED03120C4407EE03C2
:10164300120C4440EE03120C445EEF03120C4401EF
:10165300F003120C4489F003120C4435F303120C0B
:10166300445CF403120C44ACF403120C44C0F503C1
:10167300120C44E8F503120C44EBF503120C44F985
:10168300F503120C441DF603120C448DF603120CE1
:1016930044C6F603120C44F2F603120C4405F70396
:1016A300120C44A7AF05120C44F07F00120C440047
:1016B3008004120C44238004120C44878104120C0E
:1016C30044D08104120C447B8204120C44E482044F
:1016D300120C44E78204120C44798304120C440272
:1016E3008404120C44B38404120C44B68404120C14
:1016F30044548504120C44D18A04120C44918C0482
:10170300120C44C68C04120C44819004120C44AF96
:101713009104120C44C69204120C44929304120CCA
:1017230044B29404120C44799604120C44E6C403A4
:10173300120C44F0C503120C449DC603120C44A7BB
:10174300C703120C4480C803120C4436C903120C9D
:101753004404CA03120C4415CC03120C4416CE03E2
:10176300120C4408CF03120C44E2D103120C443E82
:10177300D303120C4441D403120C4420D603120C9D
:10178300442ED903120C444FDB03120C44E8DB0351
:10179300120C440CDD03120C44B0E202120C44158B
:1017A300E302120C4476E302120C4449E502120CE4
:1017B30044EDE502120C4416E602120C440FEA0251
:1017C300120C4426EA02120C4429EB02120C44E6E2
:1017D300EC02120C44F1ED02120C44A6EE02120CC0
:1017E3004426EF02120C44D7EF02120C44C3F10259
:1017F300120C44A5F202120C440CF402120C441D08
:10180300F602120C44A6F802120C4486FA02120CD9
:101813004449FB02120C44C1FB02120C44D8FB02E4
:10182300120C44D9FC02120C44BCFD02120C442BD2
:10183300FE02120C44A88805120C449F8A05120C60
:10184300445E8B05120C44C28B05120C442B93058A
:10185300120C44819305120C44CA9305120C44F2F2
:101863009305120C44189405120C44309405120C81
:1018730044F89405120C440D9505120C443096055A
:10188300120C44399605120C44CA9804120C444BAA
:101893009605120C44559605120C4459F004120C8B
:1018A300447CF504120C4481F504120C44757E004B
:1018B300120C44A6B105120C44748405120C44D2D4
:1018C300B105120C44A7AE05120C44D1AE05120C9F
:1018D30044F7BC02120C442ABD02120C4496BD020A
:1018E300120C4431BE02120C44CEBE02120C44133D
:1018F300BF02120C4435BF02120C444EBF02120C3D
:1019030044C4A204120C4496BF02120C44D4BF0276
:10191300120C4418C002120C443AC002120C449C2C
:10192300C002120C4463C102120C441AC202120C0C
:10193300448CC202120C4457C302120C44AAC302C1
:10194300120C4410C402120C444AC402120C449CEC
:10195300C402120C440AC502120C4475C502120CCF
:101963004478C502120C44F9C502120C4490C60215
:10197300120C4410C702120C442FC702120C4493DA
:10198300C802120C44A0C802120C44ACC902120CC7
:1019930044B9C902120C44C2C902120C449ACB02C4
:1019A300120C44B4CC02120C442DCD02120C449FF1
:1019B300CD02120C44C1CD02120C4455CE02120CBE
:1019C3004429D002120C4400D402120C4414D40251
:1019D300120C4424D402120C442ED402120C4437A9
:1019E300D402120C4440D402120C444AD402120C06
:1019F3004477D402120C44A0D402120C44ABD40298
:101A0300120C44CFD402120C44F3D402120C445DE2
:101A1300D502120C44A3D502120C44C0D502120CF9
:101A2300443DD602120C4474D602120C44B3D602BF
:101A3300120C4400D702120C4486D702120C4454F1
:101A4300D902120C44D7D902120C44BBDA02120C8D
:101A53004422DD02120C447BDD02120C44C5DD027C
:101A6300120C4420DF02120C4455DF02120C44A76F
:101A7300DF02120C445CE002120C440BE102120C74
:101A83004448E102120C44DDE102120C4449E20233
:101A9300120C44102900120C44422900120C447009
:101AA3002900120C44462B00120C44262C00120C65
:101AB300447E2C00120C44B92D00120C44052E0058
:101AC300120C442E3100120C44213400120C4471C8
:101AD3003500120C44073600120C44133600120C66
:101AE30044453600120C44C83700120C44793900BF
:101AF300120C440D3A00120C44503A00120C44CE1E
:101B03003A00120C44EB3A00120C441B3B00120C3B
:101B130044503B00120C44203C00120C44C93C00CE
:101B2300120C444F3F00120C446F4000120C445AF5
:101B33004100120C44DC4100120C44104600120C0C
:101B4300444D4600120C44A54600120C44D84600EE
:101B5300120C44424700120C44784700120C440311
:101B63004800120C445B4800120C44324900120C2A
:101B730044EB4900120C44864A00120C448E4D007B
:101B8300120C44AA4E00120C444D5200120C444154
:101B93005300120C44445300120C44735300120CB0
:101BA30044795500120C44525600120C44955600C9
:101BB300120C44EB5700120C442A5800120C44B385
:101BC3005800120C44E75800120C44AC5900120C94
:101BD30044C45B00120C44355C00120C44755C0079
:101BE300120C44035D00120C44255E00120C44E702
:101BF3005E00120C44EE6000120C44066100120CED
:101C0300441A6100120C44526100120C44806100BA
:101C1300120C44FF6200120C44246400120C448131
:101C23006400120C44336500120C445A6500120C14
:101C330044216600120C44B96600120C44DF6800AC
:101C4300120C44146900120C44776900120C44A668
:101C53006A00120C444E6B00120C447F6B00120C92
:101C630044976B00120C44266C00120C44DA6E008D
:101C7300120C44B27000120C44CE7000120C44EAF1
:101C83007000120C44B87100120C44AB7500120CB6
:101C930044008002120C44328002120C442184025C
:101CA300120C446D8402120C44B38402120C44558A
:101CB3008502120C44B18502120C44F68502120C03
:101CC300443D8702120C44518802120C44408C029A
:101CD300120C44C48C02120C44D18D02120C442DFC
:101CE3008E02120C441D9002120C44929002120CAC
:101CF300449C9002120C44A99002120C44D490020A
:101D0300120C44BB9102120C44659202120C44E380
:101D13009202120C44039302120C442C9302120CF1
:101D2300444E9302120C44AE9502120C4474960274
:101D3300120C44B99602120C44369702120C44E773
:101D43009702120C44199802120C445F9802120C69
:101D5300449B9802120C44EB9802120C443F9902E4
:101D6300120C44959902120C44E19902120C444E50
:101D73009A02120C44C99A02120C44949C02120C4B
:101D830044949D02120C44B99E02120C44F8A10221
:101D9300120C440BA502120C44C8A502120C440CED
:101DA300A602120C44BCA702120C44D0A702120CC8
:101DB30044DAA702120C44E4A702120C44F0A7026F
:101DC300120C440CA802120C44B7A802120C44F6DD
:101DD300A802120C4400A902120C440AA902120C14
:101DE300447AA902120C44C5A902120C44DAAA02CD
:101DF300120C4436AB02120C44B7AB02120C4476FD
:101E0300AC02120C447FAD02120C44B3AE02120CAE
:101E130044A1AF02120C44B9AF02120C4414B00235
:101E2300120C4432B002120C447AB002120C44A1D8
:101E3300B002120C443CB102120C4402B202120C66
:101E43004494B202120C440EB302120C4428B4029E
:101E5300120C44D5B402120C44FDB502120C444DCD
:101E6300B602120C44B1B602120C4413B702120CA0
:101E73004441B702120C4465B702120C449AB702EC
:101E8300120C44CBB702120C44FEB702120C441ED0
:101E9300B802120C4486B802120C447AB902120C2E
:101EA30044D5B902120C44FEB902120C4486BA029C
:101EB300120C4409BB02120C4434BB02120C441929
:101EC300BC02120C4417CF04120C444FCF04120C63
:101ED3004470CF04120C44B2CF04120C4414D00447
:101EE300120C441ED004120C442ED004120C44696C
:101EF300D004120C4449D404120C4436D604120CF8
:101F0300441CD804120C44B3D804120C4455D9040D
:101F1300120C44E5D301120C4463D401120C44BFE8
:101F2300D401120C440AD501120C4425D501120C1C
:101F33004450D501120C446DD501120C4479D501DE
:101F4300120C4410D701120C4429D701120C44AED1
:101F5300D701120C44C1D701120C44E0D701120C73
:101F63004484D801120C4405DA01120C44B8DB0195
:101F7300120C444EDC01120C4451DC01120C44C11E
:101F8300DC01120C44DFDC01120C4476DD01120C7F
:101F930044BEDD01120C44C1DD01120C4487DE0195
:101FA300120C44F4DE01120C441ADF01120C44A596
:101FB300DF01120C44C3DF01120C4409E001120CCF
:101FC30044BDE001120C4407E101120C4436E10167
:101FD300120C4493E101120C44C8E101120C44F4C5
:101FE300E101120C4402E201120C444FE201120C13
:101FF30044BFE201120C4408E301120C4454E30110
:10200300120C4480E301120C448BE301120C44A92B
:10201300E301120C4494E401120C449EE401120CFB
:1020230044D9E401120C44E9E401120C44F2E40142
:10203300120C4446E501120C445AE501120C448982
:10204300E601120C449EE601120C442CE701120C2B
:102053004471E701120C44FDE701120C4408E80146
:10206300120C444AE901120C4465E901120C44B113
:10207300E901120C4420EA01120C4459EA01120C42
:102083004473EA01120C44B5EA01120C4485ED01D4
:10209300120C4432EE01120C449FEE01120C44DF89
:1020A300F001120C44F7F001120C44FAF001120C87
:1020B3004406F101120C441AF101120C4422F101FD
:1020C300120C4455F101120C4457F201120C44DE78
:1020D300F201120C444EF301120C44D0F301120C22
:1020E3004491F401120C44B0F401120C4451F50173
:1020F300120C44AEF501120C44B1F501120C442547
:10210300F601120C4474F701120C447AF801120C14
:102113004405F901120C4420FA01120C44E8FA01B7
:10212300120C4419FB01120C443CFB01120C4445F4
:10213300FB01120C4474FB01120C4404FC01120C4D
:1021430044BAFC01120C442FFD01120C44D6FD01CC
:10215300120C444BFE01120C4482FE01120C44C0CB
:10216300FE01120C44879804120C440B9804120CC1
:1021730044E99D05120C44E29C05120C44E0B604AC
:10218300120C44ACB404120C44E2B304120C4435F4
:10219300B304120C442BB304120C4417B304120CF3
:1021A3004476A204120C44E3A104120C44D5B104F6
:1021B300120C4464B004120C4451A104120C4429BF
:1021C300A104120C44F2AC04120C44AEA804120C89
:1021D30044F8A704120C4460A203120C4456A20351
:1021E300120C44649E03120C44429D03120C44F8E7
:1021F3009C03120C44159B03120C44709503120CA0
:10220300449B9103120C441D9103120C44529003FE
:10221300120C44DC8F03120C440C8F03120C446E1B
:102223008E03120C44C28C03120C44EC8B03120C6D
:1022330044D5A004120C4443A004120C44B79F04D9
:10224300120C442F9F04120C44CC9D04120C44D84E
:102253009C04120C44469C04120C44428B03120C43
:10226300443D8B03120C44318B03120C44B385039E
:10227300120C44FB9B04120C44818503120C44137F
:102283008503120C44648403120C44AC8303120CC4
:1022930044E39B04120C44628303120C4474BF0294
:1022A300120C44578303120C44138103120C446F22
:1022B3008003120C44298003120C44008003120C87
:1022C3004484C304120C4457C304120C44C9C2040B
:1022D300120C448FC204120C44FFBE04120C445768
:1022E300BC04120C443CB904120C44169904120C9D
:1022F300448EB804120C440FB804120C4417B704EC
:10230300120C4442960500000080FB8F000100ADD3
:102313001D87000100AB1D35000400741D2500025C
:1023230000781D260002007A1D270002007C1D286C
:10233300000100861D29000100871D8400040000A0
:102343001B860001001E1D2A000100881D2B0001B1
:1023530000891D2C0001008D1D2D0008000C1B2E73
:102363000001008E1D2F0001008F1D300001009021
:102373001D31000100911D32000100141B330001C7
:1023830000151B34000100921D36000100161B3896
:10239300000100931D390001008C1D83000200A978
:1023A3001D63000100221B640001008A1D650001FA
:1023B300008B1D6D000100231B71000800041B66C8
:1023C300000100A81D43000100991D440002009A6A
:1023D3001D450001009C1D460002009D1D4700088D
:1023E300001A1B480001009F1D4B000100A01D04A3
:1023F300000100AC1DA1000100B01D37000100AFBA
:102403001D88000100AE1D3C000100171B3D0001AB
:1024130000941D49000200A11D67000100241B4D0B
:10242300000200A31D4E000100A51D4F000200A6DF
:102433001D3E000100981D51000100181B520001B0
:1024430000961D53000100971D54000100191B0045
:102453000000000000000136360101000102010006
:102463000103010001040106060502000007010043
:10247300340801000F090401010D0100FF0E0800DB
:102483000017020000190100FF1A0100011B0100DF
:10249300FE1C0100081D0200001F010001200100B5
:1024A30001210200002301000F2402000026010085
:1024B3000127010008280200FF2A0100072B01025F
:1024C300402C0100002D0100012E0100012F01000D
:1024D300FF30010B1D310800003A0100083B0100E9
:1024E3000F3C0100013D0100FF3E040000420400D7
:1024F30000460400004A0400004E04000052040099
:1025030000560400005A04000000000000200117D8
:102513008700000100200119870000020020011A32
:10252300870000030020011B87000004004201E133
:102533008600000500420174860000060042010D7A
:102543008600000700300116870000004042010D9D
:10255300860000FDFF2101148701002000200526CD
:102563001D010021002005271D010003F021275034
:102573001D14000E0042237619140055002127F67E
:102583001901037103010301030103010301032281
:10259300030203010310030003000300030003000D
:1025A30003000300034203000324030603000300A4
:1025B3000304031203250323032503230304030452
:1025C3000300030003000344030003000323030089
:1025D30003650321003503810300030503000300A2
:1025E3000300030003250323030302710230016088
:1025F3000211027002010202020202800210026151
:10260300023A004100630273027202620243020053
:102613000213023800000200020402120200020048
:10262300020002000204020402370037003C0244A5
:102633000200023900000200026502000235028135
:1026430002000205028202830200020101710101FC
:102653000101011101010131010101010180011099
:102663000161013B001400630173017201620143C4
:10267300010001130106013D0135000401120100AF
:102683000100010001000104010401330133013C95
:1026930001440132013600000100016501000135EA
:1026A3000081010001050182018301000103007122
:1026B30000300160001100700031022003500480DB
:1026C30000100061000000140063007300720062D8
:1026D3000043000000130006000000000004001285
:1026E3000000000000000000000400040037003771
:1026F300003C0244000000000000000000650000F0
:102703000035008100000005000000830000003652
:10271300000100060000000F0000000000000000A0
:10272300000000000003FFFF00000403FFFF0000A0
:10273300FFFF0FF4010005C4040320000100000B98
:10274300000000000000000003010F000000000073
:102753000000000000000000000000000000000076
:10276300000000000000000000000000005F158969
:10277300156515FF146B158F156B159B157115FFDB
:10278300146B158F157715FF14000000007D15FFDE
:102793001400000000000000008315FF1400000077
:1027A3000000000000000000000000000000000026
:1027B3000000000000000000000000000000000016
:1027C300000000000000000000000051170100514C
:1027D300170200D3160280CD160300D9160400DFBA
:1027E300160480E5160500EB160600F1163100030A
:1027F300173300091734000F17FFFF00000300030E
:10280300000400080010001F003E007B00F600ECEF
:1028130001D703AF075D0FB91E713D000007ECFD43
:10282300FDFDECDCDCCCBCACAC9C9C8C7C7C6C6C93
:102833005C5C5C4C4C3C3C2C2C1C1C03EAF5E5D545
:10284300D5C5B5A595958585757565655555454575
:10285300353525251515050A091D02D31C05DF1C71
:1028630007D91C0CBB1C0DC71CFF000000160F0072
:10287300000B150B020002220F3300000E0F5A69E2
:1028830067426565416C6C69616E63653039D0D1AF
:10289300D2D3D4D5D6D7D8D9DADBDCDDDEDF3030FE
:1028A30016181920231A1C1E3000034D4C465118CC
:1028B3001A250502000119161816161823030030ED
:1028C3003017181921301B1D1F30003C40423A3F7E
:1028D3003F392F47300C0E020B040B0A0708000F79
:1028E300020402010101010902E803000000BE0421
:1028F3000A01000E000300E80304090F0310040398
:102903000A0C041E0828020C0508151E04C082C008
:102913008312216B901B4D74ABF0A3741AF0901BC0
:102923004F74B1F0A3741AF0901B5174B7F0A374F1
:102933001AF0901B5374BDF0A3741AF002564B7433
:10294300F7120809901B41E4F0E9901B40F07C1A50
:102953007D1B7A427B1B1214E1901D9FE0901B4A62
:10296300F0901B4B7404F0A3741B0238D874F0125C
:102973000809EAFEEBFF54807003022AE1901B4032
:1029830012396D7003022ADAEA241B1251D8707CC3
:10299300EA241F1251D864137002A3E0706E8A8276
:1029A3008B83122B2F901B5B12476A750A00750BE2
:1029B30000800D1237AE12684A12143FAA0EAB0FF5
:1029C300EA4B60488A828B83E0650C7004A3E06560
:1029D3000D702C8A828B83A3A3A3A3E0F50EA3E03F
:1029E300F50FE50A450B8A828B83A3A3A3A360C3D8
:1029F300123AB0850A82850B83A3A3A3A380B78A67
:102A03000A8B0B8A828B8312476680B4E508242ADB
:102A13001251D8FCE5082402F8E43509F9E8FAE98B
:102A2300FB901B5B122C16A3A3E06402703C8A820A
:102A33008B8312476A800B88828983A3A3A3A31283
:102A43003AB0E849601F88828983E06A7003A3E093
:102A53006B70E488828983A3A3E06C70DA901DA570
:102A6300125508806BECF9121AE7850882850983F1
:102A7300E06401704FE5082418122B18120C9B1206
:102A83005DF2120AE8E5082412122B18120C9BE5DA
:102A930008123961120C97E508240B125DF6120A2D
:102AA300ECE50824171238FEE5082402FCE4350996
:102AB300FDE5082419FAE43509FB1222E5740A122C
:102AC3000C74800CE064027007AA08AB09121BC5E2
:102AD300AA08AB091213B5EEFAEF6480802DEA540D
:102AE30002600C901DBC7401F0EA6402FA8023EAD0
:102AF3005408601A121AE1EA4B700B901B5D125CCA
:102B0300CD7A08122B25EE6408FAEFFB80047A00D5
:102B13007B0002647CF582E43509F583E0F50A78ED
:102B23000A22FB901B40E0F91214B722A3A3E0F59D
:102B33000CA3E0F50D227B00901B40E0F91214ABCF
:102B430074042274F41208098A088B098A828B831D
:102B5300A3A3A312456212390938F583E02409FAC5
:102B63001264147003022C098A828B837402124547
:102B7300D7850882850983122C16E8F0A3E9126031
:102B83008E8A828B83A3A3A3A3A3A3A3A3F0E508A5
:102B93002403F8E43509122C0B1239093AF583E0C2
:102BA3008E828B83A3A3A3A3F0EE2409FAE43FFB55
:102BB3008E828F83A3A31257BAF5838882E0A2E59E
:102BC3008E828F83A3A3A3A3A3500474018001E483
:102BD300F0E5082403F582898312476AEA124CEB75
:102BE3003BF5831263DB120C931239083B1258AC8A
:102BF3008E828F83A3A312758A120C74EEFAEFFBF5
:102C0300901B401264618016F98882F583E0FAA371
:102C1300E0CA22124907A3A3227402120C747F0490
:102C2300020A1D74F21208098A088B09ECFAEDFBFB
:102C3300740E120F94E0FC12224F8A0C8B0DAE0C13
:102C4300AF0DEA4F6030AC08AD09122273E960267C
:102C5300AC08AD09EEFAEFFB122255E970148E822F
:102C63008F83123A9DFAEFFB122291AA08AB091245
:102C730022377900800279B402485674F0120809A9
:102C830074F6120D27EAFEEBFF8C088D09750FB35E
:102C9300852182852283E4F0750E008002050E9063
:102CA300290FE493F8E50EC3984003022DA5AA0E5D
:102CB3007B001221A18A0A8B0BEA4B60E08A828B8C
:102CC30083A3A3122DAC28F0F8C3EE98EF94005021
:102CD300CC7C157D007900AA08AB0912139D850AE7
:102CE30082850B83A3A3A3A3126887E0F8EEC3989E
:102CF3002925E0F8E433F9E50A28F582E50B39F5EF
:102D030083A3A3A3A3A3A3123913A312532F8A0C40
:102D13008B0DAC0CAD0DAA08AB091214E1850A8228
:102D2300850B83A3E06401700A125DF2740112390A
:102D33002580447401120D07850A82850B8312478F
:102D430068122231E9603D7409120F94E0C0E01269
:102D53005DF2D0E0F07409120F94E0640370137411
:102D630001120D07E508240BFAE43509FB1214E1FF
:102D730080127401120F94123AB0E50812531535FC
:102D830009126848850A82850B83125DFE12392574
:102D9300A3A3E0C0E0E5082414125DF6D0E0F075CB
:102DA3000F00A90F740A026479A3A3A3E0F8852195
:102DB30082852283E02274F7120809E9FE8A828B56
:102DC30083A3A3A3A3A3A3E0540860338A828B83C2
:102DD300A3A3A3A3A3A3E0540260218A828B83A3AA
:102DE300A3A3A3A3A3A3A3A3E06406600F74E96E44
:102DF300600A74CD6E600574F06E7003121AC90216
:102E0300415574F012080974EF120D27740F120F55
:102E130094125BB17408120F94E9F0ECFEEDFF74A9
:102E230005120F94123F1D124141A3E0F9122243F0
:102E33007406120F94125BB17406120F94124D7C38
:102E430070030230C012394DE0FA7406120F94E099
:102E5300F9121A09123120F8A3E0F9E849700302C4
:102E630030C0EE2403F50AE43FF50BEE2406F50823
:102E7300E43FF5097C00850882F58312476A850AD9
:102E830082850B83E0F912223D7403120F94125BC7
:102E9300B1850A82850B83E0C0E085218285228388
:102EA300123119D0E0124E91F985218285228312C5
:102EB30037B51249E3122DAFFAA3E0CA2407F5820E
:102EC300E43AF583E8F0A3E4125BBC2406F582E45C
:102ED30038F583E4126854124556120C93EE1239F6
:102EE300093F1258AC7403120F941245622409125D
:102EF3007584120C747429120F94126881122C10A9
:102F0300124EA43A126848742B120F94E0C0E08565
:102F13002182852283124D43D0E0F07402120F9474
:102F2300E4F07425120F947808120F3D02301774E1
:102F330003120F941258748882F583123108A3A3E5
:102F4300A312533AFB1221BF850E82850F83A3EA96
:102F5300F0A3EBF07403120F94123119A31231088A
:102F6300125549A2E6500F850E82850F83A3A3A3B2
:102F7300A3A3E0D2E1F07405120F94E0706B850E09
:102F830082850F83A3123AB0901B9BE0687003A362
:102F9300E0697055850E82850F83A3A3A31238E8D9
:102FA300750C00780C120C9B7808120C8F74291284
:102FB3000F94E0F50C780C120C9B7427120F9412EB
:102FC3000AEC901BA8120AEC79007419120F9412E0
:102FD300473A121C0D740A120C74850E82850F83F6
:102FE300A3A3A3A3A3E04405F07402120F94E00487
:102FF300FC8E828F831247648E828F83A3A3A3E008
:10300300F912223D7403120F94125BB17402120F72
:1030130094E004F07403120F94124D7C6067740201
:10302300120F94E0FA7406120F94123AB0C3EA989E
:10303300E49950517402120F941233F28521828560
:103043002283E028F8A3E039F9E8240FF50EE439E8
:10305300F50F850E82F583E4F07403120F94123199
:103063001364016003022F327405120F947401126A
:103073006467F07403120F9412563B123415E8F090
:10308300A3E9022F5685218285228312476A121AE9
:103093000F852182852283120AEC7426120F94E095
:1030A300FD7425120F94E0FC740A120F94E0F9EEFC
:1030B300FAEFFB121AC37402120C7480438E828FD0
:1030C30083A3A3A3E0C0E0740C120F94D0E0F0122A
:1030D30062D0E0C0E0740D120F94D0E0F0740612D9
:1030E3000F94124D7C7009740E120F9474B98007FB
:1030F300740E120F947410F07409120CFF121C0753
:103103007411026479E0850E82850F83A3A3A32241
:10311300E0124E69E022E0124E69A3A322852182C8
:10312300852283EAF0A3EB124D852274F01208097D
:1031330074E1120D277404120F94E9F07403120F53
:1031430094ECF07402120F94EDF08A0E8B0F742F2F
:10315300120F94122B31AA0CFB1219FD7401120FDA
:1031630094E9F0AA0CAB0D121A037401120F94E048
:1031730070030233ED852182852283E480158E82DC
:103183008F83A3A3A3A3A3E0D2E3F08521828522A7
:1031930083E0041263BFF8852182852283E0C3980C
:1031A30040030233E47401120F94E070030233E42A
:1031B3008521828522831233F2E50C28F8E50D3947
:1031C300F9E8240FFEE439FF8E82F583A3A3A3A3BA
:1031D300A3E0A2E040B5750800750A08750B0074FA
:1031E30002120F94E060037508207C087D007900CB
:1031F3007405120CFF12139D8E828F83E0603E9044
:103203001BEBE06401701AE508D2E3F508750B10B7
:10321300123402120F94E8F0A3E912522D74FF80C6
:103223007643080C750A0C8E828F83A312340D1219
:10323300684A7405120F9474FFF0A3805A74041241
:103243000F94E06009E508D2E6F508750A0A8E8254
:103253008F83A3E064FE7003A3E0F4703074121252
:103263000F947404125E1CF8741D120F94E8124537
:10327300D77412120CFF12192B7D007C0079007495
:1032830015120F94AA82AB83121739800B123402E2
:10329300120F94E8F0A3E9F07407120F94E508F015
:1032A300123944C0E07409120F94D0E0F0740A128A
:1032B3000F947401F07405120CFF121BCB741112DE
:1032C3000F94E060030233C2740D120F94124E8CFC
:1032D3008E828F83A3A3A3A3F0740D120F941245C0
:1032E300A5E50AF0A3E50BF07403120F94E0C0E028
:1032F300124536D0E01255496011901BEBE0C0E057
:10330300740D120F94124580D0E0F0740D120F94D7
:10331300123AB0850C82850D83A3A3A3A3A3123312
:10332300FB241C125BAB1268641233FD1254FB398D
:103333001262EFC0E012451DD0E01263B4C0E07426
:103343000D120F94124063D0E01260B5C0E0740D0B
:10335300120F94124059D0E0F0740D120F941234EE
:103363000D1233FB242A125BAB850E82850F83A3D8
:10337300A3A3A3A3A3A3A3E0125BA4123933C0E0C6
:10338300124045D0E0F0740D120F9412476A850E77
:1033930082850F831263CA2428F582E43B126848AE
:1033A30012393C1263DB120C931258A5EA125B3DEF
:1033B3003B127588120C747405120CFF121BD18E0C
:1033C300828F83A3A3A3A3A3E0D2E0F07411120F0F
:1033D30094E060030231817401120F94E01402310E
:1033E3008D7900AA0CAB0D121ACF741F026479E019
:1033F30075F007A4F8A9F022A3A312476EE8228E62
:10340300828F83A3123AB4740522E0123415A3A366
:10341300A322F8A3E0F9850E82850F83A32274F01B
:1034230012080974E8120D27E9852182852283F0A9
:103433008A0E8B0F8A828B83A3A3A3A3A3A3A3A325
:10344300E0F9121A278A088B09EA4B70030234FE4B
:10345300E50E124CFF12395C1238F3852182852266
:1034630083E060030235017C04850E82850F83A30C
:10347300A3A3A3A3A3A3A3E0F9121A2DEE4F607B8A
:103483008E828F83A3A3A3A3123AB07407120F945F
:10349300125CE2123AB07409120F94124607C0E0AC
:1034A3007411120F94D0E0126093A3A3A3A3A3A358
:1034B300A3123AB0740F120F9412684A7412120FC7
:1034C30094E412646FC8241FF582E438F58312581C
:1034D30070C413135403FC70027C048E828F83E048
:1034E300F97808120C97742059FD744059F9740344
:1034F300120CFF121AC37402120C740264777C0854
:10350300850E82850F83A3A3A3A3A3A3A3A3E0F99B
:10351300121A2D8B0BEA4B700302347FEE4F60DBE4
:10352300852182852283E0F50C780C120C9B85089B
:1035330082850983A3A3A3A3A3A3A3E0F50C780C1B
:10354300120C9B8A828B83A3A3A3E0FB8A82850B45
:10355300831270A78A82850B83E0FA8E828F83A3FE
:10356300A3E0F91222F17402120C7402348374F78B
:1035730012080974FA120D27E9FE780179017F0018
:10358300800379000F1248E6E0FCEFC39C5026EF5E
:1035930075F007A4FC85F008AD08EA2CFCEB3DFDB3
:1035A300123ED5E0A2E050DA540C60D6E0A2E2501D
:1035B300D3780080CF8A828B83A3A3A3A3A3A3E0A2
:1035C300703DE9A2E0400574016E70338A828B83FB
:1035D300A3A3A3A3A3A374011238C5E0C0E074039B
:1035E300120F94D0E0123F34E0C0E07404120F9441
:1035F300D0E0F07405120F94E812580F121C0774F0
:1036030006024152C082C0837901121ACF02564B7F
:1036130074F4120809EA4B901DBC6019E4F08A089F
:103623008B09F50AF50B7808120C8F7A02122B39E5
:10363300120C74800A7401F07A027B00122B2602AA
:103643002C2174F012080974F3120D277403120F5E
:1036530094E4F0A3F0901B5B1238F37401120F94FF
:10366300E4F0A31245DC04F0901B95E0A2E35003C1
:103673000237381238B97409120F94120F7D740986
:10368300120F947808120F3D901B5D7808120D0FEE
:103693007405120F947808120F2E1237BC7405129A
:1036A3000F947808120EE150077A017B000237A9C4
:1036B3007405120F94780C120F3D901DA4E0F509C8
:1036C300780C790812079AA80CA90D901DA5E0C3E0
:1036D30098E4995003E08001E8852182852283F0F4
:1036E3007409120F947808120F3DC008C009C00A6C
:1036F300C00B7405120F94780C120F3D1237BC786F
:103703000C790812079AE4F50AF50BD00FD00ED006
:103713000DD00C780C7908120DE2901B5D780C1219
:103723000F2E80111237AE12684AEEFAEFFB121415
:103733003FAE08AF09EE4F60658E828F83122DACCA
:10374300C398502DEE2403F8E43FF9E0FA88828908
:1037530083E0C39AF060237403120F94123C16742F
:1037630001120F94EEF0A3EF125CFDFEA3E0FF80C5
:10377300C48E828F83A3A3A3E4F08E828F831275FA
:10378300417401120F94124D7C8E828F83A3A3A3E5
:10379300A36091125CD6120F941237B5808974031B
:1037A300120F9412476A740D026479123AB4901B93
:1037B3005B2212589BA3A3A322901DA3127549E475
:1037C300F50AF50B2274F01208098A088B09890A95
:1037D30078007900901B5B1238F3FBEE4B601E08F8
:1037E3008E828F83A3A3A3A3124734601008E870CB
:1037F30001098E828F831238EFEA4F70E3901DA682
:1038030012476AC3E89AE99B40030238AC7A06126E
:1038130038AFA80CA90DEA4970030238AC8A828B31
:1038230083E508F0A3E5091238CEE50AF0901DA55B
:103833001248EE1238C5A3E4F0A3F0901B5B1247C5
:1038430034600D8E828F83A3A3A3A312684A8017CB
:10385300901B5B12684A901B95E0A2E34009123863
:10386300B9901B5D120F7D901B95E0A2E3503A7A4D
:10387300087B00901B40E0F91214BDEA4B4C4D70DD
:1038830028901DA3E0F508A3E085080CF50DE4F5E9
:103893000EF50F780C120C8F7A087B00901B40E01A
:1038A300F91214B17404120C7402647C7B001214B8
:1038B300398A0C8B0D221214C9EAF8EBF9ECFAEDF4
:1038C300FB221238C9221238CEA322F08A828B83BC
:1038D300A3A322E508F0024155F08E828F83A3A3B0
:1038E300A3A3A3A3221251E6A3A3F022A3A3A3A3FA
:1038F300E0FEA3E0FF227F05020A1DF582E43509FD
:10390300F583E0F922EA12390D222410F582E4222C
:1039130012391BA3A3A3A322123AB88508828509EF
:10392300832212392922F0850A82850B83A3A322DD
:10393300E50E2411123959E022E50E240E123959ED
:1039430022E50E2410123959E02212395122EE12C7
:10395300390D3FF58322F582E4350FF58322240FD9
:10396300F50AE43509F50B780A22E0F91213C18A46
:10397300088B09EA4B2274F2120809890B8A088B17
:10398300098A828B8312476A121AF3EA4B6004791D
:10399300B8806A121AFFE9F8902900E493F9E8C3A2
:1039A30099400479B280567A151238AFAE0CAF0D38
:1039B300EA4F7004791080458A828B83E4F0A31266
:1039C30038CEE50BF0750A007808120C937C127D53
:1039D30000EA2403126386120C74901B61124D7C5F
:1039E3007008901B61800C123AB088828983123A66
:1039F3000370F4EEF0A3EFF0121B117900024856A6
:103A030012476EEA4B8882898322C082C083901B4F
:103A13006180048C828D831270A8EC4D60288C82A7
:103A23008D83A3A3E069600574FF6970E68C828DC2
:103A330083A3A3A3E06A7003A3E06B70D6EC240313
:103A4300FAE43DFB80047A007B0002564B74F712C4
:103A53000809E9FD74FE6D70047C0180027C00900E
:103A63001B6180096D70027C0188828983124D7C01
:103A7300601F88828983A3A3A3E06A7003A3E06B1A
:103A830070E7ECA2E088828983A3A3E050D6F98093
:103A93000279FE024155EEF9800CA3A3127549EE9B
:103AA300227402120C747F02020A1DF583123AB4C7
:103AB30022123AB822E0F8A3E0F922123AB88E8231
:103AC3008F8322120C747F03020A1DC082C0837984
:103AD30000901B61800109E0FAA3E08A82F583E587
:103AE30082458370F102564B74F6120809E4F50817
:103AF300F5097808120C97902900E49375F013A444
:103B0300A9F0123C0B1268A8120C74E9FE74096E3A
:103B13007003121B0B023A9974F612080974FE1211
:103B23000D27852182852283E4F0A3F0A821A92211
:103B3300880889097808120C9775080275090078B6
:103B430008120C97126519120C74023AA474F51238
:103B5300080974EB120D27852182852283E4F0A3E3
:103B6300F0901B6180748E828F83A3A3E0C0E07406
:103B730002120F94D0E012522DA982AA8389088AD7
:103B830009750A007808120C937C127D00740612E2
:103B93000F9412686D120C747402120CF788088962
:103BA300097808120C977508137509007808120C28
:103BB300977404120F94124D1F75F013A4F8AAF012
:103BC30075F013E9123C07126521120C74852182EA
:103BD300852283123C168E828F831238F3EE4F7048
:103BE30085A821A922880889097808120C977508E5
:103BF300027509007808120C97126519120C747477
:103C030015023AC6A42AF9E82402FCE439FD7A42F3
:103C13007B0022E02401F0A3E03400F02274F412CC
:103C2300080974EB120D277E007F00A821A92288C2
:103C33000889097808120C977508028E097808120A
:103C43000C977C007D007A421268B4120C74E97000
:103C53006C8E0880567402120CF7880A890B780A56
:103C6300120C97750A13750B00780A120C97E50866
:103C730075F013A4F8AAF075F013E509123C0712C6
:103C830068B6120C74E9701B7403120F94AA82AB0A
:103C9300837402120F94E0F9121AEDE970050EEE27
:103CA30070010F0508E50870020509852182852248
:103CB30083123AB0C3E50898E509994098EEFAEF04
:103CC300FB7415022C1E74F61208098C828D83A3D3
:103CD300A3123F22F0EA125B433BF583E0C0E012FC
:103CE3003EDFD0E0F0EA241DF582E43B123AAE1247
:103CF3003EC3123F1DF0A3F0EA241FF582E43BF517
:103D0300831238F3EC123EB63DF583EEF0A3EFF0E9
:103D1300123EBC3BF583123EEDA3A3A3A3A3A3EEE4
:103D2300F0A3EF12579EFE8C828D83123F2C7403F7
:103D33005EFEC394034003023EA9EE600874026E64
:103D43006003023DCE8C828D83E0540CFE740C6EB6
:103D53007003023E0DE0A2E4400D88828983E08C6B
:103D6300828D83A3123F4274086E6003023E0D12DC
:103D73003ECD7401F08A828B83A3A3A3A3A3125124
:103D8300F370148C828D83E0440C123F34A3A3128E
:103D93003EEDEEF0A3EFF08C828D83E0A2E4402BA6
:103DA3008882123EFB123F10500109F582123EFB3E
:103DB300A3A3A3A3A3A3F0A3EF123F3C8C828D8301
:103DC300A3A3A3F0E82403F850010988828983E0C0
:103DD300C0E0EC2411F582E43DF583D0E0123F2CE2
:103DE3008C828D83E0A2E7507588828983E0FE8C04
:103DF300828D83123F4274FC5E700C8C828D83A390
:103E0300E054036403701E023EA9123ECDE4F07435
:103E13000C6E6003023D788882123F01123F1050FE
:103E23000109023D9A8C828D83A3E054036032889A
:103E3300828983E0C0E0EC123EE73DF583D0E012D7
:103E43003F438C828D83E05403640270148882891B
:103E530083E0C0E0123ED5D0E0123F438003A3E4E9
:103E6300F0EC124CEB3D126848EC2410FEE43DFFED
:103E7300EA241DF582E43BF583E0F5088E828F8307
:103E8300E0C3982508F508F0EA2417F8E43BF9881D
:103E930082F583E0C39508C0E0123EC3D0E0125719
:103EA3009EC39508500A123EC3E4F0123EDFE4F0CD
:103EB300023AA92415F582E422EA240DF582E422CC
:103EC300EC240DF582E43DF58322EC124EA43DF57E
:103ED3008322EC2414F582E43DF58322EC12390DA0
:103EE3003DF583222413F582E422E0FEA3E0FF8C58
:103EF300828D83A3A3A3A322123F01A3A3228983B9
:103F0300E0F508A3E0FFE5088C828D8322A3A3A339
:103F1300A3F0A3EFF0E82402F822123F22A322E445
:103F2300F08C828D83A3A3A322123F4AA882A98384
:103F3300221238C9A3A3A3A322123F4AA3E022A3B8
:103F4300123F4A08A983221257A7A32274F4120826
:103F53000974F3120D278A0A8B0BECFEEDFF8C829A
:103F6300F583E0540CF508E0A2E75006E508D2E734
:103F7300F508E508D2E1F5081251F37006E508D219
:103F8300E4F508E0A2E55006E508D2E5F5087C086B
:103F93007D007900AA21AB2212139D7402120F94A3
:103FA300E50812684EC0E07403120F94D0E0124586
:103FB300DCE50AF0A3E50BF07405120F941260BA66
:103FC300120F94E070777408120F9412456212571F
:103FD30090381260D5C0E07408120F94124063D079
:103FE300E01260B5C0E07408120F94124059D0E09B
:103FF300F07408120F9412404FE012458A12460BD8
:10400300125BA4EE24111251BFC0E0124045D0E070
:10401300F0EE24141251BFC0E07408120F9412453D
:10402300622435F582E438F583D0E01245AFC0E071
:104033007408120F94124566D0E0125E0E740D02DE
:104043002C1EE82432F582E439F58322123ABEA30A
:10405300A3A3A3A3A3221245761262B438F5832245
:104063001245762426F582E438F5832274F7120884
:10407300097E008A828B83A3A3A3A3A3A3A3A3A3E1
:10408300E064046003024131124E9CE0600302418C
:1040930031124CFE3B124D7A700302413188828902
:1040A30083E054036003024131E8124EA439F583DF
:1040B300E0FA8C828D83A3A3E0FBA3E0CB2411F56C
:1040C30082E43BF583E06A706588828983A3A3A3B6
:1040D300A3A3A3A3A3A3124135E06A7003A3E06BD8
:1040E300704C88828983A3A3124141E0FFA3E0CFF0
:1040F30024061251BF6A7003A3E06B703188828972
:1041030083A3A3E0F88C828D83A3A3E0F9A3E0F556
:10411300838982A3A3E06860138C828D83A3A3A306
:10412300E0F5838982E0540C640470027E01EEF9A9
:104133008020124139221247728C828D8322A3A3DD
:10414300124139A3A322740C120F94E0F9740D12D7
:104153000C747F01020A1D74F612080974FC120D17
:1041630027EAFEEBFFECFAEDFB8C82F583A3E05428
:10417300036016901B57124D7C60597900EEFCEFDB
:10418300FD12599B12097D804B852182852283EE86
:10419300F0A3EFF07402120F941245D1AC21AD22BB
:1041A3007A297B1B121D518A088B09A808A909EAE1
:1041B3004960218A828B83A3A3A3A3A3A3A3A3A35D
:1041C3007406F07A0088828B83124562125B64E086
:1041D300F9121CAF7404023AA674F212080974F3BC
:1041E300120D27EAFEEBFF8A82F583A3A3A3A3A301
:1041F300A3A3A3A3A3E0F50A901DBCE0700579BABD
:1042030002451A750801750900750C00750D007CCF
:10421300087D007900AA21AB2212139D7405120FA9
:104223009474011245E4540460127402120F94E072
:10423300D2E61245E454087003750803E054106095
:104243000674404508F508E0540860227402120F12
:1042530094E044C01245E45420600A7403120F949E
:10426300E0D2E080087403120F94E0D2E1F0EE2470
:10427300151251BF12454A70037401697006740820
:104283004508F5088E828F83A3A3A3A3A3A3A3A3A7
:10429300E07016121DAB852182852283125BB174F7
:1042A30002120F94E0D2E28030640F701074021295
:1042B3000F941245EC74044508F508807F8E828FB5
:1042C30083A3A3A3A3A3A3A3A3E064028E828F83E8
:1042D300700A126881E8F0A3E9F08060A3A3A3A3A6
:1042E300A3A3A3A3E06403700DAC21AD22EEFAEF08
:1042F300FB121B5F80468E828F83A3A3A3A3A3A37A
:10430300A3A3E064017035901BEBE060107402120C
:104313000F941245EC750910750AFF801874021288
:104323000F94E0440C1245DC74FDF0A374FFF074A9
:10433300044508F5088E828F83122B31EE24151263
:1043430051BFA2E0503F7402120F94E0540C701B53
:104353008E828F8312476A1217CFE9700579BB02E9
:10436300451A7402120F94E0D2E5F0EE24151251AF
:10437300BFA2E050107402120F94E0540C64047056
:1043830004E0D2E5F0EE24111251BFC0E074041230
:104393000F94D0E01260BC120F94E0600302451347
:1043A3007408120F941245A5E508F0A3E509F0126D
:1043B3004540E0C0E0124536D0E0F0124527E0C0AA
:1043C300E07408120F94124562123EE738F583D069
:1043D300E012460B64017011901BEBE0C0E074081F
:1043E300120F94124580D0E0F07408120F94124516
:1043F300A0124531FAE8241CF582E439F583EA1268
:1044030045D7EE2415FAE43FFB8A82F5831270A8A0
:10441300E81254FB39F5831245D1EE241C1251BF27
:10442300C0E012451DD0E012564112454A70037494
:10443300016970137408120F94124E8CFAEE241D46
:104443001251BFF9121A338E828F83A3A3A3A3A39E
:10445300A3A3A3A3E0C0E07408120F94124063D097
:10446300E0F07408120F94124059E50AF074081230
:104473000F94124D1F2428F582E439F583E50CF0DF
:10448300A3E50D1245B712458A125238125BA4EE0A
:10449300124531C0E0E82433F582E439F583D0E0F6
:1044A300F0EE241B1251BFC0E07408120F941245A2
:1044B30066D0E0F0EE241A1251BFC0E07408120F68
:1044C300941245622432F582E438F583D0E0124534
:1044D300AF124556120C931262BA1270A8740B12E3
:1044E3000F94124562242F127584120C74EE241556
:1044F3001251BF54406012901B77124D7C600AAA80
:1045030021AB2212599B12097DAA21AB22121BD186
:10451300740C120F94E0F9024851E82420F582E468
:1045230039F58322EE2419F582E43FF583221262E2
:10453300C9E022E82412F582E439F58322EE241837
:10454300F582E43FF583225480F8A3E05401F97423
:10455300806822F508A3E0F509750A00780822129D
:104563004576221245762434F582E438F58322A376
:10457300A3A3A312457A22E0F8A3E0C8221245764A
:10458300123EB638F58322FAA3E0FBE8242AF5822B
:10459300E439F583EAF0A3EB22A3A3A3A3123AB46D
:1045A300EE22124D23124D0339F58322F0EE24132C
:1045B30012524022F0EE240D12524022E0FC8A8275
:1045C3008B83E02CFCA3E03400FD8A828B83ECF028
:1045D300A3EDF022F0A3E4F022F08521828522836B
:1045E30022F0EE241512524022E0D2E3F01245F4F9
:1045F300228E828F83123AB8852182852283E8F046
:10460300A3E9F022E8F0A3E9125CF7E02274F712C1
:1046130008098A828B83A3E0640170047E638002AD
:104623007E648A828B83E06008790512464424F312
:10463300FE901B93E06007F912464424F2FE024108
:1046430031121C79E9F8EEC3982274F61208097442
:10465300FE120D27852182852283125BB1E9FEECD0
:10466300FAEDFB900530124D7C6032A821A9228817
:104673000889097808120C977D01740E120F94E0D3
:10468300FCEEF9900530125B8512097D7402120C61
:1046930074EA4B60047900800679B2800279B6022D
:1046A3003AA474F7120809E9FE901B4D124D7C6081
:1046B3001F7409120F94E0F5087808120C9BEEF9A9
:1046C300901B4D125B8512097D7401120C748002DC
:1046D30079B602415574F71208098908ECFEEDFF1B
:1046E30079B5E508245E602014600624F860348000
:1046F3003D90053212473460351268C512097D8E2C
:10470300828F83125BB18024901B4F1270A8EC4DF3
:10471300601CEEFCEFFD901B4F125B8512097DE9D7
:10472300F9800B901B4B12473A1214E179000241B6
:104733005512476EEA4B221270ACEEFAEFFB22746D
:10474300F7120809E9FE79B574AB6E700B901B4B39
:1047530012476A1214E179000241558E828F83A3B6
:10476300A3A3A3A3A3A3A312476E2212477222E01B
:10477300FAA3E0FB2274F1120809EAFEEBFF8C0AAC
:104783008D0B750801901B9BE06E7003A3E06F70A7
:104793000C124845AA0AAB0B1214E1805E121DB13C
:1047A300EE6A7002EF6B7009AA0AAB0B121DB78099
:1047B3004AAC0AAD0BEEFAEFFB121907E9F50890C4
:1047C3001DABE07036122261E97030E508702C9061
:1047D3001B6BE06E7003A3E06F7020EE4F601C75DF
:1047E3000C63750D1B750E00780C120C937C087D01
:1047F30000AA0AAB0B126871120C74A9080271A407
:1048030074F2120809EAFEEBFF8C088D09750A01A0
:10481300124845EEFAEFFB1214DBE96401701190C4
:104823001B9B123AB085088285098312684A800E61
:10483300AC08AD09EEFAEFFB12190DE9F50AA90A66
:104843008011121DA58A0C8B0DAC0CAD0D22740DBD
:10485300120C747F06020A1D74F6120809EAFEEBB5
:10486300FF7A0D7B00121439EA4B6062EE242412A6
:10487300654EF0EE242512654EA3124913126554BA
:10488300A3A31262E71248EEF0EE1248D4124903D2
:10489300E8F0A3E912492A1248FB12684AEE1248CB
:1048A300DD1263AAA3A3A3A3F0EE24331251BFC066
:1048B300E01248E6D0E01260D91248FBA3A3A3E8B4
:1048C300F0A3E9124922C0E0124E9CD0E0F0023A74
:1048D300A9242AF582E43FF58322242EF582E43FBE
:1048E300F58322EA1253153BF583221248F222E0A4
:1048F3008A828B83A3A3A322126409A3A3A3A32263
:1049030012490722123AB88A828B83A3A3A3A32254
:10491300F012491822EE2426F582E43FF58322F0B3
:10492300EE243212524022F0EE242C125240227412
:10493300F412080974FE120D27ECFEEDFFEC2416A9
:104943001251BF64057010EC2406FCE43FFD121BFA
:1049530059E970030249DEAC21AD22126603121736
:10496300D5852182852283124D7C606B8E828F8355
:10497300E064017058E875F009A4F8AAF075F0092D
:10498300E9A42AF974C428F8740839F9E8FAE9FBA8
:104993008882F5837808120F3DEE124A80120EE1E9
:1049A30040278521828522831245A01251CD1249C9
:1049B300E37808120F3D9086FE7808120E1C8A8257
:1049C3008B837808120F2E800A79A28010EE240FB1
:1049D3001268447900800679A1800279C8022C1CF0
:1049E300124601EE1262D52274F21208098A0C8B68
:1049F3000DECFEEDFFEC1251CDE4F0A3F09086F642
:104A03007808120F3DEC124A80120D536067EC24B4
:104A13000E1251C6703478B3901B92E07028901B2D
:104A2300C4E064017020EC24111251BFF9121C611F
:104A33008B09A909EE124CFF3F125BAFEA496004F0
:104A43007800800278A18808802EE06004640270F8
:104A53000A121B6BE9F5087007801DE064037010F0
:104A6300EEFCEFFDAA0CAB0D1217F9E9F50880086F
:104A73007508A180037508A3A9080248561262D5D8
:104A830078082274F012080974F5120D27EAFEEB78
:104A9300FFEA240AFCE43F8C82F583127545124D2C
:104AA300097403120D078A828B831259A5E97003D7
:104AB300024B6F7401120D077403120CFF1217D50A
:104AC3007401120F94124D7C7003024B6FE875F062
:104AD30009A4F8AAF075F009E9A42AF974C028FC1E
:104AE300740839FDE508240E125DF6E4F004120F94
:104AF30094123AB0E508124CFF35091268488C82CB
:104B03008D83120F71E5082412125DF6120F7D904A
:104B130086FE7808120F3D8C828D837808120E7BF7
:104B23008C828D83780C120F3D90870A7808120FC0
:104B33003D780C790812079AE5084509450A450BA3
:104B4300702A7401120F94124D1F75F009A4F8AA6C
:104B5300F075F009E9A42AF974C828F582740839B4
:104B6300F5837401F07A007B08124D2C8E828F83BB
:104B7300A3A3A3A3A3A3A3A3A3A3E02406FCA3E04B
:104B83003400FD8E828F831259A51260C7603EEEFA
:104B9300240A124CF11245A574681245D7E8124C49
:104BA300EB39F5837402F0901B7D120F718C828DAB
:104BB30083125B9E1257903CF583120F7D9086FE05
:104BC3007808120F3D901B7D7808120E7B124D67FB
:104BD300705D901B4B124D17A3A3A3A3A3A3A3A381
:104BE300A3A31257C61214DBE97010125784901B4B
:104BF3004B12579670051260C760348E828F83A361
:104C0300A3A3A3A3A3A3A3A3A3124D1712476A129B
:104C130017FFE960118E828F83A3A3A3A3A3A3121B
:104C23004D53E4F0A3F08E828F83124D39E4F012DA
:104C33004D676003024CE68E828F83A3A3A3A3A3D5
:104C4300A3127541901B92E06003024CDB901BC4DE
:104C5300E064016003024CDB750A3A750B00780AC5
:104C6300120C977402120CF7880A890B780A120C3B
:104C730097126B40120C74E9705BE508240E125D09
:104C8300F67401124D81C0E0E5082411125DF6D0DF
:104C9300E0F0E508240F125DF6743A1245D7901B35
:104CA30079120F71E5082412125DF6120F7D9086BA
:104CB300FE7808120F3D901B797808120E7B9086C0
:104CC300FE7808120F3D901B797808120D53700877
:104CD300124D288003124D09124D67700612568734
:104CE30074A1F0740B026479240EF582E422F8E4D3
:104CF3003FF9E8FCE9FD8882F58322EA124D03229D
:104D0300240FF582E422E508124D033509F583E407
:104D1300F0A3F0221270AC8E828F8322124D2322D5
:104D2300123AB8E8227A007B02901A24E0F91213AF
:104D3300E5228A828B83A3A3A3A3A3A3A3A3A3A3F1
:104D4300124D472212457A240EF582E438F5832268
:104D5300A3A3A3A3124D5B2212457A240FF582E489
:104D630038F583228E828F83A3A3A3A3A3A3124523
:104D730072240FF582E438F583124D234922124D34
:104D83008522F0852182852283E02274F6120809A8
:104D9300EAFEEBFF7A237B00121439EE240AF508AE
:104DA300E43FF509850882125BAF7C237D0079001F
:104DB30012139D850882850983124D7C7003024E70
:104DC3004FEEFAEFFB121B77124D6760748E828FE2
:104DD30083124E8264018E828F83A3A3A3A3A3A312
:104DE3007007124E78740E8021124D7C7010126081
:104DF300C7700B8E828F83A3A3E0A2E05007124EED
:104E03006E740D8005124E6E74051260D9540364DE
:104E1300017007124E567405800B901B93E0C0E09F
:104E2300124E56D0E0124E91F58388821251EC85D2
:104E33000882850983124562125B4338F583E98052
:104E43000E850882850983125C288003125B6BF050
:104E5300023AA98E828F83A3A3A3A3A3A3A3A3A38D
:104E6300A3124E6822E0125B8AA3228E828F83A351
:104E7300A3A3A3A3A3124572125B4938F58322A30C
:104E8300A3A3A3A3A3A3A3A3A3124D47E022124E5C
:104E93009522126618F8A3E022EA124EA43BF5838A
:104EA30022240CF582E42274F112080974E4120D31
:104EB300278A0C8B0D8C088D097A237B00121439F9
:104EC3008A0A8B0BAE0AAF0BEA4F70030251A7128B
:104ED3005B4FE50824151251D8687003A3E0698E6F
:104EE300828F837004740280027401F0E508240D3C
:104EF300F8E43509F98882F583E0FAC3E49AFA9570
:104F0300E0FB1251D42AFAA3E03BFB8E828F83A3EA
:104F1300A3A3A31257AD8E828F83A3A3F0EE242005
:104F2300F582E43FF583E4F0EE2421F582E43FF5D6
:104F330083E4F0EEFAEFFB121C2B850882850983CC
:104F43001251F370098E828F83A374058006901B20
:104F5300931251E1F0EE2417F50AE43FF50B8E822C
:104F63008F831251ECE9850A82850B83F0EE2416B8
:104F7300F8E43FF9E508240EFAE43509FB88828951
:104F8300831245BFE5082410FAE43509FB850A823C
:104F9300850B83E0FC88828983E0F88A828B83E037
:104FA300C398C39CF812522DF0EEFCEFFDAA0CAB94
:104FB3000D121B71E9F50B8E828F83E0640270067C
:104FC3001257841251B1E50B600302519E750C0018
:104FD300750D00901DABE064016005E06402703F55
:104FE3001251C36008EE24211251C670328E828F93
:104FF30083A3A3A3125B711251F9EE24161251BFBE
:10500300125222FAE439FB1238B1EA4B60111263EF
:10501300D3120C93125207AA0C126871120C74EE7D
:10502300FAEFFB121C37E9F50B901DABE06401604E
:1050330008E064026003025191E97003025191E5B3
:105043000C450D700302519E8003850E0B1251C354
:10505300600BEE24211251C66003025197850B0E9B
:10506300850C08850D09750A007808120C931252F5
:10507300078E828F83A3A3A3A312758A120C74EEE7
:1050830024201251BF600D1251CC74681245D7EE23
:1050930024208015EE24211251BF60151251CC74C7
:1050A30003F0A37401F0EE2421F582E43FF583E4D9
:1050B300F0EEFAEFFB121C37E9F50B70907C137DD1
:1050C3000079007409120CFF12139D741A120F94C5
:1050D300740112523864687002A3E0704F8E828F9D
:1050E30083124D53E06405600302504D7C0879FF41
:1050F3008E828F83A3A3A3A3E0242A1257C9121479
:105103001BE9700302504D7C087D0079FF74011286
:105113000CFF12139D7401120D077A007B0079AB0B
:10512300121B537419120F9474FC80151251CCE0A6
:1051330064037004A3E0640170087419120F94747B
:10514300FFF0E4F508F5097808120C977402120DC4
:10515300077413120F94AA82AB83125CAE120C7401
:10516300852182852283E0602B7409120CF788085D
:1051730089097808120C97750813750900780812C5
:105183000C977C007D00126521120C748006E50CDF
:10519300450D6007AA0CAB0D12143FEEFAEFFB129C
:1051A300143F8003750B10A90B741C0271A1EE242C
:1051B30006FAE43FFB1214E122EE240C12524022C1
:1051C300EE2420125240640122EE124D033FF58378
:1051D30022E508240EF582E43509F583E022125115
:1051E300E6A322E08E828F8322A3E0F9121C7922A8
:1051F300E054036401221251FD22E0FAE82AF8E4A4
:105203003400F9228E828F83A3A3A3125B751251FC
:10521300FDEE2416125240125222FCE439FD22FA0A
:10522300E82AF8E439F9E824042212523122126000
:10523300E8A3A3A322F012523D22EE240FF582E449
:105243003FF583E0227901020C4174F4120809EA64
:10525300FEEBFF8A82F583A3A3A3A3A3A3A3A312B5
:1052630045622424F582E438F5831251F3702E8AC3
:10527300828B83124E82702512531BE06405701DCE
:1052830012531BA3E0F87401686005740668700785
:10529300124D3574028005124D357403F0EA240A69
:1052A300125C1C125B85E4F0EA2408F8E43F122C3C
:1052B3000B2431F582E43AF583E0C0E01268BCA325
:1052C300A3D0E012533ACA242EF582E43AF583E0E0
:1052D300C0E01268BCA3A3A3D0E0125860C8125365
:1052E3001538123AAE1268BC12532F8A0A8B0BACD4
:1052F3000AAD0B8508828509831257C61214E1850E
:10530300088285098312476A121C37125C17F00260
:105313002C21240BF582E4228A828B83A3A3A3A3EB
:10532300A3A3A3A31260AEF583888222A3A3A3A39E
:10533300124601121DA5221257A2FAA3E02202521D
:1053430048C082C083901B6D747DF0A3741BF090E2
:105353001B6F7489F0A3741BF0901B71748FF0A3FF
:10536300741BF0901B737483F0A3741BF002564BF1
:1053730074F4120809EA2408FEE43BFF8E82F583E5
:10538300124D1F125B5BE0F50874035508F5091213
:1053930057C1F8A3E08882F583E508F0A3A882A9A2
:1053A30083E5096009740265096003025460740CA3
:1053B3005508FC600A74086C600574046C702674EC
:1053C3000265097006E508A2E4401A8A828B83A36A
:1053D300A3A3A3A3A3A3A31255661262B43D1255BC
:1053E30001A308A983740C6C701C12556224281243
:1053F300554E2428F582E43DF583A3125EE2F0E8DE
:105403002402F8500109740265097006E508A2E454
:10541300404B125562242A12554E242AF582E43D4C
:10542300F583A312551012556C125EE212556CA34C
:10543300125508E82404F8500109EC600F74086C55
:10544300600A740C6C600574046C7011125B922416
:1054530026F582E43C125501A3A882A9838A828B94
:1054630083A3A3A3A3A3A3A3A3125530540370142C
:10547300E508A2E1400E125B921254FB3CF583E077
:10548300548060081255161255038019901B41E091
:10549300C0E0125516D0E012554388828983125515
:1054A30043041257A7A3A882A983E508A2E750459E
:1054B3008E828F8312553088828983125549125503
:1054C3003554036030125B922434F582E43C125E5F
:1054D300E0F0E508A2E1501D8A828B83A3A3A3A376
:1054E300A3A3A3A3122C102435F582E43A125EE0A1
:1054F300A3F0E82403022C21241EF582E422F58381
:10550300125510F022125510A3A3A3F022E08882B3
:105513008983228A828B83A3A3A3A3A3A3A3A3E048
:10552300FCA3E0CC2432F582E43CF58322E012555F
:105533003522FCA3E0CC2425F582E43CF583E0226C
:10554300F0901B41E0221260E4E022F582E43DF595
:105553008312551012555B221260E8125566228E93
:10556300828F83E0FDA3E0CD22A312555B242CF5AB
:1055730082E43DF58322C082C0838A828B831256E4
:105583003BFC74035CF98A828B83A3A37401F0E967
:1055930060057402697061740C5CF8600A740868D1
:1055A300600574046870137402697005ECA2E4402A
:1055B300098A828B83A3A37402F0740C68700A8A2D
:1055C300828B83A3A3E02402F07402697005ECA22A
:1055D300E440258A828B83A3A3E02404F0E8600FD0
:1055E300740868600A740C68600574046870098A3A
:1055F300828B83A3A3E004F0ECA2E7502A8A828B78
:1056030083A3A3E00412564112311AE05403601736
:105613008A828B83A3A3E004F0ECA2E150098A827F
:105623008B83A3A3E004F08A828B83A3A3E004F01B
:105633008016852182852283124E68A3E022F08A98
:10564300828B83E022120C74D083D082020C41C07F
:1056530082C0838A828B83A3A3A3A3A3A3A3A3A3AD
:10566300A3124D7C60098A828B83A3A31256748094
:10567300D7A3A3A3A3A3A3A3A31256802212477263
:1056830012143F2212568B22EE240CF582E43FF5CE
:10569300832274F612080974F4120D271257D0FCF2
:1056A300A3E0F5838C82A3E0C0E07402120F94D0D0
:1056B300E012587E1258677404120F9412684A74E9
:1056C30002120F94E0640470141257E62412125766
:1056D300C97406120F941257AD241A8035E0640181
:1056E3006005E064067039EA2402F8E43B122C0BEF
:1056F3001257903AF583E0C0E07403120F94D0E0A0
:1057030012579E24131257C97406120F941257ADE1
:10571300241B1258677408120F94E8F0A3E9802B36
:105723007406120F94E4F0A31257E124121257C91E
:105733007408120F941257BAC8241AF582E438F584
:1057430083E0C0E0740A120F94D0E0F07406120FE5
:1057530094124D7C601F7406120F9412476A12183C
:10576300FBE96401700F1257847406120F941257E9
:105773009664017007AA21AB22121C13740C023A1F
:10578300A6121DA58A088B09AC08AD09222412F5BF
:1057930082E42212476E1214DBE9221257A222126C
:1057A30057A7E022F088828983221257B122EAF0B8
:1057B300A3EB1257A7E0221257B1F8A3E02212611C
:1057C30042E022E02406FAA3E03400FB228A828B23
:1057D30083A3A3A3A3A3A3126885E8F0A3E9F0120C
:1057E30057E62212588FE022C082C08374FD120D47
:1057F30027125815123114C0E07402120F94D0E02E
:1058030012580F121C197403025648E4F0AA21AB74
:1058130022228A828B83A3A3A3A3A3A31245F88A7C
:10582300828B83A3A3E022C082C08374FA120D2764
:10583300126877125884C0E07402120F94D0E012F9
:105843005860F5838882A3A3E0C0E07405120F9427
:10585300D0E012580F121C1F74060256481257A2AA
:10586300F8A3E022F8A3E03400F922A3A31258E23C
:1058730022E02402F8A3E03400F9221257A2240202
:105883002212460112588F12589BE022EA2402F892
:10589300E43BF98882F58322E0FAA3E0F5838A8268
:1058A300A322E50E12390D350FF583E0FC7D0022AE
:1058B300C082C0831258D6600A24FC600B24F960AE
:1058C3000C800D121BAD8008121BB38003121BB991
:1058D30002564B8A828B831258E024FB22A3A31225
:1058E3005B89E02274F612080974E4120D27EAFEBC
:1058F300EBFF7401120D078A828B83A3A3A3A3A3D7
:10590300A31259A57409120CF7880889097808129B
:105913000C977402120D077403120CFF125CAE1283
:105923000C74852182852283E06036741A120F94E9
:10593300E060046401702A901B24E070248E828F3F
:1059430083A3A3A3A3A3E070188E828F8312599F0E
:10595300603F8E828F83A3A3A312599BE0640760E9
:10596300308E828F83A3A3A3A3A3A3A3A3E0701466
:105973008E828F8312586E640560097A347B01121C
:1059830016A9800DEEFAEFFB901B75125B851209C9
:105993007D741C023AA6EEF9125B8C221258E06465
:1059A300062212476E121B592274F412080974FA64
:1059B300120D27EAFEEBFF1231202408F582E43BA7
:1059C300125BB7240AF582E438125BB7125B6412E8
:1059D300580E121BA1125635F508125B4F85218212
:1059E3008522831268C2E0687003A3E069602EE534
:1059F30008A2E55028852182852283A3E0FB901B22
:105A03006D125B8512097D85218285228312456291
:105A1300240A124D767006125635C2E5F01251BCB7
:105A23006003025B387403120F947436F07402122D
:105A33000F94125B71A3A3E028C0E07404120F94C7
:105A4300D0E012522DA3A3E0C0E07405120F94D04E
:105A5300E0125CF0F8A3E0F9E849601BE8125B434D
:105A630039F583E0FAE8125B4939F583E02AF874E3
:105A730004120F94E028F07403120CFF1219678AC2
:105A8300088B09A808A909EA497003025B2D8E82D5
:105A93008F8312476A88828983A3A3125BB1E812BA
:105AA3005790391260D5C0E0E8125B5BD0E012601A
:105AB300B5C0E0E82425F582E439F583D0E0125C33
:105AC300FDC0E0E8242EF582E439F583D0E0F074DC
:105AD30002120F94E0FA1257C12AFCA3E03400FD2E
:105AE300E8125B3D39F5831245D1E82431F582E4B0
:105AF30039F583EA125CF0FAA3E0FBEA4B6019E89C
:105B0300242FFAE439FB8E828F83A3A3125B9612B0
:105B13005B493CF5831245BF8E828F83A3A3A3A366
