:020000040000FA
:06000000020F14020415BA
:03001B000205F0EB
:03002B00020C794B
:030033000204E8DC
:030043000209446B
:030053000202E7BF
:03006B0002044F3D
:030073000206453D
:1000830002037301010000000000F8FF07FFFF00F7
:10009300000504000000030001FFFFFFFF00141030
:1000A3002700000020FD000206FFFF1E2A160000A5
:1000B300000000000000000000000000000000003D
:1000C300000000001E000104010C000201F686027C
:1000D300E68601040000241A000000E8030000FF84
:1000E300FF751A0188130000E80300006400640030
:1000F300B801A0BB0D00A0BB0D0002020207040162
:10010300051E02051E020A0A010108080103B80BB5
:1001130002803E0102FEFFE8030A050001FFFF0221
:100123000A011401E00000000002000000050301C1
:10013300010F030003000300030003000300030097
:100143000300030005000A00140028004F009E006E
:100153000000252700000000912500000000FF009B
:100163000000FF0000120F24604F120F606012E7BF
:10017300548066F6120DC97011120FC1703B090944
:1001830009F4F618F618F618F622120DDD7015129A
:100193000FD308080860EAE6447FF618768018E46F
:1001A300F618F622120FD36016120FC17012E4F67E
:1001B30008F608F608E65480F60909091818182203
:1001C300EAC0E0EBC0E0ECC0E0EDC0E0E687F0A4FD
:1001D300FBACF008E687F0A42CFCE435F0FA180930
:1001E300E687F0A42C4B60027401CA35F0FCE433BB
:1001F300FB09E687F0D2F7A42CCB35F0FC1908E60F
:1002030087F0A42BCC35F0FBE433FD0819E687F027
:10021300D2E7A42C4ACB35F0CD3400FC09E687F0B5
:10022300D2E7A42DCC35F0FDE433FA0918E687F0C4
:10023300D2F7A42CCD35F0CA3400FC08E687F0D2FF
:10024300E7D2F7A42ACC35F07A7E20E70B0ACB332A
:10025300CBCD33CDCC33CC33CB3350147004ED3012
:10026300E00ED2F1E4CD3DCDCC3CCC3B5005DA05DC
:10027300C2F1EB547FC63308E63392F0FBE7330950
:10028300E733C39A502D2B70190C0D4C4D70151874
:1002930006E608C333700D20F10AA2F013F6E41842
:1002A300800B4024E4F630F002768018F618F61836
:1002B300F68024D33B14501074FFA2F013F6187683
:1002C30080E418F618F6800FA2F013F618E633034D
:1002D300F618ECF618EDF6D0E0FDD0E0FCD0E0FB2C
:1002E300D0E0FA22C0E0C0D0E8C0E0E9C0E0EAC054
:1002F300E0EBC0E0ECC0E0EDC0E0EEC0E0EFC0E05A
:10030300C008C009C082C083C0F0A2AFE433F509BE
:10031300D2AF85A708AFA1EF5508FE74105E600643
:1003230012119275A1EF74085E600812119875A1FD
:10033300F78024EFA2E092F0E508A2E082F05017E4
:10034300906198E0F8900AB8E0C398A2D265D033E0
:100353005002E8F075A1FE752300E509A2E092AF13
:10036300D0F0D083D082D009D008D0E0FF0203FBC5
:10037300C0E0C0D0E8C0E0E9C0E0EAC0E0EBC0E024
:10038300ECC0E0EDC0E0EEC0E0C082C083C0F0A2EC
:10039300AFE433FED2AF9061A4E0F8759B00E59122
:1003A30058540860087591F71211DA8023E59158C3
:1003B300541060087591EF1211E08014E591A2E0EA
:1003C30092F0E8A2E082F05007E0C2E0F012131EC0
:1003D3009061A3E0F8E5E9585404600E1213007528
:1003E300E9FB906193E0A2E640F2752300EEA2E000
:1003F30092AFD0F0D083D082D0E0FED0E0FDD0E049
:10040300FCD0E0FBD0E0FAD0E0F9D0E0F8D0D0D0D7
:10041300E032C0E0C0D0E8C0E0E9C0E0EAC0E0EB11
:10042300C0E0ECC0E0EDC0E0EEC0E0C082C083C03D
:10043300F0A2AFE433FED2AF9061A5E0F8E5BF5878
:100443005404600675BFFB12132A809EC0E0C0D01F
:10045300E8C0E0E9C0E0EAC0E0EBC0E0ECC0E0EDFA
:10046300C0E0EEC0E0C008C009C00AC00BC082C033
:1004730083C0F0A2AFE433FED2AFE589A2E15030EE
:1004830090056A7401F0E589540290056BF07508D4
:1004930019750900750A00750B007808120CCC7ADF
:1004A300107B00900569E0F91215167404120CB163
:1004B300758900C2C5752300EEA2E092AFD0F0D0DB
:1004C30083D082D00BD00AD009D008D0E0FED0E090
:1004D300FDD0E0FCD0E0FBD0E0FAD0E0F9D0E0F8CA
:1004E300D0D0D0E032C0E0C0D0E8C0E0E9C0E0EA5C
:1004F300C0E0EBC0E0ECC0E0EDC0E0EEC0E0C0085F
:10050300C009C00AC00BC082C083C0F0A2AFE433ED
:10051300FED2AFE58BA2E0503290056A7404F0E599
:100523008BA2E0E43390056BF0750819750900752B
:100533000A00750B007808120CCC7A107B0090052A
:1005430069E0F91215167404120CB1758B00C2E838
:100553000204B81205A130F0391205E68034120501
:10056300A120F01430E72B74FFFCFBFA747F802288
:10057300E4FCFBFA7480801AB48008BC00F2BB0070
:10058300EF800F50EBF9E4C39AFAE49BFBE49CFC85
:10059300E499C6CC18C6CB18C6CA18C6F922E4C952
:1005A300C608CAC608CBC6D3330308CCC63392F0F9
:1005B300C3947F402E94184019C9B90704CACBCC01
:1005C300225025C309CA33CACB33CBCC33CC33D95E
:1005D300F422F4600DC9CCC313CB13CBCA13CAD90D
:1005E300F6CC22E4FCFBFA2214FCFBFA22C0E0C0A6
:1005F300D0E8C0E0E9C0E0C082C083A8F9E8C0E069
:10060300900A25E0F874A428F582E43409F583D030
:10061300E0F0900A24E0F8A3E0687006E595900AFC
:1006230027F0900A25E004F0C394804002E4F0A38D
:1006330074C6F0D083D082D0E0F9D0E0F8D0D0D027
:10064300E032C0E0C0D0E8C0E0E9C0E0C082C083CF
:10065300900AA8E0F8A3E0687008539AF7A374011E
:100663008022C2EA900AA8E0F8740128F0742828CE
:10067300F582E4340AF583E0F5F9900AA8E0C3941F
:10068300804002E4F080ACC3E498F8E499F91206E0
:10069300CB8026C3E49AFAE49BFBE920E7E9120640
:1006A300CBE498F8E499F922C3E498F8E499F912B1
:1006B30006CBE498F8E499F9C3E49AFAE49BFB22A5
:1006C300EB20E7CFE920E7E0B90010BB0008E88A98
:1006D300F084F8AAF022E4FBC8FA22EB70227B1024
:1006E300C833C8C933C9335007C39AC3DBF2800682
:1006F3009A50012ADBEAC833F4C8C933F4C9FA2291
:1007030075F008E4C833C8C933C933C99AC99B50C3
:1007130004C92AC93BD5F0ECFBC833F4C8E4C9FAD1
:1007230022080808EAC0E0EBC0E086F0E7A4FA1864
:100733000986F0E7A42AFA180986F0E7A42AFA182A
:100743000986F0E7A42AFA1986F0E7A4FBE5F02A64
:10075300FA190886F0E7A42BFBE5F03AFA190886A4
:10076300F0E7A42BFBE5F03AFA18180986F0E7A4A2
:10077300C5F02BFBE43AFA1908E7C5F0C6A426F640
:10078300E5F03BFBE43AFA1886F0E7A4F6E5F00857
:1007930026F6E43B08F6E43A08F6D0E0FBD0E0FAAC
:1007A30022E4CFC0E0E4CEC0E0E4CDC0E0E4CCC0BE
:1007B300E075F020E626F608E633F608E633F60899
:1007C300E633F6181818EC33FCED33FDEE33FEEF89
:1007D30033FFC3EC9709ED9709EE9709EF971919C2
:1007E30019400FFFEC97FC09ED97FD09EE97FE19F1
:1007F3001906D5F0BFECF709EDF709EEF709EFF7A6
:10080300191919D0E0FCD0E0FDD0E0FED0E0FF22C2
:100813002521C582C0E0E52234FFC583C0E0E52180
:10082300C3958224F810AF0885832285822180082E
:10083300858322858221D2AFCEF0A3E520F0A37871
:1008430008E608F0A3DEFAEFF0A3E58124FAF8E660
:1008530008F0A3E608F0A3E608F0A30808E608F00A
:10086300A3E608F0A315811581D0E0FED0E0F815CA
:100873008115811581E8C0E0EEC0E022120FACB90A
:1008830000030208D1E4900501781079198002F081
:10089300A3D8FCD9FA78239000867A01BA000280A3
:1008A30007E493A3F608DAF97A107B1D90008778A2
:1008B300E179018015E493A3AD82AE838A828B83B1
:1008C300F0A3AA82AB838D828E83D8E9D9E77582A0
:1008D3000B7583A87405120C5B75828C7583237466
:1008E30000120C5BE9799EC608CAC608CBC608CCC1
:1008F300C6C370207996CACBCC7019798ECBCC70D5
:10090300137986CC700EF9802ACA33CACB33CBCC89
:1009130033CC331930E7F2CCCBCA3350147004EA2A
:1009230030E00DE4CA3ACACB3BCBCC3CCC500209F5
:10093300C3E913C6CC182313C6CB18C6CA18C6F905
:1009430022C0E0C0D0E8C0E0E9C0E0EAC0E0EBC00C
:10095300E0ECC0E0EDC0E0EEC0E0C082C083C0F0D8
:10096300A2AFE433FED2AFC2C0E5D1A2E45003127A
:100973001102752300EEA2E092AFD0F0D083D082B3
:10098300D0E0FED0E0FDD0E0FCD0E0FBD0E0FAD038
:10099300E0F9D0E0F8D0D0D0E03200002275F010BA
:1009A3008E248F258582298583288521828522832C
:1009B300E0CEA3E0CF852982852883EBC9EAC8ED81
:1009C300CBECCAC3E833C8E933C9EA33CAEB33CB48
:1009D300C3EA9EF527EB9FF526B35004AB26AA275F
:1009E300EC33CCED33CDD5F0DAAE24AF2522D08372
:1009F300D082ECC0E0EDC0E0E493A3FCE493A3FD5C
:100A0300ED4C600D120AC9EC24FFFCED34FFFD80B0
:100A1300EFE493A3FCE493A3FDED4C600D120B668E
:100A2300EC24FFFCED34FFFD80EFD0E0FDD0E0FCD3
:100A3300E493A3C0E0E493C0E0228522838521826E
:100A4300E0A3FEE0A3F5207808E0A3F608DFFAE0D0
:100A5300A3FFE0A3C0E0E0A3C0E0E0A3C0E0E0A305
:100A6300C0E0E0A3C0E010AF088582218583228027
:100A730008858221858322D2AFD083D082020C6184
:100A8300D083D082E9C0E0E493A3C386F0C5F09598
:100A9300F0F908E493A386F0C5F095F0700BE493A6
:100AA300A3C3994005E9048002A3E475F002A425D9
:100AB30082F582E5F03583F583D0E0F9E493A3C0B2
:100AC300E0E493C0E022C0E0C3E49396087401938A
:100AD3009618400FE49366700808740193661870C3
:100AE300007019A3A3C3E49396087401939618A303
:100AF300A3400DD0E0D0E0D0E0020A2DA3A3A3A32E
:100B0300A3A3D0E0227404800474028000CCC0E06C
:100B1300EDC0E0E521C39CCCAD2250011D10AF0612
:100B23008C218D2280068C218D22D2AF120BDDD039
:100B3300E0FDD0E0FC2274028000CCC0E0EDC0E018
:100B4300E521C39CCCAD2250011D10AF068C218D35
:100B53002280068C218D22D2AF120BBBD0E0FDD0B8
:100B6300E0FC22C0E0C0F088F0E4936670080874EB
:100B7300019366187000A8F0A3A3700BD0F0D0E027
:100B8300D0E0D0E0020A2DA3A3D0F0D0E022D0839E
:100B9300D082CCC0E0E493A36006120C1D1470FA5B
:100BA300E493A36006120D601470FAD0E0FCE493A2
:100BB300A3C0E0E493C0E022CAC0E0E493A3C582EB
:100BC300CCC582C583CDC583F0A3C582CCC582C500
:100BD30083CDC583DAE5D0E0CA22CAC0E0E0A3C56D
:100BE30082CCC582C583CDC583F0A3C582CCC58223
:100BF300C583CDC583DAE6D0E0CA22C008C3E09638
:100C0300F50808A3E096420808A3E096420808A363
:100C1300E09645087001D3D00822C0E0E493A3D343
:100C23009C5010E493A3C39C400AD0E0D0E0D0E0F2
:100C3300020BAEA3A3A3D0E0227009080808226028
:100C430016181818C6C333C608C633C608C633C633
:100C530008C633C6D5E0EA22C09FF59FE473D09F50
:100C630022D083D082C09FE493C0E0740193C0E09C
:100C7300740293F59F22C0E0C0D0E8C0E0A8A8D2D8
:100C8300AFC2C7752300E8A2E792AFD0E0F8D0D097
:100C9300D0E0322521F58210AF08F521400C152252
:100CA3008008F52140021522D2AF8522832200C09D
:100CB300D0252110AF08F521500C05228008F5211D
:100CC30050020522D2AFD0D0227404800A7403806C
:100CD30006740280027401C0E0F404120C96D0E0A2
:100CE300120F6F22BB0102E722C082C08389828A6E
:100CF30083BB0003E08002E493D083D0822260169A
:100D0300080808C6C313C618C613C618C613C618E0
:100D1300C613C6D5E0EA222521F8E43522F92225B7
:100D230021FAE43522FB222521FCE43522FD22C3EE
:100D3300E0C696F608A3E0C696F608A3E0C696F6C4
:100D430008A3E0C696F622252110AF08F521400C32
:100D530015228008F52140021522D2AF22C0E0E41B
:100D630093A36C7009D0E0D0E0D0E0020BAEA3A354
:100D7300D0E022E066701008A3E066700A08A3E0E2
:100D830066700408A3E06622C3E09608A3E0960811
:100D9300A3E09608A3E096A2D265D03322E766705B
:100DA300100809E766700A0809E76670040809E78E
:100DB3006622C3E096F008A3E096F008A3E096F05D
:100DC30008A3E096F022181818E60846087009E60A
:100DD30026087005E633F4220822191919E7094792
:100DE300097009E727097005E733F4220922C3E4F0
:100DF3009396087401939608740293960874039368
:100E03009622C3E697F60809E697F60809E697F6E9
:100E13000809E697F622E647F60809E647F60809C1
:100E2300E647F60809E647F622700422600D18C665
:100E3300C333C608C633C6D5E0F41822E026F60845
:100E4300A3E036F608A3E036F608A3E036F622E67A
:100E530057F60809E657F60809E657F60809E6576C
:100E6300F622E056F608A3E056F608A3E056F60885
:100E7300A3E056F622E056F008A3E056F008A3E0FC
:100E830056F008A3E056F022E627F60809E637F6FF
:100E93000809E637F60809E637F622E026F008A344
:100EA300E036F008A3E036F008A3E036F02206E6C9
:100EB300700D0806E670080806E670030806E622C9
:100EC300E4C396F608E496F608E496F608E496F684
:100ED30022600D08C6A2E713C618C613C6D5E0F3F1
:100EE30022C6F4C608C6F4C608C6F4C608C6F4C6C5
:100EF30022C3E7960809E7960809E7960809E796E3
:100F030022C3E09608A3E09608A3E09608A3E09620
:100F13002275D00075813F752101752205000208F5
:100F23007FE6084608C3134608336002E633F4221B
:100F3300600C08C6C313C618C613C6D5E0F422E076
:100F4300F608A3E0F608A3E0F608A3E0F622E6F02D
:100F530008A3E6F008A3E6F008A3E6F022E70947B2
:100F630009C3134709336002E733F422CAC0E0E63A
:100F7300F0A308DAFAD0E0FA22E8F0A3E9F0A3EA52
:100F8300F0A3EBF022E0FAA3E0FBA3E0FCA3E0FD77
:100F930022EAF0A3EBF0A3ECF0A3EDF022E0F8A338
:100FA300E0F9A3E0FAA3E0FB22E5C754F84401F516
:100FB300C77901222521F582E43522F58322E7272B
:100FC30019471947194722C2AF75D69F020000225D
:100FD300E62618461846184622120C644BA3041240
:100FE3000C6489A304120C6453A504120C6432A686
:100FF30004120C6410A704120C64668D05120C64B1
:10100300928D05120C64298F05120C64269005122B
:101013000C64BC9005120C6417B705120C641CB762
:1010230005120C644FB705120C644BA305120C6434
:1010330012A405120C6443A505120C648DB30512AA
:101043000C649EB305120C6438B405120C6443B4EB
:1010530005120C645BB405120C64FC7F00120C6473
:10106300D2FF02120C6493B105120C64A3B10512F2
:101073000C64BBB105120C6485B205120C64CEFE80
:1010830002120C6453FF02120C64B9FF02120C64C7
:1010930092B205120C6419B305120C6428B305123D
:1010A3000C6464B305120C647BB305120C6404E096
:1010B30004120C6448E004120C64E6E104120C64AC
:1010C30023E304120C6409E504120C6454E50412CE
:1010D3000C648BE504120C64B6A005120C6402A127
:1010E30005120C6448A305120C64437600120C64C9
:1010F300FC7600120C64487800120C641E7A00120D
:101103000C64717A00120C64B57A00120C64487B8B
:1011130000120C64EC7B00120C64727C00120C64F1
:10112300F17C00120C64BF7D00120C64DE7D0012A2
:101133000C64EB7D00120C6434EB04120C645FEB63
:1011430004120C6470EE04120C644AEF04120C6473
:101153006BEF04120C6487EF04120C64A0EF04120B
:101163000C64F8A905120C642DAA05120C6468AA74
:1011730005120C64DAAA05120C640AAB05120C649E
:1011830037AB05120C6441AB05120C649EAB051220
:101193000C64A1AB05120C64B4AB05120C64C0ABB8
:1011A30005120C64EC9A05120C64409B05120C6446
:1011B300909B05120C64FE9B05120C643F9C051268
:1011C3000C64989C05120C64A79C05120C64CF9CBC
:1011D30005120C64C09D05120C64CD9D05120C64B0
:1011E300DE9D05120C6470FF04120C64C0FF041230
:1011F3000C64EAFF04120C64E4E504120C6445E792
:1012030004120C6453E704120C6466E704120C64C2
:101213007BE704120C6490E704120C64A3E7041246
:101223000C646AE804120C64E0E804120C6462E9DA
:1012330004120C640BEA04120C64E4EA04120C6456
:10124300F4EA04120C6403EB04120C640BB50512EC
:101253000C6430B505120C6459B505120C6481B5E4
:1012630005120C64B3A505120C64DAA505120C640F
:1012730051A605120C64EF9005120C640891051237
:101283000C64269105120C643A9105120C64589172
:1012930005120C64629105120C646C9105120C64C6
:1012A3007F9105120C64709205120C64E192051291
:1012B3000C640C9305120C645A9305120C64A793E7
:1012C30005120C64C29305120C64CC9305120C64D2
:1012D300179405120C64AEB505120C64F9B505122A
:1012E3000C64C4C304120C64F8C304120C641AC45F
:1012F30004120C6433C404120C644DC404120C6451
:10130300B8C404120C64EBC404120C64D0CA0412F3
:101313000C645BCC04120C64DACC04120C6468CE4B
:1013230004120C6483CE04120C64F6CE04120C6413
:10133300C9AB05120C64D9AB05120C6411AC0512D0
:101343000C642AAC05120C649BAC05120C64C0AC93
:1013530005120C64EBAC05120C6441AD05120C6470
:1013630067AD05120C6435FF03120C6479FF031299
:101373000C64E38405120C64EA8405120C649D86F4
:1013830005120C64C18605120C644F8705120C64A8
:101393002E8805120C648D8805120C6422890512AF
:1013A3000C646D8905120C64767E00120C64887ED1
:1013B30000120C649D7F00120C64A07F00120C6469
:1013C3001FAF05120C6455AF05120C646BAF051209
:1013D3000C64ADAF05120C64F3AF05120C6437B0A7
:1013E30005120C6441B005120C6433F703120C644C
:1013F30070F703120C64D5F703120C64F2F70312AF
:101403000C64A9F803120C64B3F803120C6400F91A
:1014130003120C642EF903120C6418FA03120C6401
:1014230035FB03120C6483FB03120C64C8FB031229
:101433000C6433FC03120C64A6FC03120C6401FD60
:1014430003120C643CFD03120C647DFD03120C6457
:101453008FFD03120C64A1FD03120C64C0FD031283
:101463000C64C9FD03120C6480FE03120C64D1FEEC
:1014730003120C640BFF03120C6460B605120C64B8
:1014830094AD05120C64A59705120C64DB97051245
:101493000C642A9905120C64839A05120C6476A2D3
:1014A30003120C64F4A803120C649CAF03120C64C3
:1014B3002EB203120C6491B403120C642FB5031201
:1014C3000C6407B703120C6440B903120C646DBCBF
:1014D30003120C647BBC03120C6445BD03120C6441
:1014E300E6BD03120C644DC303120C64F7C303126D
:1014F3000C646AB405120C6482B405120C648CB4D7
:1015030005120C64E0B405120C64008005120C642F
:10151300128005120C64008105120C6431810512DE
:101523000C647E8105120C64DE8105120C644A8210
:1015330005120C64678405120C64D68405120C64CE
:101543005BB005120C64DFB005120C6435B10512F3
:101553000C6474B105120C6405B605120C640087A3
:1015630001120C640C8701120C64B18701120C6424
:101573002D8801120C64368901120C64C989011289
:101583000C64678A01120C64A98A01120C64A88C8A
:1015930001120C64888F01120C648F9401120C6485
:1015A300CF9901120C648EA401120C6490A5011250
:1015B3000C6428A601120C64D9A601120C6452A76C
:1015C30001120C6409A901120C64FCA901120C6438
:1015D30069AC01120C64F1AC01120C6458B0011235
:1015E3000C64AAB301120C647FB401120C6490B9A9
:1015F30001120C6421BA01120C645CBA01120C646E
:1016030046BD01120C642DC401120C6450C70112B3
:101613000C642CDA04120C64DDDB04120C6424DD8C
:1016230004120C64F5DD04120C6411DF04120C6463
:1016330029DF04120C645CDF04120C64E7FF02125E
:101643000C64BCF004120C6463F104120C6484F1A6
:1016530004120C647EF204120C6432F404120C645F
:1016630071DE03120C64E6DE03120C646DDF0312F9
:101673000C64BCE103120C64F4E203120C64DBE4BB
:1016830003120C642AE503120C6487E503120C644D
:1016930000E603120C6436EA03120C643AEB0312FD
:1016A3000C649AEC03120C648AED03120C6416EEBC
:1016B30003120C644FEE03120C646DEF03120C64FF
:1016C30010F003120C6498F003120C6444F3031239
:1016D3000C646BF403120C64BBF403120C64CFF5BB
:1016E30003120C64F7F503120C64FAF503120C648D
:1016F30008F603120C642CF603120C649CF6031216
:101703000C64D5F603120C6401F703120C6414F78E
:1017130003120C6490FF01120C64F97F00120C6435
:10172300008004120C64238004120C648781041269
:101733000C64D08104120C647B8204120C64E48276
:1017430004120C64E78204120C64798304120C649F
:10175300028404120C64B38404120C64B68404126D
:101763000C64548504120C64D18A04120C64918CA9
:1017730004120C64C68C04120C64819004120C6471
:10178300AF9104120C64C69204120C649293041277
:101793000C64B29404120C64799604120C64E6C4CB
:1017A30003120C64F0C503120C649DC603120C648F
:1017B300A7C703120C6480C803120C6436C9031252
:1017C3000C6404CA03120C6415CC03120C6416CE09
:1017D30003120C6408CF03120C64E2D103120C64ED
:1017E3003ED303120C6441D403120C6420D60312BB
:1017F3000C642ED903120C644FDB03120C64E8DB78
:1018030003120C640CDD03120C64B0E202120C64CC
:1018130015E302120C6476E302120C6449E502122A
:101823000C64EDE502120C6416E602120C640FEA76
:1018330002120C6426EA02120C6429EB02120C64F5
:10184300E6EC02120C64F1ED02120C64A6EE021235
:101853000C6426EF02120C64D7EF02120C64C3F17E
:1018630002120C64A5F202120C640CF402120C6452
:101873001DF602120C64A6F802120C6486FA021218
:101883000C6449FB02120C64C1FB02120C64D8FB0A
:1018930002120C64D9FC02120C64BCFD02120C642B
:1018A3002BFE02120C64C18905120C64B88B05125D
:1018B3000C64778C05120C64DB8C05120C645A944F
:1018C30005120C64B09405120C64F99405120C64AF
:1018D300219505120C64479505120C64CA980412ED
:1018E3000C64279605120C643C9605120C645F97F2
:1018F30005120C64689705120C64C4A204120C64EC
:101903007A9705120C64849705120C6412F604127C
:101913000C6435FB04120C643AFB04120C6480A8BB
:1019230005120C64CD7F00120C64B8B605120C646A
:10193300C8B605120C643CFB04120C64F7BC02121B
:101943000C642ABD02120C6496BD02120C6451A1F0
:1019530004120C64CEBE02120C6413BF02120C6498
:1019630035BF02120C644EBF02120C6474BF021224
:101973000C6496BF02120C64D4BF02120C6418C02C
:1019830002120C643AC002120C649CC002120C6472
:1019930063C102120C641AC202120C648CC20212DA
:1019A3000C6457C302120C64AAC302120C6410C461
:1019B30002120C644AC402120C649CC402120C642A
:1019C3000AC502120C6475C502120C6478C50212B2
:1019D3000C64F9C502120C6490C602120C6410C7A1
:1019E30002120C642FC702120C6493C802120C6417
:1019F300A0C802120C64ACC902120C64B9C9021269
:101A03000C64C2C902120C649ACB02120C64B4CCEB
:101A130002120C642DCD02120C649FCD02120C64D1
:101A2300C1CD02120C6455CE02120C6429D00212ED
:101A33000C6400D402120C6414D402120C6424D477
:101A430002120C642ED402120C6437D402120C64FA
:101A530040D402120C644AD402120C6477D40212EA
:101A63000C64A0D402120C64ABD402120C64CFD465
:101A730002120C64F3D402120C645DD502120C64DE
:101A8300A3D502120C64C0D502120C643DD6021217
:101A93000C6474D602120C64B3D602120C6400D721
:101AA30002120C6486D702120C6454D902120C641D
:101AB300D7D902120C64BBDA02120C6422DD0212C3
:101AC3000C647BDD02120C64C5DD02120C6420DFA2
:101AD30002120C6455DF02120C64A7DF02120C64BD
:101AE3005CE002120C640BE102120C6448E1021286
:101AF3000C64DDE102120C6449E202120C648629D3
:101B030000120C64B82900120C64E62900120C645C
:101B1300BC2B00120C649C2C00120C64F42C0012DD
:101B23000C642F2E00120C647B2E00120C64A43163
:101B330000120C64973400120C64E73500120C6435
:101B43007D3600120C64893600120C64BB36001219
:101B53000C643E3800120C64EF3900120C64833AB3
:101B630000120C64C63A00120C64443B00120C646D
:101B7300613B00120C64913B00120C64C63B0012E3
:101B83000C64963C00120C643F3D00120C64C53F8C
:101B930000120C64E54000120C64D04100120C6486
:101BA300524200120C64864600120C64C3460012B3
:101BB3000C641B4700120C644E4700120C64B847B8
:101BC30000120C64EE4700120C64794800120C6496
:101BD300D14800120C64A84900120C64614A001237
:101BE3000C64FC4A00120C64044E00120C64204F77
:101BF30000120C64C35200120C64B75300120C643D
:101C0300BA5300120C64E95300120C64EF5500122E
:101C13000C64C85600120C640B5700120C64615814
:101C230000120C64A05800120C64295900120C64B1
:101C33005D5900120C64225A00120C643A5C0012C3
:101C43000C64AB5C00120C64EB5C00120C64795DF9
:101C530000120C649B5E00120C645D5F00120C6446
:101C6300646100120C647C6100120C6490610012C8
:101C73000C64C86100120C64F66100120C64756395
:101C830000120C649A6400120C64F76400120C6472
:101C9300A96500120C64D06500120C6497660012EB
:101CA3000C642F6700120C64556900120C648A6976
:101CB30000120C64ED6900120C641C6B00120C64BE
:101CC300C46B00120C64F56B00120C640D6C0012F3
:101CD3000C649C6C00120C64506F00120C6428712D
:101CE30000120C64447100120C64607100120C64E5
:101CF3002E7200120C64217600120C640080021212
:101D03000C64328002120C64218402120C646D8410
:101D130002120C64B38402120C64558502120C6423
:101D2300B18502120C64F68502120C643D8702121F
:101D33000C64518802120C64408C02120C64C48C33
:101D430002120C64D18D02120C642D8E02120C64EB
:101D53001D9002120C64929002120C649C90021269
:101D63000C64A99002120C64D49002120C64BB910F
:101D730002120C64659202120C64E39202120C6468
:101D8300039302120C642C9302120C644E930212FE
:101D93000C64AE9502120C64749602120C64B9962C
:101DA30002120C64369702120C64E79702120C6459
:101DB300199802120C645F9802120C649B98021229
:101DC3000C64EB9802120C643F9902120C6495990F
:101DD30002120C64E19902120C644E9A02120C6412
:101DE300C99A02120C64949C02120C64949D021210
:101DF3000C64B99E02120C64F8A102120C640BA5C8
:101E030002120C64C8A502120C640CA602120C6424
:101E1300BCA702120C64D0A702120C64DAA7021248
:101E23000C64E4A702120C64F0A702120C640CA861
:101E330002120C64B7A802120C64F6A802120C6416
:101E430000A902120C640AA902120C647AA90212F4
:101E53000C64C5A902120C64DAAA02120C6436AB34
:101E630002120C64B7AB02120C6476AC02120C645F
:101E73007FAD02120C64B3AE02120C64A1AF021266
:101E83000C64B9AF02120C6414B002120C6432B0C9
:101E930002120C647AB002120C64A1B002120C6438
:101EA3003CB102120C6402B202120C6494B202122C
:101EB3000C640EB302120C6428B402120C64D5B481
:101EC30002120C64FDB502120C644DB602120C64CE
:101ED300B1B602120C6413B702120C6441B70212BA
:101EE3000C6465B702120C649AB702120C64CBB788
:101EF30002120C64FEB702120C641EB802120C64C8
:101F030086B802120C647AB902120C64D5B90212B3
:101F13000C64FEB902120C6486BA02120C6409BB8B
:101F230002120C6434BB02120C6419BC02120C645E
:101F330017CF04120C644FCF04120C6470CF041239
:101F43000C64B2CF04120C6414D004120C641ED0BF
:101F530004120C642ED004120C6469D004120C64B5
:101F630049D404120C6436D604120C641CD804122F
:101F73000C64B3D804120C6455D904120C64C9D38D
:101F830001120C6447D401120C64A3D401120C6433
:101F9300EED401120C6409D501120C6434D501127C
:101FA3000C6451D501120C645DD501120C64F4D696
:101FB30001120C640DD701120C6492D701120C6448
:101FC300A5D701120C64C4D701120C6468D801129E
:101FD3000C64E9D901120C649CDB01120C6432DC41
:101FE30001120C6435DC01120C64A5DC01120C64D3
:101FF300C3DC01120C645ADD01120C64A2DD011270
:102003000C64A5DD01120C646BDE01120C64D8DED6
:1020130001120C64FEDE01120C6489DF01120C64F0
:10202300A7DF01120C64EDDF01120C64A1E00112C1
:102033000C64EBE001120C641AE101120C6477E109
:1020430001120C64ACE101120C64D8E101120C64BE
:10205300E6E101120C6433E201120C64A3E2011203
:102063000C64ECE201120C6438E301120C6464E3C7
:1020730001120C646FE301120C648DE301120C6412
:1020830078E401120C6482E401120C64BDE40112D1
:102093000C64CDE401120C64D6E401120C642AE54D
:1020A30001120C643EE501120C646DE601120C642E
:1020B30084E601120C6499E601120C6427E701120D
:1020C3000C646CE701120C64F8E701120C6403E87A
:1020D30001120C6445E901120C6460E901120C64FD
:1020E300ACE901120C641BEA01120C6454EA0112FC
:1020F3000C646EEA01120C64B0EA01120C6480ED08
:1021030001120C642DEE01120C649AEE01120C64A0
:10211300DAF001120C64F2F001120C64F5F0011212
:102123000C6401F101120C6415F101120C641DF130
:1021330001120C6450F101120C6452F201120C648E
:10214300D9F201120C6449F301120C64CBF30112AE
:102153000C648CF401120C64ABF401120C644CF5A6
:1021630001120C64A9F501120C64ACF501120C64A4
:10217300D9F501120C64EEF501120C6462F601123A
:102183000C64B1F701120C64B7F801120C6442F944
:1021930001120C645DFA01120C6425FB01120C643C
:1021A30056FB01120C6479FB01120C6482FB0112D1
:1021B3000C64B1FB01120C6441FC01120C64F7FCCA
:1021C30001120C646CFD01120C6413FE01120C6409
:1021D30088FE01120C64BFFE01120C64FDFE0112A5
:1021E3000C6433FF01120C6476A204120C6487980A
:1021F30004120C640B9804120C64189F05120C64EF
:10220300119E05120C64E0B604120C64ACB4041203
:102213000C64E2B304120C6435B304120C642BB3E4
:1022230004120C6417B304120C64719705120C6446
:10223300E3A104120C64D5B104120C6464B004125B
:102243000C6429A104120C64D5A004120C64F2AC32
:1022530004120C64AEA804120C64F8A704120C64F4
:1022630060A203120C6456A203120C64649E031250
:102273000C64429D03120C64F89C03120C64159BBE
:1022830003120C64709503120C649B9103120C648B
:102293001D9103120C64529003120C64DC8F031221
:1022A3000C640C8F03120C646E8E03120C64C28CCC
:1022B30003120C64EC8B03120C6443A004120C6431
:1022C300B79F04120C642F9F04120C64CC9D04125C
:1022D3000C64D89C04120C64469C04120C64FB9B93
:1022E30004120C64428B03120C643D8B03120C64C6
:1022F300318B03120C64B38503120C64E39B041249
:102303000C64818503120C64138503120C646484CA
:1023130003120C64AC8303120C6431BE02120C640E
:10232300628303120C64169904120C64578303121C
:102333000C64138103120C646F8003120C642980F4
:1023430003120C64008003120C6484C304120C6433
:1023530057C304120C64C9C204120C648FC2041262
:102363000C64FFBE04120C6457BC04120C643CB929
:1023730004120C6417B704120C648EB804120C64B4
:102383000FB804120C645F950500000080FBE47332
:102393008F000100AD1D87000100AB1D3500040057
:1023A300741D25000200781D260002007A1D2700F7
:1023B30002007C1D28000100861D29000100871DE5
:1023C30084000400001B860001001E1D2A0001007A
:1023D300881D2B000100891D2C0001008D1D2D007F
:1023E30008000C1B2E0001008E1D2F0001008F1D05
:1023F30030000100901D31000100911D32000100E9
:10240300141B33000100151B34000100921D36001C
:102413000100161B38000100931D390001008C1DBB
:1024230083000200A91D63000100221B6400010058
:102433008A1D650001008B1D6D000100231B7100C7
:102443000800041B66000100A81D43000100991D3C
:10245300440002009A1D450001009C1D4600020035
:102463009D1D470008001A1B480001009F1D4B00DB
:102473000100A01D04000100AC1DA1000100B01D5E
:1024830037000100AF1D88000100AE1D3C000100B4
:10249300171B3D000100941D49000200A11D6700A8
:1024A3000100241B4D000200A31D4E000100A51DC9
:1024B3004F000200A61D3E000100981D51000100BF
:1024C300181B52000100961D53000100971D540074
:1024D3000100191B00000000000000013636010155
:1024E30000010201000103010001040106060502C7
:1024F3000000070100340801000F090401010D0168
:1025030000FF0E08000017020000190100FF1A0166
:1025130000011B0100FE1C0100081D0200001F0139
:10252300000120010001210200002301000F240209
:1025330000002601000127010008280200FF2A01EC
:1025430000072B0102402C0100002D0100012E0188
:1025530000012F0100FF30010B1D310800003A017B
:1025630000083B01000F3C0100013D0100FF3E0458
:10257300000042040000460400004A0400004E0428
:10258300000052040000560400005A040000010336
:102593007103010301030103010301032203020386
:1025A30001031003000300030003000300030003FF
:1025B3000003420300032403060300030003040390
:1025C3001203250323032503230304030403000346
:1025D3000003000344030003000323030003650314
:1025E30021003503810300030503000300030003F7
:1025F300000325032303000000002001FB860000E5
:1026030001002001FC86000002002001FE8600007C
:1026130003002001FF86000004004201C58600007C
:10262300050042015886000006004201E0850000D3
:1026330007003001FA86000000404201E0850000F7
:10264300FDFF2101F886010020002005261D010061
:1026530021002005271D14000E00422378190302D0
:1026630071023001600211027002010202020202D1
:102673008002100261023A00410063027302720297
:102683006202430200021302380000020002040245
:1026930012020002000200020002040204023700D8
:1026A30037003C02440200023900000200026502C6
:1026B3000002350281020002050282028302000247
:1026C3000101710101010101110101013101010147
:1026D30001018001100161013B00140063017301DA
:1026E3007201620143010001130106013D0135003E
:1026F30004011201000100010001000104010401B1
:10270300330133013C014401320136000001000171
:10271300650100013500810100010501820183018A
:1027230000010300710030016000110070003102EC
:1027330020035004800010006100000014006300B7
:1027430073007200620043000000130006000000E3
:10275300000004001200000000000000000004005C
:102763000400370037003C02440000000000000072
:102773000000650000003500810000000500000036
:102783008300000036000100060000000F00000077
:102793000000000000000000000003FFFF00000431
:1027A30003FFFF0000FFFF0FF4010005C404032033
:1027B300000100000B000000000000000003010FF7
:1027C3000000000000000000000000000000000006
:1027D30000000000000000000000000000000000F6
:1027E3000000D015FA15D6157015DC150016DC158A
:1027F3000C16E2157015DC150016E81570150000AF
:102803000000EE1570150000000000000000F41534
:102813007015000000000000000000000000000030
:1028230000000000000000000000000000000000A5
:102833000000000000000000000000000000000095
:10284300C2170100C2170200441702803E1703009B
:102853004A17040050170480561705005C1706003A
:1028630062173100741733007A1734008017FFFFA3
:102873000000030003000400080010001F003E00D6
:102883007B00F600EC01D703AF075D0FB91E713D66
:10289300000007ECFDFDFDECDCDCCCBCACAC9C9C8F
:1028A3008C7C7C6C6C5C5C5C4C4C3C3C2C2C1C1C15
:1028B30003EAF5E5D5D5C5B5A59595858575756502
:1028C3006555554545353525251515050A741D02EC
:1028D3003E1D054A1D07441D0C261D0D321DFF001C
:1028E3000000160F00000B150B020002220F33002D
:1028F300000E0F5A6967426565416C6C69616E63CE
:10290300653039D0D1D2D3D4D5D6D7D8D9DADBDC18
:10291300DDDEDF303016181920231A1C1E300003A9
:102923004D4C4651181A25050200011916181616A2
:1029330018230300303017181921301B1D1F3000D6
:102943003C40423A3F3F392F47300C0E020B040BF9
:102953000A0708000F020402010101010902E8034A
:10296300000000BE040A01000E000300E803FF0498
:10297300090D031004030A0C041E0828020C0508A1
:10298300151E04C082C0831221F4901B4D7416F0EF
:10299300A3741BF0901B4F741CF0A3741BF0901BCB
:1029A300517422F0A3741BF0901B537428F0A3748A
:1029B3001BF00256C174F7120813901B41E4F0E9AF
:1029C300901B40F07C1A7D1B7A427B1B12155290A0
:1029D3001D9FE0901B4AF0901B4B7404F0A3741BE3
:1029E30002394E74F0120813EAFEEBFF54807003B1
:1029F300022B57901B401239E37003022B50EA2439
:102A03001B12524E707CEA241F12524E6413700242
:102A1300A3E0706E8A828B83122BA5901B5B1247F7
:102A2300E0750A00750B00800D1238241268C0127D
:102A33001498AA0EAB0FEA4B60488A828B83E06539
:102A43000C7004A3E0650D702C8A828B83A3A3A36F
:102A5300A3E0F50EA3E0F50FE50A450B8A828B830D
:102A6300A3A3A3A360C3123B26850A82850B83A37A
:102A7300A3A3A380B78A0A8B0B8A828B831247DCBA
:102A830080B4E508242A12524EFCE5082402F8E437
:102A93003509F9E8FAE9FB901B5B122C8CA3A3E040
:102AA3006402703C8A828B831247E0800B888289A0
:102AB30083A3A3A3A3123B26E849601F88828983CB
:102AC300E06A7003A3E06B70E488828983A3A3E0C8
:102AD3006C70DA901DA512557E806BECF9121B52B7
:102AE300850882850983E06401704FE50824181284
:102AF3002B8E120CD8125E68120B08E508241212F2
:102B03002B8E120CD8E5081239D7120CD4E5082401
:102B13000B125E6C120B0CE5082417123974E508CE
:102B23002402FCE43509FDE5082419FAE43509FB20
:102B330012236E740A120CB1800CE064027007AAAF
:102B430008AB09121C30AA08AB0912140EEEFAEFF7
:102B53006480802DEA5402600C901DBC7401F0EA7D
:102B63006402FA8023EA5408601A121B4CEA4B7081
:102B73000B901B5D125D437A08122B9BEE6408FADF
:102B8300EFFB80047A007B000264F2F582E43509EE
:102B9300F583E0F50A780A22FB901B40E0F9121551
:102BA3002222A3A3E0F50CA3E0F50D227B00901BEA
:102BB30040E0F912151674042274F41208138A08FB
:102BC3008B098A828B83A3A3A31245D812397F383A
:102BD300F583E02409FA12648A7003022C7F8A8247
:102BE3008B83740212464D850882850983122C8CCF
:102BF300E8F0A3E91261048A828B83A3A3A3A3A3AE
:102C0300A3A3A3F0E5082403F8E43509122C8112E9
:102C1300397F3AF583E08E828B83A3A3A3A3F0EEDF
:102C23002409FAE43FFB8E828F83A3A3125830F565
:102C3300838882E0A2E58E828F83A3A3A3A3A350FC
:102C43000474018001E4F0E5082403F5828983120A
:102C530047E0EA124D613BF583126451120CD01226
:102C6300397E3B1259228E828F83A3A312760012E0
:102C73000CB1EEFAEFFB901B401264D78016F98873
:102C830082F583E0FAA3E0CA2212497DA3A322744A
:102C930002120CB17F04020A3D74F21208138A086F
:102CA3008B09ECFAEDFB740E120FB7E0FC1222D283
:102CB3008A0C8B0DAE0CAF0DEA4F6030AC08AD093A
:102CC3001222DEE96026AC08AD09EEFAEFFB122210
:102CD300D8E970148E828F83123B13FAEFFB122212
:102CE300FCAA08AB091222BA7900800279B402481F
:102CF300CC74F012081374F6120D4AEAFEEBFF8C43
:102D0300088D09750FB3852182852283E4F0750E42
:102D1300008002050E902985E493F8E50EC39840E0
:102D230003022E1BAA0E7B001221E88A0A8B0BEAF0
:102D33004B60E08A828B83A3A3122E2228F0F8C370
:102D4300EE98EF940050CC7C157D007900AA08AB77
:102D5300091213F6850A82850B83A3A3A3A3126822
:102D6300FDE0F8EEC3982925E0F8E433F9E50A28F5
:102D7300F582E50B39F583A3A3A3A3A3A312398992
:102D8300A31253A58A0C8B0DAC0CAD0DAA08AB098D
:102D9300121552850A82850B83A3E06401700A121F
:102DA3005E68740112399B80447401120D2A850AEE
:102DB30082850B831247DE122248E9603D740912B3
:102DC3000FB7E0C0E0125E68D0E0F07409120FB7ED
:102DD300E0640370137401120D2AE508240BFAE46E
:102DE3003509FB12155280127401120FB7123B26DC
:102DF300E50812538B35091268BE850A82850B8359
:102E0300125E7412399BA3A3E0C0E0E508241412F8
:102E13005E6CD0E0F0750F00A90F740A0264EFA393
:102E2300A3A3E0F8852182852283E02274F71208A8
:102E330013E9FE8A828B83A3A3A3A3A3A3E054086D
:102E430060338A828B83A3A3A3A3A3A3E05402606A
:102E5300218A828B83A3A3A3A3A3A3A3A3A3E06435
:102E630006600F74E96E600A74CD6E600574F06ECF
:102E73007003121B340241CB74F012081374EF1267
:102E83000D4A740F120FB7125C277408120FB7E9BB
:102E9300F0ECFEEDFF7405120FB7123F931241B72A
:102EA300A3E0F91222C67406120FB7125C27740648
:102EB300120FB7124DF270030231361239C3E0FA22
:102EC3007406120FB7E0F9121A74123196F8A3E0E0
:102ED300F9E8497003023136EE2403F50AE43FF5BD
:102EE3000BEE2406F508E43FF5097C00850882F51E
:102EF300831247E0850A82850B83E0F91222C074AE
:102F030003120FB7125C27850A82850B83E0C0E0AA
:102F130085218285228312318FD0E0124F07F985F4
:102F2300218285228312382B124A59122E25FAA3A5
:102F3300E0CA2407F582E43AF583E8F0A3E4125CDF
:102F4300322406F582E438F583E41268CA1245CCCC
:102F5300120CD0EE12397F3F1259227403120FB7AD
:102F63001245D824091275FA120CB17429120FB73D
:102F73001268F7122C86124F1A3A1268BE742B127B
:102F83000FB7E0C0E0852182852283124DB9D0E0DE
:102F9300F07402120FB7E4F07425120FB778081219
:102FA3000F4202308D7403120FB71258EA8882F56C
:102FB3008312317EA3A3A31253B0FB122242850EC8
:102FC30082850F83A3EAF0A3EBF07403120FB71209
:102FD300318FA312317E1255BFA2E6500F850E82A8
:102FE300850F83A3A3A3A3A3E0D2E1F07405120F7B
:102FF300B7E0706B850E82850F83A3123B26901B6F
:103003009BE0687003A3E0697055850E82850F838A
:10301300A3A3A312395E750C00780C120CD87808A0
:10302300120CCC7429120FB7E0F50C780C120CD8E3
:103033007427120FB7120B0C901BA8120B0C7900FC
:103043007419120FB71247B0121C78740A120CB11C
:10305300850E82850F83A3A3A3A3A3E04405F07485
:1030630002120FB7E004FC8E828F831247DA8E823E
:103073008F83A3A3A3E0F91222C07403120FB71224
:103083005C277402120FB7E004F07403120FB71237
:103093004DF260677402120FB7E0FA7406120FB7AD
:1030A300123B26C3EA98E49950517402120FB712E7
:1030B3003468852182852283E028F8A3E039F9E882
:1030C300240FF50EE439F50F850E82F583E4F074D1
:1030D30003120FB712318964016003022FA874052C
:1030E300120FB774011264DDF07403120FB7125696
:1030F300B112348BE8F0A3E9022FCC85218285221B
:10310300831247E0121A7A852182852283120B0CDF
:103113007426120FB7E0FD7425120FB7E0FC740A92
:10312300120FB7E0F9EEFAEFFB121B2E7402120C2A
:10313300B180438E828F83A3A3A3E0C0E0740C12FB
:103143000FB7D0E0F0126346E0C0E0740D120FB782
:10315300D0E0F07406120FB7124DF27009740E121C
:103163000FB774B98007740E120FB77410F0740997
:10317300120D22121C7274110264EFE0850E828517
:103183000F83A3A3A322E0124EDFE022E0124EDF5F
:10319300A3A322852182852283EAF0A3EB124DFBB0
:1031A3002274F012081374E1120D4A7404120FB75B
:1031B300E9F07403120FB7ECF07402120FB7EDF0DD
:1031C3008A0E8B0F742F120FB7122BA7AA0CFB12A8
:1031D3001A687401120FB7E9F0AA0CAB0D121A6E3C
:1031E3007401120FB7E070030234638521828522D4
:1031F30083E480158E828F83A3A3A3A3A3E0D2E3EA
:10320300F0852182852283E004126435F8852182CA
:10321300852283E0C398400302345A7401120FB726
:10322300E0700302345A852182852283123468E5D3
:103233000C28F8E50D39F9E8240FFEE439FF8E82F6
:10324300F583A3A3A3A3A3E0A2E040B5750800758B
:103253000A08750B007402120FB7E06003750820AB
:103263007C087D0079007405120D221213F68E82FC
:103273008F83E0603E901BEBE06401701AE508D297
:10328300E3F508750B10123478120FB7E8F0A3E9D1
:103293001252A374FF807643080C750A0C8E828F3A
:1032A30083A31234831268C07405120FB774FFF03E
:1032B300A3805A7404120FB7E06009E508D2E6F55B
:1032C30008750A0A8E828F83A3E064FE7003A3E06D
:1032D300F470307412120FB77404125E92F8741DF6
:1032E300120FB7E812464D7412120D221219967D71
:1032F300007C0079007415120FB7AA82AB831217F2
:10330300AA800B123478120FB7E8F0A3E9F0740720
:10331300120FB7E508F01239BAC0E07409120FB7FB
:10332300D0E0F0740A120FB77401F07405120D2285
:10333300121C367411120FB7E06003023438740D97
:10334300120FB7124F028E828F83A3A3A3A3F0742D
:103353000D120FB712461BE50AF0A3E50BF0740339
:10336300120FB7E0C0E01245ACD0E01255BF6011B8
:10337300901BEBE0C0E0740D120FB71245F6D0E0DE
:10338300F0740D120FB7123B26850C82850D83A3B3
:10339300A3A3A3A3123471241C125C211268DA12B2
:1033A300347312557139126365C0E0124593D0E04E
:1033B30012642AC0E0740D120FB71240D9D0E01284
:1033C300612BC0E0740D120FB71240CFD0E0F07440
:1033D3000D120FB7123483123471242A125C218523
:1033E3000E82850F83A3A3A3A3A3A3A3A3E0125CCD
:1033F3001A1239A9C0E01240BBD0E0F0740D120FCD
:10340300B71247E0850E82850F831264402428F5A6
:1034130082E43B1268BE1239B2126451120CD0120C
:10342300591BEA125BB33B1275FE120CB174051201
:103433000D22121C3C8E828F83A3A3A3A3A3E0D2ED
:10344300E0F07411120FB7E060030231F774011258
:103453000FB7E0140232037900AA0CAB0D121B3A2A
:10346300741F0264EFE075F007A4F8A9F022A3A388
:103473001247E4E8228E828F83A3123B2A7405222B
:10348300E012348BA3A3A322F8A3E0F9850E82856F
:103493000F83A32274F012081374E8120D4AE9850E
:1034A3002182852283F08A0E8B0F8A828B83A3A3CA
:1034B300A3A3A3A3A3A3E0F9121A928A088B09EA90
:1034C3004B7003023574E50E124D751239D2123961
:1034D30069852182852283E060030235777C048538
:1034E3000E82850F83A3A3A3A3A3A3A3A3E0F9122F
:1034F3001A98EE4F607B8E828F83A3A3A3A3123B04
:10350300267407120FB7125D58123B267409120F67
:10351300B712467DC0E07411120FB7D0E0126109F3
:10352300A3A3A3A3A3A3A3123B26740F120FB71243
:1035330068C07412120FB7E41264E5C8241FF58241
:10354300E438F5831258E6C413135403FC70027C69
:10355300048E828F83E0F97808120CD4742059FD0D
:10356300744059F97403120D22121B2E7402120CAB
:10357300B10264ED7C08850E82850F83A3A3A3A308
:10358300A3A3A3A3E0F9121A988B0BEA4B700302CF
:1035930034F5EE4F60DB852182852283E0F50C78DC
:1035A3000C120CD8850882850983A3A3A3A3A3A324
:1035B300A3E0F50C780C120CD88A828B83A3A3A307
:1035C300E0FB8A82850B8312711D8A82850B83E05F
:1035D300FA8E828F83A3A3E0F912237A7402120C6A
:1035E300B10234F974F712081374FA120D4AE9FEA2
:1035F300780179017F00800379000F12495CE0FCB8
:10360300EFC39C5026EF75F007A4FC85F008AD08C6
:10361300EA2CFCEB3DFD123F4BE0A2E050DA540CE8
:1036230060D6E0A2E250D3780080CF8A828B83A356
:10363300A3A3A3A3A3E0703DE9A2E0400574016E38
:1036430070338A828B83A3A3A3A3A3A37401123928
:103653003BE0C0E07403120FB7D0E0123FAAE0C012
:10366300E07404120FB7D0E0F07405120FB7E8123C
:103673005885121C7274060241C8C082C083790146
:10368300121B3A0256C174F4120813EA4B901DBC84
:103693006019E4F08A088B09F50AF50B7808120C17
:1036A300CC7A02122BAF120CB1800A7401F07A02A9
:1036B3007B00122B9C022C9774F012081374F312E4
:1036C3000D4A7403120FB7E4F0A3F0901B5B123999
:1036D300697401120FB7E4F0A312465204F0901B71
:1036E30095E0A2E350030237AE12392F7409120F8B
:1036F300B7120F7C7409120FB77808120F42901B90
:103703005D7808120D327405120FB77808120F5145
:103713001238327405120FB77808120F0450077A63
:10372300017B0002381F7405120FB7780C120F4289
:10373300901DA4E0F509780C79081207A4A80CA938
:103743000D901DA5E0C398E4995003E08001E8853E
:103753002182852283F07409120FB77808120F4271
:10376300C008C009C00AC00B7405120FB7780C1249
:103773000F42123832780C79081207A4E4F50AF5DF
:103783000BD00FD00ED00DD00C780C7908120E058B
:10379300901B5D780C120F5180111238241268C0EF
:1037A300EEFAEFFB121498AE08AF09EE4F60658E88
:1037B300828F83122E22C398502DEE2403F8E43F08
:1037C300F9E0FA88828983E0C39AF06023740312D4
:1037D3000FB7123C8C7401120FB7EEF0A3EF125D1A
:1037E30073FEA3E0FF80C48E828F83A3A3A3E4F0C0
:1037F3008E828F831275B77401120FB7124DF28E3A
:10380300828F83A3A3A3A36091125D4C120FB712FF
:10381300382B80897403120FB71247E0740D0264CA
:10382300EF123B2A901B5B22125911A3A3A32290F0
:103833001DA31275BFE4F50AF50B2274F0120813E9
:103843008A088B09890A78007900901B5B12396911
:10385300FBEE4B601E088E828F83A3A3A3A31247A4
:10386300AA601008E87001098E828F83123965EA15
:103873004F70E3901DA61247E0C3E89AE99B40030B
:103883000239227A06123925A80CA90DEA497003D8
:103893000239228A828B83E508F0A3E509123944B1
:1038A300E50AF0901DA512496412393BA3E4F0A385
:1038B300F0901B5B1247AA600D8E828F83A3A3A394
:1038C300A31268C08017901B5B1268C0901B95E021
:1038D300A2E3400912392F901B5D120F7C901B95B8
:1038E300E0A2E3503A7A087B00901B40E0F91215FE
:1038F30028EA4B4C4D7028901DA3E0F508A3E08502
:10390300080CF50DE4F50EF50F780C120CCC7A08C3
:103913007B00901B40E0F912151C7404120CB102D9
:1039230064F27B001214928A0C8B0D2212153AEA70
:10393300F8EBF9ECFAEDFB2212393F22123944A3DA
:1039430022F08A828B83A3A322E508F00241CBF005
:103953008E828F83A3A3A3A3A3A32212525CA3A348
:10396300F022A3A3A3A3E0FEA3E0FF227F05020AA4
:103973003DF582E43509F583E0F922EA1239832221
:103983002410F582E422123991A3A3A3A322123BAC
:103993002E8508828509832212399F22F0850A82A7
:1039A300850B83A3A322E50E24111239CFE022E570
:1039B3000E240E1239CF22E50E24101239CFE02245
:1039C3001239C722EE1239833FF58322F582E4359B
:1039D3000FF58322240FF50AE43509F50B780A2243
:1039E300E0F912141A8A088B09EA4B2274F21208BE
:1039F30013890B8A088B098A828B831247E0121B77
:103A03005EEA4B600479B8806A121B6AE9F8902970
:103A130076E493F9E8C399400479B280567A151293
:103A23003925AE0CAF0DEA4F7004791080458A82B8
:103A33008B83E4F0A3123944E50BF0750A00780890
:103A4300120CD07C127D00EA24031263FC120CB129
:103A5300901B61124DF27008901B61800C123B2683
:103A630088828983123A7970F4EEF0A3EFF0121B87
:103A73007C79000248CC1247E4EA4B88828983228E
:103A8300C082C083901B6180048C828D8312711E5F
:103A9300EC4D60288C828D83A3A3E069600574FFDD
:103AA3006970E68C828D83A3A3A3E06A7003A3E00D
:103AB3006B70D6EC2403FAE43DFB80047A007B00B0
:103AC3000256C174F7120813E9FD74FE6D70047C8D
:103AD3000180027C00901B6180096D70027C01886B
:103AE300828983124DF2601F88828983A3A3A3E096
:103AF3006A7003A3E06B70E7ECA2E088828983A37A
:103B0300A3E050D6F9800279FE0241CBEEF9800C96
:103B1300A3A31275BFEE227402120CB17F02020A34
:103B23003DF583123B2A22123B2E22E0F8A3E0F953
:103B330022123B2E8E828F8322120CB17F03020A44
:103B43003DC082C0837900901B61800109E0FAA324
:103B5300E08A82F583E582458370F10256C174F6EB
:103B6300120813E4F508F5097808120CD4902976A5
:103B7300E49375F013A4A9F0123C8112691E120C90
:103B8300B1E9FE74096E7003121B76023B0F74F6E3
:103B930012081374FE120D4A852182852283E4F0F4
:103BA300A3F0A821A922880889097808120CD475E2
:103BB30008027509007808120CD412658F120CB133
:103BC300023B1A74F512081374EB120D4A85218215
:103BD300852283E4F0A3F0901B6180748E828F832F
:103BE300A3A3E0C0E07402120FB7D0E01252A3A95E
:103BF30082AA8389088A09750A007808120CD07C86
:103C0300127D007406120FB71268E3120CB174022E
:103C1300120D1A880889097808120CD475081375CF
:103C230009007808120CD47404120FB7124D95755D
:103C3300F013A4F8AAF075F013E9123C7D1265970E
:103C4300120CB1852182852283123C8C8E828F8354
:103C5300123969EE4F7085A821A92288088909784D
:103C630008120CD47508027509007808120CD412D6
:103C7300658F120CB17415023B3CA42AF9E82402A7
:103C8300FCE439FD7A427B0022E02401F0A3E03416
:103C930000F02274F412081374EB120D4A7E007FB5
:103CA30000A821A922880889097808120CD475086C
:103CB300028E097808120CD47C007D007A421269C6
:103CC3002A120CB1E9706C8E0880567402120D1A18
:103CD300880A890B780A120CD4750A13750B0078BD
:103CE3000A120CD4E50875F013A4F8AAF075F013C2
:103CF300E509123C7D12692C120CB1E9701B7403A7
:103D0300120FB7AA82AB837402120FB7E0F9121B2A
:103D130058E970050EEE70010F0508E508700205FD
:103D230009852182852283123B26C3E50898E5098C
:103D3300994098EEFAEFFB7415022C9474F612086E
:103D4300138C828D83A3A3123F98F0EA125BB93BD5
:103D5300F583E0C0E0123F55D0E0F0EA241DF58280
:103D6300E43B123B24123F39123F93F0A3F0EA24C1
:103D73001FF582E43BF583123969EC123F2C3DF5C4
:103D830083EEF0A3EFF0123F323BF583123F63A3C0
:103D9300A3A3A3A3A3EEF0A3EF125814FE8C828D6A
:103DA30083123FA274035EFEC394034003023F1FCA
:103DB300EE600874026E6003023E448C828D83E0E1
:103DC300540CFE740C6E7003023E83E0A2E4400DBB
:103DD30088828983E08C828D83A3123FB874086E36
:103DE3006003023E83123F437401F08A828B83A3F4
:103DF300A3A3A3A312526970148C828D83E0440C95
:103E0300123FAAA3A3123F63EEF0A3EFF08C828DBF
:103E130083E0A2E4402B8882123F71123F86500157
:103E230009F582123F71A3A3A3A3A3A3F0A3EF12E7
:103E33003FB28C828D83A3A3A3F0E82403F850013F
:103E43000988828983E0C0E0EC2411F582E43DF522
:103E530083D0E0123FA28C828D83E0A2E750758865
:103E6300828983E0FE8C828D83123FB874FC5E707E
:103E73000C8C828D83A3E054036403701E023F1FE6
:103E8300123F43E4F0740C6E6003023DEE8882122D
:103E93003F77123F86500109023E108C828D83A327
:103EA300E05403603288828983E0C0E0EC123F5D16
:103EB3003DF583D0E0123FB98C828D83E0540364D7
:103EC30002701488828983E0C0E0123F4BD0E01275
:103ED3003FB98003A3E4F0EC124D613D1268BEECE0
:103EE3002410FEE43DFFEA241DF582E43BF583E064
:103EF300F5088E828F83E0C3982508F508F0EA243D
:103F030017F8E43BF98882F583E0C39508C0E01213
:103F13003F39D0E0125814C39508500A123F39E4D0
:103F2300F0123F55E4F0023B1F2415F582E422EA28
:103F3300240DF582E422EC240DF582E43DF5832281
:103F4300EC124F1A3DF58322EC2414F582E43DF57F
:103F53008322EC1239833DF583222413F582E42274
:103F6300E0FEA3E0FF8C828D83A3A3A3A322123FD1
:103F730077A3A3228983E0F508A3E0FFE5088C82F9
:103F83008D8322A3A3A3A3F0A3EFF0E82402F822D6
:103F9300123F98A322E4F08C828D83A3A3A3221261
:103FA3003FC0A882A9832212393FA3A3A3A322124D
:103FB3003FC0A3E022A3123FC008A9832212581DC9
:103FC300A32274F412081374F3120D4A8A0A8B0B9A
:103FD300ECFEEDFF8C82F583E0540CF508E0A2E7DC
:103FE3005006E508D2E7F508E508D2E1F5081252D4
:103FF300697006E508D2E4F508E0A2E55006E50895
:10400300D2E5F5087C087D007900AA21AB221213C2
:10401300F67402120FB7E5081268C4C0E074031205
:104023000FB7D0E0124652E50AF0A3E50BF0740592
:10403300120FB7126130120FB7E070777408120FC6
:10404300B71245D81258063812614BC0E0740812F3
:104053000FB71240D9D0E012612BC0E07408120FE1
:10406300B71240CFD0E0F07408120FB71240C5E08A
:10407300124600124681125C1AEE2411125235C008
:10408300E01240BBD0E0F0EE2414125235C0E074CD
:1040930008120FB71245D82435F582E438F583D0DA
:1040A300E0124625C0E07408120FB71245DCD0E0D9
:1040B300125E84740D022C94E82432F582E439F5FF
:1040C3008322123B34A3A3A3A3A3A3221245EC127E
:1040D300632A38F583221245EC2426F582E438F569
:1040E300832274F71208137E008A828B83A3A3A30F
:1040F300A3A3A3A3A3A3E0640460030241A7124FF5
:1041030012E060030241A7124D743B124DF070039D
:104113000241A788828983E0540360030241A7E830
:10412300124F1A39F583E0FA8C828D83A3A3E0FB47
:10413300A3E0CB2411F582E43BF583E06A70658844
:10414300828983A3A3A3A3A3A3A3A3A31241ABE045
:104153006A7003A3E06B704C88828983A3A3124126
:10416300B7E0FFA3E0CF24061252356A7003A3E041
:104173006B703188828983A3A3E0F88C828D83A33B
:10418300A3E0F9A3E0F5838982A3A3E06860138C1D
:10419300828D83A3A3A3E0F5838982E0540C640496
:1041A30070027E01EEF980201241AF221247E88CA3
:1041B300828D8322A3A31241AFA3A322740C120FF7
:1041C300B7E0F9740D120CB17F01020A3D74F612C7
:1041D300081374FC120D4AEAFEEBFFECFAEDFB8CBC
:1041E30082F583A3E054036016901B57124DF260CF
:1041F300597900EEFCEFFD125A11122391804B8581
:104203002182852283EEF0A3EFF07402120FB7121E
:104213004647AC21AD227A947B1B121DBC8A088BC6
:1042230009A808A909EA4960218A828B83A3A3A369
:10423300A3A3A3A3A3A37406F07A0088828B83129B
:1042430045D8125BDAE0F9121D1A7404023B1C74A0
:10425300F212081374F3120D4AEAFEEBFF8A82F599
:1042630083A3A3A3A3A3A3A3A3A3A3E0F50A901DDE
:10427300BCE0700579BA02459075080175090075AF
:104283000C00750D007C087D007900AA21AB221279
:1042930013F67405120FB7740112465A54046012D0
:1042A3007402120FB7E0D2E612465A54087003752F
:1042B3000803E05410600674404508F508E054080C
:1042C30060227402120FB7E044C012465A542060B1
:1042D3000A7403120FB7E0D2E080087403120FB719
:1042E300E0D2E1F0EE24151252351245C07003748A
:1042F3000169700674084508F5088E828F83A3A3AD
:10430300A3A3A3A3A3A3E07016121E16852182857F
:104313002283125C277402120FB7E0D2E28030646A
:104323000F70107402120FB712466274044508F539
:1043330008807F8E828F83A3A3A3A3A3A3A3A3E059
:1043430064028E828F83700A1268F7E8F0A3E9F0A3
:104353008060A3A3A3A3A3A3A3A3E06403700DACF2
:1043630021AD22EEFAEFFB121BCA80468E828F83A9
:10437300A3A3A3A3A3A3A3A3E064017035901BEBA2
:10438300E060107402120FB7124662750910750AC5
:10439300FF80187402120FB7E0440C12465274FDEA
:1043A300F0A374FFF074044508F5088E828F83121E
:1043B3002BA7EE2415125235A2E0503F7402120FC0
:1043C300B7E0540C701B8E828F831247E0121840A3
:1043D300E9700579BB0245907402120FB7E0D2E58C
:1043E300F0EE2415125235A2E050107402120FB7EA
:1043F300E0540C64047004E0D2E5F0EE2411125290
:1044030035C0E07404120FB7D0E0126132120FB757
:10441300E060030245897408120FB712461BE508D2
:10442300F0A3E509F01245B6E0C0E01245ACD0E0D8
:10443300F012459DE0C0E07408120FB71245D81280
:104443003F5D38F583D0E012468164017011901B03
:10445300EBE0C0E07408120FB71245F6D0E0F07439
:1044630008120FB71246161245A7FAE8241CF58264
:10447300E439F583EA12464DEE2415FAE43FFB8A4C
:1044830082F58312711EE812557139F5831246477E
:10449300EE241C125235C0E0124593D0E01256B7F9
:1044A3001245C0700374016970137408120FB712B8
:1044B3004F02FAEE241D125235F9121A9E8E828F84
:1044C30083A3A3A3A3A3A3A3A3A3E0C0E07408129D
:1044D3000FB71240D9D0E0F07408120FB71240CFD3
:1044E300E50AF07408120FB7124D952428F582E4FB
:1044F30039F583E50CF0A3E50D12462D12460012A3
:1045030052AE125C1AEE1245A7C0E0E82433F582DE
:10451300E439F583D0E0F0EE241B125235C0E07489
:1045230008120FB71245DCD0E0F0EE241A12523510
:10453300C0E07408120FB71245D82432F582E4386C
:10454300F583D0E01246251245CC120CD01263300D
:1045530012711E740B120FB71245D8242F1275FA5D
:10456300120CB1EE241512523554406012901B7791
:10457300124DF2600AAA21AB22125A11122391AAF8
:1045830021AB22121C3C740C120FB7E0F90248C78E
:10459300E82420F582E439F58322EE2419F582E438
:1045A3003FF5832212633FE022E82412F582E439C7
:1045B300F58322EE2418F582E43FF583225480F834
:1045C300A3E05401F974806822F508A3E0F50975A6
:1045D3000A007808221245EC221245EC2434F582B5
:1045E300E438F58322A3A3A3A31245F022E0F8A3A2
:1045F300E0C8221245EC123F2C38F58322FAA3E0DF
:10460300FBE8242AF582E439F583EAF0A3EB22A33D
:10461300A3A3A3123B2AEE22124D99124D7939F529
:104623008322F0EE24131252B622F0EE240D12521E
:10463300B622E0FC8A828B83E02CFCA3E03400FDED
:104643008A828B83ECF0A3EDF022F0A3E4F022F056
:1046530085218285228322F0EE24151252B622E0B0
:10466300D2E3F012466A228E828F83123B2E85217B
:1046730082852283E8F0A3E9F022E8F0A3E9125D42
:104683006DE02274F71208138A828B83A3E064011E
:1046930070047E6380027E648A828B83E060087983
:1046A300051246BA24F3FE901B93E06007F9124605
:1046B300BA24F2FE0241A7121CE4E9F8EEC39822E1
:1046C30074F612081374FE120D4A85218285228323
:1046D300125C27E9FEECFAEDFB900530124DF26017
:1046E30032A821A922880889097808120CD47D01EF
:1046F300740E120FB7E0FCEEF9900530125BFB125B
:1047030023917402120CB1EA4B600479008006799C
:10471300B2800279B6023B1A74F7120813E9FE90CD
:104723001B4D124DF2601F7409120FB7E0F50878A4
:1047330008120CD8EEF9901B4D125BFB12239174F7
:1047430001120CB1800279B60241CB74F71208133F
:104753008908ECFEEDFF79B5E508245E602014605E
:104763000624F86034803D9005321247AA60351262
:10477300693B1223918E828F83125C278024901BC6
:104783004F12711EEC4D601CEEFCEFFD901B4F129F
:104793005BFB122391E9F9800B901B4B1247B0127C
:1047A300155279000241CB1247E4EA4B22127122DF
:1047B300EEFAEFFB2274F7120813E9FE79B574AB36
:1047C3006E700B901B4B1247E01215527900024199
:1047D300CB8E828F83A3A3A3A3A3A3A3A31247E494
:1047E300221247E822E0FAA3E0FB2274F112081335
:1047F300EAFEEBFF8C0A8D0B750801901B9BE06EA4
:104803007003A3E06F700C1248BBAA0AAB0B12151E
:1048130052805E121E1CEE6A7002EF6B7009AA0AC8
:10482300AB0B121E22804AAC0AAD0BEEFAEFFB1261
:104833001972E9F508901DABE070361222EAE970AF
:1048430030E508702C901B6BE06E7003A3E06F7073
:1048530020EE4F601C750C63750D1B750E00780CF4
:10486300120CD07C087D00AA0AAB0B1268E7120C6D
:10487300B1A90802721A74F2120813EAFEEBFF8C54
:10488300088D09750A011248BBEEFAEFFB12154CAD
:10489300E964017011901B9B123B268508828509F0
:1048A300831268C0800EAC08AD09EEFAEFFB121953
:1048B30078E9F50AA90A8011121E108A0C8B0DAC37
:1048C3000CAD0D22740D120CB17F06020A3D74F675
:1048D300120813EAFEEBFF7A0D7B00121492EA4BE7
:1048E3006062EE24241265C4F0EE24251265C4A38D
:1048F3001249891265CAA3A312635D124964F0EEDB
:1049030012494A124979E8F0A3E91249A012497100
:104913001268C0EE124953126420A3A3A3A3F0EEBE
:104923002433125235C0E012495CD0E012614F12B9
:104933004971A3A3A3E8F0A3E9124998C0E0124F79
:1049430012D0E0F0023B1F242AF582E43FF58322D4
:10495300242EF582E43FF58322EA12538B3BF58341
:104963002212496822E08A828B83A3A3A3221264C2
:104973007FA3A3A3A32212497D22123B2E8A828BFB
:1049830083A3A3A3A322F012498E22EE2426F58249
:10499300E43FF58322F0EE24321252B622F0EE24E5
:1049A3002C1252B62274F412081374FE120D4AEC40
:1049B300FEEDFFEC241612523564057010EC24064C
:1049C300FCE43FFD121BC4E97003024A54AC21AD61
:1049D30022126679121846852182852283124DF2AE
:1049E300606B8E828F83E064017058E875F009A4D0
:1049F300F8AAF075F009E9A42AF974C428F8740830
:104A030039F9E8FAE9FB8882F5837808120F42EE58
:104A1300124AF6120F04402785218285228312460B
:104A230016125243124A597808120F429086E278BE
:104A330008120E3F8A828B837808120F51800A79FD
:104A4300A28010EE240F1268BA7900800679A18043
:104A53000279C8022C92124677EE12634B2274F24B
:104A63001208138A0C8B0DECFEEDFFEC125243E49B
:104A7300F0A3F09086F27808120F42EC124AF61275
:104A83000D766067EC240E12523C703478B3901BA1
:104A930092E07028901BC4E064017020EC24111292
:104AA3005235F9121CCC8B09A909EE124D753F1230
:104AB3005C25EA4960047800800278A18808802E8A
:104AC300E060046402700A121BD6E9F508700780DF
:104AD3001DE064037010EEFCEFFDAA0CAB0D121881
:104AE3006AE9F50880087508A180037508A3A90879
:104AF3000248CC12634B78082274F012081374F541
:104B0300120D4AEAFEEBFFEA240AFCE43F8C82F52D
:104B1300831275BB124D7F7403120D2A8A828B8315
:104B2300125A1BE97003024BE57401120D2A740338
:104B3300120D221218467401120FB7124DF27003B0
:104B4300024BE5E875F009A4F8AAF075F009E9A4A9
:104B53002AF974C028FC740839FDE508240E125E96
:104B63006CE4F004120FB7123B26E508124D7535BD
:104B7300091268BE8C828D83120FA0E508241212DD
:104B83005E6C120F7C9086E27808120F428C828D45
:104B9300837808120E9E8C828D83780C120F4290BC
:104BA30086DA7808120F42780C79081207A4E50810
:104BB3004509450A450B702A7401120FB7124D952A
:104BC30075F009A4F8AAF075F009E9A42AF974C8E4
:104BD30028F582740839F5837401F07A007B081292
:104BE3004DA28E828F83A3A3A3A3A3A3A3A3A3A353
:104BF300E02406FCA3E03400FD8E828F83125A1B4F
:104C030012613D603EEE240A124D6712461B746822
:104C130012464DE8124D6139F5837402F0901B7D05
:104C2300120FA08C828D83125C141258063CF583FC
:104C3300120F7C9086E27808120F42901B7D780851
:104C4300120E9E124DDD705D901B4B124D8DA3A372
:104C5300A3A3A3A3A3A3A3A312583C12154CE970C7
:104C6300101257FA901B4B12580C700512613D60DD
:104C7300348E828F83A3A3A3A3A3A3A3A3A3A3126B
:104C83004D8D1247E0121870E960118E828F83A355
:104C9300A3A3A3A3A3124DC9E4F0A3F08E828F8331
:104CA300124DAFE4F0124DDD6003024D5C8E828F36
:104CB30083A3A3A3A3A3A31275B7901B92E06003DE
:104CC300024D51901BC4E064016003024D51750A0B
:104CD3003A750B00780A120CD47402120D1A880A62
:104CE300890B780A120CD4126BB6120CB1E9705B03
:104CF300E508240E125E6C7401124DF7C0E0E5085E
:104D03002411125E6CD0E0F0E508240F125E6C747F
:104D13003A12464D901B79120FA0E5082412125E39
:104D23006C120F7C9086E27808120F42901B797800
:104D330008120E9E9086E27808120F42901B797833
:104D430008120D767008124D9E8003124D7F124D8E
:104D5300DD70061256FD74A1F0740B0264EF240E8D
:104D6300F582E422F8E43FF9E8FCE9FD8882F58363
:104D730022EA124D7922240FF582E422E508124D2E
:104D8300793509F583E4F0A3F0221271228E828F24
:104D93008322124D9922123B2EE8227A007B029045
:104DA3001A24E0F912143E228A828B83A3A3A3A3BD
:104DB300A3A3A3A3A3A3124DBD221245F0240EF572
:104DC30082E438F58322A3A3A3A3124DD122124573
:104DD300F0240FF582E438F583228E828F83A3A318
:104DE300A3A3A3A31245E8240FF582E438F58312A5
:104DF3004D994922124DFB22F0852182852283E0C1
:104E03002274F6120813EAFEEBFF7A237B001214D6
:104E130092EE240AF508E43FF509850882125C2521
:104E23007C237D0079001213F6850882850983129D
:104E33004DF27003024EC5EEFAEFFB121BE2124D68
:104E4300DD60748E828F83124EF864018E828F83AD
:104E5300A3A3A3A3A3A37007124EEE740E80211283
:104E63004DF2701012613D700B8E828F83A3A3E00D
:104E7300A2E05007124EE4740D8005124EE474054F
:104E830012614F540364017007124ECC7405800BFA
:104E9300901B93E0C0E0124ECCD0E0124F07F58395
:104EA30088821252628508828509831245D8125B73
:104EB300B938F583E9800E850882850983125C9EE3
:104EC3008003125BE1F0023B1F8E828F83A3A3A3B7
:104ED300A3A3A3A3A3A3A3124EDE22E0125C00A309
:104EE300228E828F83A3A3A3A3A3A31245E8125BFD
:104EF300BF38F58322A3A3A3A3A3A3A3A3A3A312AE
:104F03004DBDE022124F0B2212668EF8A3E022EA77
:104F1300124F1A3BF58322240CF582E42274F1121A
:104F2300081374E4120D4A8A0C8B0D8C088D097AD0
:104F3300237B001214928A0A8B0BAE0AAF0BEA4F43
:104F4300700302521D125BC5E508241512524E6808
:104F53007003A3E0698E828F8370047402800274ED
:104F630001F0E508240DF8E43509F98882F583E0BA
:104F7300FAC3E49AFA95E0FB12524A2AFAA3E03BF9
:104F8300FB8E828F83A3A3A3A31258238E828F83C6
:104F9300A3A3F0EE2420F582E43FF583E4F0EE24AE
:104FA30021F582E43FF583E4F0EEFAEFFB121C9661
:104FB30085088285098312526970098E828F83A3C3
:104FC30074058006901B93125257F0EE2417F50ACE
:104FD300E43FF50B8E828F83125262E9850A828544
:104FE3000B83F0EE2416F8E43FF9E508240EFAE407
:104FF3003509FB88828983124635E5082410FAE4D3
:105003003509FB850A82850B83E0FC88828983E06E
:10501300F88A828B83E0C398C39CF81252A3F0EE04
:10502300FCEFFDAA0CAB0D121BDCE9F50B8E828F96
:1050330083E0640270061257FA125227E50B6003ED
:10504300025214750C00750D00901DABE0640160F5
:1050530005E06402703F1252396008EE24211252B7
:105063003C70328E828F83A3A3A3125BE712526F2D
:10507300EE2416125235125298FAE439FB123927EC
:10508300EA4B6011126449120CD012527DAA0C1221
:1050930068E7120CB1EEFAEFFB121CA2E9F50B90D4
:1050A3001DABE064016008E064026003025207E99B
:1050B3007003025207E50C450D700302521480037E
:1050C300850E0B125239600BEE242112523C600301
:1050D30002520D850B0E850C08850D09750A0078A3
:1050E30008120CD012527D8E828F83A3A3A3A31226
:1050F3007600120CB1EE2420125235600D1252428A
:10510300746812464DEE24208015EE242112523588
:1051130060151252427403F0A37401F0EE2421F5DA
:1051230082E43FF583E4F0EEFAEFFB121CA2E9F50B
:105133000B70907C137D0079007409120D221213F9
:10514300F6741A120FB774011252AE64687002A398
:10515300E0704F8E828F83124DC9E06405600302B5
:1051630050C37C0879FF8E828F83A3A3A3A3E0247B
:105173002A12583F121474E970030250C37C087D4D
:105183000079FF7401120D221213F67401120D2A15
:105193007A007B0079AB121BBE7419120FB774FC33
:1051A3008015125242E064037004A3E064017008A6
:1051B3007419120FB774FFF0E4F508F509780812B3
:1051C3000CD47402120D2A7413120FB7AA82AB8384
:1051D300125D24120CB1852182852283E0602B7439
:1051E30009120D1A880889097808120CD475081356
:1051F3007509007808120CD47C007D0012659712A3
:105203000CB18006E50C450D6007AA0CAB0D12141A
:1052130098EEFAEFFB1214988003750B10A90B7428
:105223001C027217EE2406FAE43FFB12155222EE1B
:10523300240C1252B622EE24201252B6640122EE3E
:10524300124D793FF58322E508240EF582E43509F2
:10525300F583E02212525CA322E08E828F8322A385
:10526300E0F9121CE422E054036401221252732277
:10527300E0FAE82AF8E43400F9228E828F83A3A3AC
:10528300A3125BEB125273EE24161252B61252980B
:10529300FCE439FD22FAE82AF8E439F9E824042287
:1052A3001252A72212615EA3A3A322F01252B322C9
:1052B300EE240FF582E43FF583E0227901020C61CD
:1052C30074F4120813EAFEEBFF8A82F583A3A3A307
:1052D300A3A3A3A3A31245D82424F582E438F5831A
:1052E300125269702E8A828B83124EF870251253E4
:1052F30091E06405701D125391A3E0F87401686096
:10530300057406687007124DAB74028005124DAB2D
:105313007403F0EA240A125C92125BFBE4F0EA24C1
:1053230008F8E43F122C812431F582E43AF583E056
:10533300C0E0126932A3A3D0E01253B0CA242EF501
:1053430082E43AF583E0C0E0126932A3A3A3D0E07C
:105353001258D6C812538B38123B24126932125397
:10536300A58A0A8B0BAC0AAD0B85088285098312CB
:10537300583C1215528508828509831247E0121C96
:10538300A2125C8DF0022C97240BF582E4228A8210
:105393008B83A3A3A3A3A3A3A3A3126124F583884D
:1053A3008222A3A3A3A3124677121E102212581817
:1053B300FAA3E0220252BEC082C083901B6D74E840
:1053C300F0A3741BF0901B6F74F4F0A3741BF090A4
:1053D3001B7174FAF0A3741BF0901B7374EEF0A3AB
:1053E300741BF00256C174F4120813EA2408FEE495
:1053F3003BFF8E82F583124D95125BD1E0F5087465
:10540300035508F509125837F8A3E08882F583E5B8
:1054130008F0A3A882A983E50960097402650960FD
:10542300030254D6740C5508FC600A74086C6005BA
:1054330074046C7026740265097006E508A2E440E2
:105443001A8A828B83A3A3A3A3A3A3A3A31255DCCA
:1054530012632A3D125577A308A983740C6C701C40
:105463001255D824281255C42428F582E43DF58327
:10547300A3125F58F0E82402F85001097402650989
:105483007006E508A2E4404B1255D8242A1255C4ED
:10549300242AF582E43DF583A31255861255E212C0
:1054A3005F581255E2A312557EE82404F85001090F
:1054B300EC600F74086C600A740C6C600574046C07
:1054C3007011125C082426F582E43C125577A3A8D8
:1054D30082A9838A828B83A3A3A3A3A3A3A3A312D7
:1054E30055A654037014E508A2E1400E125C08129D
:1054F30055713CF583E05480600812558C12557940
:105503008019901B41E0C0E012558CD0E01255B9D0
:10551300888289831255B90412581DA3A882A983CE
:10552300E508A2E750458E828F831255A6888289AB
:10553300831255BF1255AB54036030125C082434F8
:10554300F582E43C125F56F0E508A2E1501D8A8221
:105553008B83A3A3A3A3A3A3A3A3122C862435F510
:1055630082E43A125F56A3F0E82403022C97241E28
:10557300F582E422F583125586F022125586A3A301
:10558300A3F022E088828983228A828B83A3A3A348
:10559300A3A3A3A3A3E0FCA3E0CC2432F582E43CC1
:1055A300F58322E01255AB22FCA3E0CC2425F5823F
:1055B300E43CF583E022F0901B41E02212615AE0C3
:1055C30022F582E43DF5831255861255D1221261EC
:1055D3005E1255DC228E828F83E0FDA3E0CD22A3F1
:1055E3001255D1242CF582E43DF58322C082C08379
:1055F3008A828B831256B1FC74035CF98A828B8393
:10560300A3A37401F0E960057402697061740C5C12
:10561300F8600A740868600574046870137402699A
:105623007005ECA2E440098A828B83A3A37402F081
:10563300740C68700A8A828B83A3A3E02402F0743B
:1056430002697005ECA2E440258A828B83A3A3E060
:105653002404F0E8600F740868600A740C6860053D
:1056630074046870098A828B83A3A3E004F0ECA21C
:10567300E7502A8A828B83A3A3E0041256B7123120
:1056830090E0540360178A828B83A3A3E004F0ECB9
:10569300A2E150098A828B83A3A3E004F08A828B60
:1056A30083A3A3E004F08016852182852283124E12
:1056B300DEA3E022F08A828B83E022120CB1D08336
:1056C300D082020C61C082C0838A828B83A3A3A38E
:1056D300A3A3A3A3A3A3A3124DF260098A828B837E
:1056E300A3A31256EA80D7A3A3A3A3A3A3A3A3129E
:1056F30056F6221247E81214982212570122EE247A
:105703000CF582E43FF5832274F612081374F41245
:105713000D4A125846FCA3E0F5838C82A3E0C0E057
:105723007402120FB7D0E01258F41258DD74041249
:105733000FB71268C07402120FB7E064047014123A
:10574300585C241212583F7406120FB712582324C0
:105753001A8035E064016005E064067039EA2402CA
:10576300F8E43B122C811258063AF583E0C0E0744A
:1057730003120FB7D0E0125814241312583F7406C3
:10578300120FB7125823241B1258DD7408120FB7D7
:10579300E8F0A3E9802B7406120FB7E4F0A31258C4
:1057A30057241212583F7408120FB7125830C824E6
:1057B3001AF582E438F583E0C0E0740A120FB7D01B
:1057C300E0F07406120FB7124DF2601F7406120F49
:1057D300B71247E0121966E96401700F1257FA74A1
:1057E30006120FB712580C64017007AA21AB2212DC
:1057F3001C7E740C023B1C121E108A088B09AC0819
:10580300AD09222412F582E4221247E412154CE971
:10581300221258182212581DE022F088828983220E
:1058230012582722EAF0A3EB12581DE02212582740
:10583300F8A3E0221261B8E022E02406FAA3E034E0
:1058430000FB228A828B83A3A3A3A3A3A31268FBD7
:10585300E8F0A3E9F012585C22125905E022C08255
:10586300C08374FD120D4A12588B12318AC0E07442
:1058730002120FB7D0E0125885121C84740302562B
:10588300BEE4F0AA21AB22228A828B83A3A3A3A323
:10589300A3A312466E8A828B83A3A3E022C082C095
:1058A3008374FA120D4A1268ED1258FAC0E07402BA
:1058B300120FB7D0E01258D6F5838882A3A3E0C0B5
:1058C300E07405120FB7D0E0125885121C8A7406D3
:1058D3000256BE125818F8A3E022F8A3E03400F9E8
:1058E30022A3A312595822E02402F8A3E03400F9BA
:1058F30022125818240222124677125905125911FE
:10590300E022EA2402F8E43BF98882F58322E0FAF4
:10591300A3E0F5838A82A322E50E123983350FF5BE
:1059230083E0FC7D0022C082C08312594C600A24AC
:10593300FC600B24F9600C800D121C188008121CEB
:105943001E8003121C240256C18A828B831259566D
:1059530024FB22A3A3125BFFE02274F61208137444
:10596300E4120D4AEAFEEBFF7401120D2A8A828BC0
:1059730083A3A3A3A3A3A3125A1B7409120D1A880A
:105983000889097808120CD47402120D2A740312C0
:105993000D22125D24120CB1852182852283E060E1
:1059A30036741A120FB7E060046401702A901B2446
:1059B300E070248E828F83A3A3A3A3A3E070188E29
:1059C300828F83125A15603F8E828F83A3A3A31203
:1059D3005A11E0640760308E828F83A3A3A3A3A32D
:1059E300A3A3A3E070148E828F831258E46405602E
:1059F300097A347B0112171A800DEEFAEFFB901B24
:105A030075125BFB122391741C023B1CEEF9125CB2
:105A130002221259566406221247E4121BC422744E
:105A2300F412081374FA120D4AEAFEEBFF123196D0
:105A33002408F582E43B125C2D240AF582E4381233
:105A43005C2D125BDA125884121C0C1256ABF5084B
:105A5300125BC5852182852283126938E068700351
:105A6300A3E069602EE508A2E550288521828522FE
:105A730083A3E0FB901B6D125BFB122391852182B4
:105A83008522831245D8240A124DEC70061256ABB8
:105A9300C2E5F01252326003025BAE7403120FB719
:105AA3007436F07402120FB7125BE7A3A3E028C0A9
:105AB300E07404120FB7D0E01252A3A3A3E0C0E036
:105AC3007405120FB7D0E0125D66F8A3E0F9E84958
:105AD300601BE8125BB939F583E0FAE8125BBF3962
:105AE300F583E02AF87404120FB7E028F074031268
:105AF3000D221219D28A088B09A808A909EA49704C
:105B030003025BA38E828F831247E088828983A37B
:105B1300A3125C27E81258063912614BC0E0E81261
