:020000040000FA
:06000000020EF102040EE5
:03001B000205E6F5
:03002B00020CC400
:030033000204DEE6
:030043000208D2DE
:030053000202E6C0
:03006B0002044844
:0300730002063B47
:1000830002036F010000000000F8FF07FFFF0000FC
:100093000504000000030001FFFFFFFF0014102709
:1000A30000000020FD000206FFFF1EB31500000044
:1000B300000000000000000000000000000000003D
:1000C3000000001E000104010C000201F68602E696
:1000D3008601040000221A000000E8030000FFFF6D
:1000E300731A0188130000E803000064006400B879
:1000F30001A0BB0D00A0BB0D000202020704010515
:100103001E02051E020A0A010108080103B80B02B8
:10011300803E0102FEFFE8030A050001FFFF020A19
:10012300011401E0000000000200000005030101CA
:100133000F03000300030003000300030003000395
:1001430000030005000A00140028004F009E000071
:1001530000962600000000022500000000FF0000BA
:1001630000FF0000120F01604F120F3D6012E754B1
:100173008066F6120DA67011120F9E703B090909D5
:10018300F4F618F618F618F622120DBA7015120FB7
:10019300B008080860EAE6447FF618768018E4F6AB
:1001A30018F622120FB06016120F9E7012E4F608B2
:1001B300F608F608E65480F609090918181822EA21
:1001C300C0E0EBC0E0ECC0E0EDC0E0E687F0A4FBEC
:1001D300ACF008E687F0A42CFCE435F0FA1809E645
:1001E30087F0A42C4B60027401CA35F0FCE433FBA6
:1001F30009E687F0D2F7A42CCB35F0FC1908E68783
:10020300F0A42BCC35F0FBE433FD0819E687F0D2DC
:10021300E7A42C4ACB35F0CD3400FC09E687F0D2B5
:10022300E7A42DCC35F0FDE433FA0918E687F0D2C4
:10023300F7A42CCD35F0CA3400FC08E687F0D2E7EA
:10024300D2F7A42ACC35F07A7E20E70B0ACB33CB46
:10025300CD33CDCC33CC33CB3350147004ED30E0FD
:100263000ED2F1E4CD3DCDCC3CCC3B5005DA05C2FA
:10027300F1EB547FC63308E63392F0FBE73309E72B
:1002830033C39A502D2B70190C0D4C4D7015180655
:10029300E608C333700D20F10AA2F013F6E41880C8
:1002A3000B4024E4F630F002768018F618F618F6C0
:1002B3008024D33B14501074FFA2F013F6187680F9
:1002C300E418F618F6800FA2F013F618E63303F6D7
:1002D30018ECF618EDF6D0E0FDD0E0FCD0E0FBD052
:1002E300E0FA22C0E0C0D0E8C0E0E9C0E0EAC0E044
:1002F300EBC0E0ECC0E0EDC0E0EEC0E0EFC0E0C07A
:1003030008C009C082C083C0F0A2AFE433F509D2AC
:10031300AF85A708AFA1EF5508FE74105E60061203
:10032300114575A1EF74085E600812114B75A1F7B2
:100333008024EFA2E092F0E508A2E082F05017904B
:100343006198E0F8900AB6E0C398A2D265D0335022
:1003530002E8F075A1FEE509A2E092AFD0F0D083E8
:10036300D082D009D008D0E0FF0203F4C0E0C0D0AF
:10037300E8C0E0E9C0E0EAC0E0EBC0E0ECC0E0EDDB
:10038300C0E0EEC0E0C082C083C0F0A2AFE433FEA1
:10039300D2AF9061A4E0F8759B00E59158540860D2
:1003A300087591F712118D8023E591585410600858
:1003B3007591EF1211938014E591A2E092F0E8A2F7
:1003C300E082F05007E0C2E0F01212C59061A3E0B2
:1003D300F8E5E9585404600E1212A775E9FB906121
:1003E30093E0A2E640F2EEA2E092AFD0F0D083D049
:1003F30082D0E0FED0E0FDD0E0FCD0E0FBD0E0FA1C
:10040300D0E0F9D0E0F8D0D0D0E032C0E0C0D0E8FE
:10041300C0E0E9C0E0EAC0E0EBC0E0ECC0E0EDC062
:10042300E0EEC0E0C082C083C0F0A2AFE433FED2EE
:10043300AF9061A5E0F8E5BF585404600675BFFBB3
:100443001212D180A1C0E0C0D0E8C0E0E9C0E0EA68
:10045300C0E0EBC0E0ECC0E0EDC0E0EEC0E0C008FF
:10046300C009C00AC00BC082C083C0F0A2AFE4338E
:10047300FED2AFE589A2E1503090056A7401F0E540
:1004830089540290056BF0750819750900750A0007
:10049300750B007808120C8F7A107B00900569E0C9
:1004A300F91214A57404120C74758900C2C5EEA266
:1004B300E092AFD0F0D083D082D00BD00AD009D055
:1004C30008D0E0FED0E0FDD0E0FCD0E0FBD0E0FAC5
:1004D300D0E0F9D0E0F8D0D0D0E032C0E0C0D0E82E
:1004E300C0E0E9C0E0EAC0E0EBC0E0ECC0E0EDC092
:1004F300E0EEC0E0C008C009C00AC00BC082C083E0
:10050300C0F0A2AFE433FED2AFE58BA2E05032904D
:10051300056A7404F0E58BA2E0E43390056BF07593
:100523000819750900750A00750B007808120C8FFD
:100533007A107B00900569E0F91214A57404120C7B
:1005430074758B00C2E80204B112059730F03912BA
:1005530005DC803412059720F01430E72B74FFFC80
:10056300FBFA747F8022E4FCFBFA7480801AB48067
:1005730008BC00F2BB00EF800F50EBF9E4C39AFA1A
:10058300E49BFBE49CFCE499C6CC18C6CB18C6CA12
:1005930018C6F922E4C9C608CAC608CBC6D33303B2
:1005A30008CCC63392F0C3947F402E94184019C9E7
:1005B300B90704CACBCC225025C309CA33CACB33EB
:1005C300CBCC33CC33D9F422F4600DC9CCC313CBD9
:1005D30013CBCA13CAD9F6CC22E4FCFBFA2214FCCF
:1005E300FBFA22C0E0C0D0E8C0E0E9C0E0C082C0AE
:1005F30083A8F9E8C0E0900A23E0F874A228F58202
:10060300E43409F583D0E0F0900A22E0F8A3E0682F
:100613007006E595900A25F0900A23E004F0C39450
:10062300804002E4F0A374C6F0D083D082D0E0F916
:10063300D0E0F8D0D0D0E032C0E0C0D0E8C0E0E9EC
:10064300C0E0C082C083900AA6E0F8A3E068700807
:10065300539AF7A374018022C2EA900AA6E0F874C1
:100663000128F0742628F582E4340AF583E0F5F9CD
:10067300900AA6E0C394804002E4F080ACC3E498FF
:10068300F8E499F91206C18026C3E49AFAE49BFBC5
:10069300E920E7E91206C1E498F8E499F922C3E4F2
:1006A30098F8E499F91206C1E498F8E499F9C3E4D7
:1006B3009AFAE49BFB22EB20E7CFE920E7E0B900BD
:1006C30010BB0008E88AF084F8AAF022E4FBC8FA19
:1006D30022EB70227B10C833C8C933C9335007C318
:1006E3009AC3DBF280069A50012ADBEAC833F4C8C6
:1006F300C933F4C9FA2275F008E4C833C8C933C949
:1007030033C99AC99B5004C92AC93BD5F0ECFBC82D
:1007130033F4C8E4C9FA22080808EAC0E0EBC0E0F1
:1007230086F0E7A4FA180986F0E7A42AFA180986DE
:10073300F0E7A42AFA180986F0E7A42AFA1986F042
:10074300E7A4FBE5F02AFA190886F0E7A42BFBE5FA
:10075300F03AFA190886F0E7A42BFBE5F03AFA1809
:10076300180986F0E7A4C5F02BFBE43AFA1908E769
:10077300C5F0C6A426F6E5F03BFBE43AFA1886F08A
:10078300E7A4F6E5F00826F6E43B08F6E43A08F6B3
:10079300D0E0FBD0E0FA22E4CFC0E0E4CEC0E0E456
:1007A300CDC0E0E4CCC0E075F020E626F608E633E1
:1007B300F608E633F608E633F6181818EC33FCEDC2
:1007C30033FDEE33FEEF33FFC3EC9709ED9709EEEC
:1007D3009709EF97191919400FFFEC97FC09ED974B
:1007E300FD09EE97FE191906D5F0BFECF709EDF7F1
:1007F30009EEF709EFF7191919D0E0FCD0E0FDD0A5
:10080300E0FED0E0FF222521C582C0E0E52234FFCF
:10081300C583C0E0E521C3958224F810AF08858322
:10082300228582218008858322858221D2AFCEF062
:10083300A3E520F0A37808E608F0A3DEFAEFF0A31F
:10084300E58124FAF8E608F0A3E608F0A3E608F049
:10085300A30808E608F0A3E608F0A315811581D0E4
:10086300E0FED0E0F8158115811581E8C0E0EEC007
:10087300E022E9799EC608CAC608CBC608CCC6C31F
:1008830070207996CACBCC7019798ECBCC70137942
:1008930086CC700EF9802ACA33CACB33CBCC33CC87
:1008A300331930E7F2CCCBCA3350147004EA30E08A
:1008B3000DE4CA3ACACB3BCBCC3CCC500209C3E9CA
:1008C30013C6CC182313C6CB18C6CA18C6F922C040
:1008D300E0C0D0E8C0E0E9C0E0EAC0E0EBC0E0EC93
:1008E300C0E0EDC0E0EEC0E0C082C083C0F0A2AFC4
:1008F300E433FED2AFC2C0E5D1A2E450031210BB71
:10090300EEA2E092AFD0F0D083D082D0E0FED0E070
:10091300FDD0E0FCD0E0FBD0E0FAD0E0F9D0E0F885
:10092300D0D0D0E032120F89B90003020967E490F6
:100933000501780E79198002F0A3D8FCD9FA7A0E52
:100943007B1D90008678E179018015E493A3AD8245
:10095300AE838A828B83F0A3AA82AB838D828E833C
:10096300D8E9D9E77582E775837D7400120C3B756E
:1009730082FD7583227400120C3B00002275F01077
:100983008E238F2485822885832785218285228350
:10099300E0CEA3E0CF852882852783EBC9EAC8EDA3
:1009A300CBECCAC3E833C8E933C9EA33CAEB33CB68
:1009B300C3EA9EF526EB9FF525B35004AB25AA2683
:1009C300EC33CCED33CDD5F0DAAE23AF2422D08394
:1009D300D082ECC0E0EDC0E0E493A3FCE493A3FD7C
:1009E300ED4C600D120AA9EC24FFFCED34FFFD80F1
:1009F300EFE493A3FCE493A3FDED4C600D120B46CF
:100A0300EC24FFFCED34FFFD80EFD0E0FDD0E0FCF3
:100A1300E493A3C0E0E493C0E0228522838521828E
:100A2300E0A3FEE0A3F5207808E0A3F608DFFAE0F0
:100A3300A3FFE0A3C0E0E0A3C0E0E0A3C0E0E0A325
:100A4300C0E0E0A3C0E010AF088582218583228047
:100A530008858221858322D2AFD083D082020C41C4
:100A6300D083D082E9C0E0E493A3C386F0C5F095B8
:100A7300F0F908E493A386F0C5F095F0700BE493C6
:100A8300A3C3994005E9048002A3E475F002A425F9
:100A930082F582E5F03583F583D0E0F9E493A3C0D2
:100AA300E0E493C0E022C0E0C3E4939608740193AA
:100AB3009618400FE49366700808740193661870E3
:100AC300007019A3A3C3E49396087401939618A323
:100AD300A3400DD0E0D0E0D0E0020A0DA3A3A3A36E
:100AE300A3A3D0E0227404800474028000CCC0E08D
:100AF300EDC0E0E521C39CCCAD2250011D10AF0633
:100B03008C218D2280068C218D22D2AF120BBDD079
:100B1300E0FDD0E0FC2274028000CCC0E0EDC0E038
:100B2300E521C39CCCAD2250011D10AF068C218D55
:100B33002280068C218D22D2AF120B9BD0E0FDD0F8
:100B4300E0FC22C0E0C0F088F0E49366700808740B
:100B5300019366187000A8F0A3A3700BD0F0D0E047
:100B6300D0E0D0E0020A0DA3A3D0F0D0E022D083DE
:100B7300D082CCC0E0E493A36006120BFD1470FA9C
:100B8300E493A36006120D3D1470FAD0E0FCE493E5
:100B9300A3C0E0E493C0E022CAC0E0E493A3C5820B
:100BA300CCC582C583CDC583F0A3C582CCC582C520
:100BB30083CDC583DAE5D0E0CA22CAC0E0E0A3C58D
:100BC30082CCC582C583CDC583F0A3C582CCC58243
:100BD300C583CDC583DAE6D0E0CA22C008C3E09658
:100BE300F50808A3E096420808A3E096420808A384
:100BF300E09645087001D3D00822C0E0E493A3D364
:100C03009C5010E493A3C39C400AD0E0D0E0D0E012
:100C1300020B8EA3A3A3D0E0227009080808226068
:100C230016181818C6C333C608C633C608C633C653
:100C330008C633C6D5E0EA22C09FF59FE473D09F70
:100C430022D083D082C09FE493C0E0740193C0E0BC
:100C5300740293F59F222521F58210AF08F52140F8
:100C63000C15228008F52140021522D2AF8522837C
:100C73002200C0D0252110AF08F521500C05228099
:100C830008F52150020522D2AFD0D0227404800A85
:100C930074038006740280027401C0E0F404120C31
:100CA30059D0E0120F4C22BB0102E722C082C0835D
:100CB30089828A83BB0003E08002E493D083D082DD
:100CC30022C0E0C0D0E8C0E0A8A8D2AFC2C7E8A263
:100CD300E792AFD0E0F8D0D0D0E032601608080831
:100CE300C6C313C618C613C618C613C618C613C67A
:100CF300D5E0EA222521F8E43522F9222521FAE478
:100D03003522FB222521FCE43522FD22C3E0C696D1
:100D1300F608A3E0C696F608A3E0C696F608A3E095
:100D2300C696F622252110AF08F521400C15228026
:100D330008F52140021522D2AF22C0E0E493A36C50
:100D43007009D0E0D0E0D0E0020B8EA3A3D0E02264
:100D5300E066701008A3E066700A08A3E0667004FA
:100D630008A3E06622C3E09608A3E09608A3E096F2
:100D730008A3E096A2D265D03322E7667010080973
:100D8300E766700A0809E76670040809E76622C384
:100D9300E096F008A3E096F008A3E096F008A3E03D
:100DA30096F022181818E60846087009E626087017
:100DB30005E633F4220822191919E70947097009CE
:100DC300E727097005E733F4220922C3E493960861
:100DD300740193960874029396087403939622C33E
:100DE300E697F60809E697F60809E697F60809E68E
:100DF30097F622E647F60809E647F60809E647F6B6
:100E03000809E647F622700422600D18C6C333C6EC
:100E130008C633C6D5E0F41822E026F608A3E03668
:100E2300F608A3E036F608A3E036F622E657F608FE
:100E330009E657F60809E657F60809E657F622E0E9
:100E430056F608A3E056F608A3E056F608A3E056C4
:100E5300F622E056F008A3E056F008A3E056F008A7
:100E6300A3E056F022E627F60809E637F60809E676
:100E730037F60809E637F622E026F008A3E036F055
:100E830008A3E036F008A3E036F02206E6700D086A
:100E930006E670080806E670030806E622E4C39631
:100EA300F608E496F608E496F608E496F622600D52
:100EB30008C6A2E713C618C613C6D5E0F322C6F4C4
:100EC300C608C6F4C608C6F4C608C6F4C622C3E7F5
:100ED300960809E7960809E7960809E79622C3E00A
:100EE3009608A3E09608A3E09608A3E0962275D09F
:100EF3000075813F75210175220500020928E60866
:100F03004608C3134608336002E633F422600C0834
:100F1300C6C313C618C613C6D5E0F422E0F608A369
:100F2300E0F608A3E0F608A3E0F622E6F008A3E65D
:100F3300F008A3E6F008A3E6F022E7094709C31384
:100F43004709336002E733F422CAC0E0E6F0A3089E
:100F5300DAFAD0E0FA22E8F0A3E9F0A3EAF0A3EB8F
:100F6300F022E0FAA3E0FBA3E0FCA3E0FD22EAF019
:100F7300A3EBF0A3ECF0A3EDF022E0F8A3E0F9A3D8
:100F8300E0FAA3E0FB22E5C754F84401F5C7790171
:100F9300222521F582E43522F58322E72719471913
:100FA30047194722C2AF75D69F02000022E62618D2
:100FB300461846184622120C444BA304120C4489CB
:100FC300A304120C4453A504120C4432A604120CBD
:100FD3004410A704120C444D8C05120C44798C0563
:100FE300120C440C8E05120C44FE8E05120C449117
:100FF3008F05120C440EB005120C4413B005120CED
:101003004446B005120C44879F05120C444EA005BC
:10101300120C447FA105120C44CEFE02120C44DFD5
:10102300FE02120C4479FF02120C4484FF02120CDC
:10103300449CFF02120C44F4FF01120C4454B0050B
:10104300120C440CFF04120C441CFF04120C443415
:10105300FF04120C44B1FF04120C44DAFE01120C1B
:10106300445FFF01120C44C5FF01120C4421FF032E
:10107300120C44A8FF03120C44B7FF03120C44CB19
:10108300EA04120C440FEB04120C44ADEC04120CF2
:1010930044EAED04120C44D0EF04120C44B5AF053E
:1010A300120C44B47500120C446D7600120C44B952
:1010B3007700120C448F7900120C44E27900120C71
:1010C30044267A00120C44B97A00120C445D7B006A
:1010D300120C44E37B00120C44627C00120C44307B
:1010E3007D00120C444F7D00120C445C7D00120CF9
:1010F30044EDDF04120C4418E004120C4429E30409
:10110300120C4403E404120C4424E404120C44407F
:10111300E404120C4459E404120C4412A605120C04
:101123004447A605120C4482A605120C44F4A605F6
:10113300120C4424A705120C4451A705120C44AE0B
:10114300A705120C44B1A705120C44C4A705120C41
:1011530044D0A705120C44BD9905120C44119A05FD
:10116300120C44619A05120C44CF9A05120C4410D8
:101173009B05120C44699B05120C44789B05120CC9
:1011830044A09B05120C44919C05120C449E9C05A3
:10119300120C44AF9C05120C44CAAD05120C441A40
:1011A300AE05120C4444AE05120C4487F504120C30
:1011B30044E8F604120C44F6F604120C4409F7044E
:1011C300120C441EF704120C4433F704120C444669
:1011D300F704120C440DF804120C4483F804120CA7
:1011E3004405F904120C44DEF904120C44EEF9042C
:1011F300120C44FDF904120C442FAD05120C445497
:10120300AD05120C447DAD05120C44A5AD05120CC1
:1012130044EFA105120C4416A205120C448DA2053D
:10122300120C44C08F05120C44D98F05120C44F7DD
:101233008F05120C440B9005120C44299005120CD7
:1012430044339005120C443D9005120C4450900514
:10125300120C44419105120C44B29105120C44DD69
:101263009105120C442B9205120C44789205120C32
:1012730044939205120C449D9205120C44E8920586
:10128300120C44B3FF02120C44C4C304120C44F8FE
:10129300C304120C441AC404120C4433C404120CC5
:1012A300444DC404120C44B8C404120C44EBC404EB
:1012B300120C44D0CA04120C445BCC04120C44DA62
:1012C300CC04120C4468CE04120C4483CE04120CDA
:1012D30044F6CE04120C4447A405120C4457A4054B
:1012E300120C448FA405120C44A8A405120C441933
:1012F300A505120C443EA505120C4469A505120C64
:1013030044BFA505120C44E5A505120C44BBFF041C
:10131300120C442EFA04120C4435FA04120C44E85D
:10132300FB04120C440CFC04120C449AFC04120C33
:101333004479FD04120C44D8FD04120C446DFE04E0
:10134300120C44B8FE04120C4464A905120C447632
:10135300A905120C448BAA05120C448EAA05120C83
:1013630044BBAA05120C44F1AA05120C4407AB05B1
:10137300120C4449AB05120C448FAB05120C44D339
:10138300AB05120C44DDAB05120C4424F703120C1D
:101393004461F703120C44C6F703120C44E3F7034A
:1013A300120C449AF803120C44A4F803120C44F1EF
:1013B300F803120C441FF903120C4409FA03120C2C
:1013C3004426FB03120C4474FB03120C44B9FB03C5
:1013D300120C4424FC03120C4497FC03120C44F239
:1013E300FC03120C442DFD03120C446EFD03120C7E
:1013F3004480FD03120C4492FD03120C44B1FD031F
:10140300120C44BAFD03120C446CFE03120C44BDCF
:10141300FE03120C44F7FE03120C4406AF05120C34
:1014230044D9A705120C44769605120C44AC9605D4
:10143300120C44FB9705120C44549905120C447684
:10144300A203120C44F4A803120C449CAF03120C25
:10145300442EB203120C4491B403120C442FB5036F
:10146300120C4407B703120C4440B903120C446D29
:10147300BC03120C447BBC03120C4445BD03120C89
:1014830044E6BD03120C444DC303120C44F7C303DB
:10149300120C44DEFF01120C44008005120C4412AE
:1014A3008005120C44008105120C44318105120C95
:1014B300447E8105120C44DE8105120C444A8205E8
:1014C300120C44678405120C44F7AB05120C447BE1
:1014D300AC05120C44D1AC05120C4410AD05120C32
:1014E30044ABAE05120C44008701120C440C870177
:1014F300120C44B18701120C442D8801120C44369E
:101503008901120C44C98901120C44678A01120C27
:1015130044A98A01120C44A88C01120C44888F013F
:10152300120C448F9401120C44CF9901120C448E77
:10153300A401120C4490A501120C4428A601120C1C
:1015430044D9A601120C4452A701120C4409A90163
:10155300120C44FCA901120C4469AC01120C44F1B5
:10156300AC01120C4458B001120C44AAB301120C82
:10157300447FB401120C4490B901120C4421BA0106
:10158300120C445CBA01120C4446BD01120C442DEA
:10159300C401120C4450C701120C442CDA04120C7F
:1015A30044DDDB04120C4424DD04120C44E8DD04A6
:1015B300120C44FADE04120C4412DF04120C4445EC
:1015C300DF04120C4469B005120C4475E504120CD7
:1015D300441CE604120C443DE604120C4437E704B1
:1015E300120C44EBE804120C4471DE03120C44E6C3
:1015F300DE03120C446DDF03120C44BCE103120C36
:1016030044EFE203120C44D6E403120C4425E50331
:10161300120C4482E503120C44FBE503120C44272D
:10162300EA03120C442BEB03120C448BEC03120C55
:10163300447BED03120C4407EE03120C4440EE030B
:10164300120C445EEF03120C4401F003120C4489A4
:10165300F003120C4435F303120C445CF403120C34
:1016630044ACF403120C44C0F503120C44E8F50334
:10167300120C44EBF503120C44F9F503120C441D50
:10168300F603120C448DF603120C44C6F603120C37
:1016930044F2F603120C4405F703120C4447AE055B
:1016A300120C44F7FF01120C44008004120C442373
:1016B3008004120C44878104120C44D08104120C60
:1016C300447B8204120C44E48204120C44E7820437
:1016D300120C44798304120C44028404120C44B3A4
:1016E3008404120C44B68404120C44548504120C72
:1016F30044D18A04120C44918C04120C44C68C0409
:10170300120C44819004120C44AF9104120C44C691
:101713009204120C44929304120C44B29404120CDB
:1017230044799604120C44E6C403120C44F0C50336
:10173300120C449DC603120C44A7C703120C448029
:10174300C803120C4436C903120C4404CA03120C16
:101753004415CC03120C4416CE03120C4408CF03D9
:10176300120C44E2D103120C443ED303120C444145
:10177300D403120C4420D603120C442ED903120CAA
:10178300444FDB03120C44E8DB03120C440CDD036F
:10179300120C44B0E202120C4415E302120C44761C
:1017A300E302120C4449E502120C44EDE502120C6B
:1017B3004416E602120C440FEA02120C4426EA0213
:1017C300120C4429EB02120C44E6EC02120C44F115
:1017D300ED02120C44A6EE02120C4426EF02120C88
:1017E30044D7EF02120C44C3F102120C44A5F202D7
:1017F300120C440CF402120C441DF602120C44A603
:10180300F802120C4486FA02120C4449FB02120C31
:1018130044C1FB02120C44D8FB02120C44D9FC0253
:10182300120C44BCFD02120C442BFE02120C44A801
:101833008805120C449F8A05120C445E8B05120C1A
:1018430044C28B05120C442B9305120C448193055F
:10185300120C44CA9305120C44F29305120C44185B
:101863009405120C44309405120C44F89405120CA0
:10187300440D9505120C44309605120C4439960517
:10188300120C44CA9804120C444B9605120C44558E
:101893009605120C441BF004120C443EF504120C82
:1018A30044C4A204120C445C7E00120C44D47F0096
:1018B300120C445EAF05120C446EAF05120C447457
:1018C3008405120C44F7BC02120C442ABD02120C0C
:1018D3004496BD02120C4431BE02120C44CEBE0229
:1018E300120C4413BF02120C4435BF02120C444EB7
:1018F300BF02120C4451A104120C4496BF02120CF5
:1019030044D4BF02120C4418C002120C443AC00261
:10191300120C449CC002120C4463C102120C441A00
:10192300C202120C448CC202120C4457C302120CA2
:1019330044AAC302120C4410C402120C444AC40247
:10194300120C449CC402120C440AC502120C4475C6
:10195300C502120C4478C502120C44F9C502120CDC
:101963004490C602120C4410C702120C442FC70243
:10197300120C4493C802120C44A0C802120C44ACCB
:10198300C902120C44B9C902120C44C2C902120C96
:10199300449ACB02120C44B4CC02120C442DCD0257
:1019A300120C449FCD02120C44C1CD02120C4455BB
:1019B300CE02120C4429D002120C4400D402120CA1
:1019C3004414D402120C4424D402120C442ED40224
:1019D300120C4437D402120C4440D402120C444A71
:1019E300D402120C4477D402120C44A0D402120C79
:1019F30044ABD402120C44CFD402120C44F3D402ED
:101A0300120C445DD502120C44A3D502120C44C03F
:101A1300D502120C443DD602120C4474D602120CA9
:101A230044B3D602120C4400D702120C4486D702E8
:101A3300120C4454D902120C44D7D902120C44BBE1
:101A4300DA02120C4422DD02120C447BDD02120C7A
:101A530044C5DD02120C4420DF02120C4455DF02A0
:101A6300120C44A7DF02120C445CE002120C440B7C
:101A7300E102120C4448E102120C44DDE102120CB3
:101A83004449E202120C44F72800120C44292900AD
:101A9300120C44572900120C442D2B00120C440D38
:101AA3002C00120C44652C00120C44A02D00120CC7
:101AB30044EC2D00120C44153100120C4408340080
:101AC300120C44583500120C44EE3500120C44FA43
:101AD3003500120C442C3600120C44AF3700120CA4
:101AE30044603900120C44F43900120C44373A00B4
:101AF300120C44B53A00120C44D23A00120C4402C0
:101B03003B00120C44373B00120C44073C00120C00
:101B130044B03C00120C44363F00120C44564000C3
:101B2300120C44414100120C44C34100120C44F70F
:101B33004500120C44344600120C448C4600120C2F
:101B430044BF4600120C44294700120C445F47006F
:101B5300120C44EA4700120C44424800120C441988
:101B63004900120C44D24900120C446D4A00120C75
:101B730044754D00120C44914E00120C4434520033
:101B8300120C44285300120C442B5300120C445AD9
:101B93005300120C44605500120C44395600120CC9
:101BA300447C5600120C44D25700120C44115800C6
:101BB300120C449A5800120C44CE5800120C449351
:101BC3005900120C44AB5B00120C441C5C00120C59
:101BD300445C5C00120C44EA5C00120C440C5E0092
:101BE300120C44CE5E00120C44D56000120C44ED7E
:101BF3006000120C44016100120C44396100120CA4
:101C030044676100120C44E66200120C440B64004A
:101C1300120C44686400120C441A6500120C44410F
:101C23006500120C44086600120C44A06600120CF6
:101C330044C66800120C44FB6800120C445E690041
:101C4300120C448D6A00120C44356B00120C44666E
:101C53006B00120C447E6B00120C440D6C00120CD2
:101C630044C16E00120C44997000120C44B570000C
:101C7300120C44D17000120C449F7100120C449258
:101C83007500120C44008002120C44328002120CC4
:101C930044218402120C446D8402120C44B3840266
:101CA300120C44558502120C44B18502120C44F601
:101CB3008502120C443D8702120C44518802120C17
:101CC30044408C02120C44C48C02120C44D18D0289
:101CD300120C442D8E02120C441D9002120C4492DD
:101CE3009002120C449C9002120C44A99002120C14
:101CF30044D49002120C44BB9102120C446592022C
:101D0300120C44E39202120C44039302120C442C6F
:101D13009302120C444E9302120C44AE9502120C21
:101D230044749602120C44B99602120C443697027C
:101D3300120C44E79702120C44199802120C445FE8
:101D43009802120C449B9802120C44EB9802120C5A
:101D5300443F9902120C44959902120C44E19902F2
:101D6300120C444E9A02120C44C99A02120C449467
:101D73009C02120C44949D02120C44B99E02120C54
:101D830044F8A102120C440BA502120C44C8A5028C
:101D9300120C440CA602120C44BCA702120C44D031
:101DA300A702120C44DAA702120C44E4A702120C95
:101DB30044F0A702120C440CA802120C44B7A80268
:101DC300120C44F6A802120C4400A902120C440A95
:101DD300A902120C447AA902120C44C5A902120CDE
:101DE30044DAAA02120C4436AB02120C44B7AB021B
:101DF300120C4476AC02120C447FAD02120C44B3B5
:101E0300AE02120C44A1AF02120C44B9AF02120C81
:101E13004414B002120C4432B002120C447AB002E1
:101E2300120C44A1B002120C443CB102120C440245
:101E3300B202120C4494B202120C440EB302120CFE
:101E43004428B402120C44D5B402120C44FDB5026A
:101E5300120C444DB602120C44B1B602120C4413D8
:101E6300B702120C4441B702120C4465B702120CBC
:101E7300449AB702120C44CBB702120C44FEB702C9
:101E8300120C441EB802120C4486B802120C447A97
:101E9300B902120C44D5B902120C44FEB902120C59
:101EA3004486BA02120C4409BB02120C4434BB022E
:101EB300120C4419BC02120C4417CF04120C444FE9
:101EC300CF04120C4470CF04120C44B2CF04120C92
:101ED3004414D004120C441ED004120C442ED0041B
:101EE300120C4469D004120C4449D404120C443635
:101EF300D604120C441CD804120C44B3D804120C9C
:101F03004455D904120C44C9D301120C4447D401DB
:101F1300120C44A3D401120C44EED401120C440954
:101F2300D501120C4434D501120C4451D501120CC5
:101F3300445DD501120C44F4D601120C440DD701B3
:101F4300120C4492D701120C44A5D701120C44C4BD
:101F5300D701120C4468D801120C44E9D901120CC0
:101F6300449CDB01120C4432DC01120C4435DC01CD
:101F7300120C44A5DC01120C44C3DC01120C445ABC
:101F8300DD01120C44A2DD01120C44A5DD01120C8B
:101F9300446BDE01120C44D8DE01120C44FEDE0158
:101FA300120C4489DF01120C44A7DF01120C44ED2B
:101FB300DF01120C44A1E001120C44EBE001120C0E
:101FC300441AE101120C4477E101120C44ACE10123
:101FD300120C44D8E101120C44E6E101120C443323
:101FE300E201120C44A3E201120C44ECE201120CD4
:101FF3004438E301120C4464E301120C446FE3011F
:10200300120C448DE301120C4478E401120C448257
:10201300E401120C44BDE401120C44CDE401120CA2
:1020230044D6E401120C442AE501120C443EE501B6
:10203300120C446DE601120C4482E601120C4410AA
:10204300E701120C4455E701120C44E1E701120CBD
:1020530044ECE701120C442EE901120C4449E90156
:10206300120C4495E901120C4404EA01120C443D9C
:10207300EA01120C4457EA01120C4499EA01120CCA
:102083004469ED01120C4416EE01120C4483EE0177
:10209300120C44C3F001120C44DBF001120C44DEB9
:1020A300F001120C44EAF001120C44FEF001120C90
:1020B3004406F101120C4439F101120C443BF201C4
:1020C300120C44C2F201120C4432F301120C44B458
:1020D300F301120C4475F401120C4494F401120C34
:1020E3004435F501120C4492F501120C4495F501A7
:1020F300120C4409F601120C4458F701120C445E09
:10210300F801120C44E9F801120C4404FA01120C10
:1021130044CCFA01120C44FDFA01120C4420FB01D9
:10212300120C4429FB01120C4458FB01120C44E825
:10213300FB01120C449EFC01120C4413FD01120C12
:1021430044BAFD01120C442FFE01120C4466FE0139
:10215300120C44A4FE01120C4476A204120C448710
:102163009804120C440B9804120C44E99D05120CBC
:1021730044E29C05120C44E0B604120C44ACB404D3
:10218300120C44E2B304120C4435B304120C442B76
:10219300B304120C4417B304120C4443F504120C99
:1021A30044E3A104120C44D5B104120C4464B004FA
:1021B300120C4429A104120C44D5A004120C44F2BD
:1021C300AC04120C44AEA804120C44F8A704120C7D
:1021D3004460A203120C4456A203120C44649E03EF
:1021E300120C44429D03120C44F89C03120C441538
:1021F3009B03120C44709503120C449B9103120C25
:10220300441D9103120C44529003120C44DC8F03BF
:10221300120C440C8F03120C446E8E03120C44C236
:102223008C03120C44EC8B03120C4443A004120CD9
:1022330044B79F04120C442F9F04120C44CC9D04FA
:10224300120C44D89C04120C44469C04120C44FB0C
:102253009B04120C44428B03120C443D8B03120C5F
:1022630044318B03120C44B38503120C44E39B04E7
:10227300120C44818503120C44138503120C44642D
:102283008403120C44AC8303120C4474BF02120C7B
:1022930044628303120C44169904120C44578303BB
:1022A300120C44138103120C446F8003120C442953
:1022B3008003120C44008003120C4484C304120CE8
:1022C3004457C304120C44C9C204120C448FC20401
:1022D300120C44FFBE04120C4457BC04120C443CC1
:1022E300B904120C4417B704120C448EB804120C30
:1022F300440FB804120C4442960500000080FBE42E
:10230300738F000100AB1D87000100A91D35000478
:1023130000721D25000200761D26000200781D278D
:102323000002007A1D28000100841D290001008598
:102333001D84000400FE1A860001001C1D2A0001F2
:1023430000861D2B000100871D2C0001008B1D2D15
:102353000008000A1B2E0001008C1D2F0001008DB8
:102363001D300001008E1D310001008F1D32000160
:1023730000121B33000100131B34000100901D36B3
:10238300000100141B38000100911D390001008A6F
:102393001D83000200A71D63000100201B640001D0
:1023A30000881D65000100891D6D000100211B715E
:1023B300000800021B66000100A61D4300010097F0
:1023C3001D44000200981D450001009A1D460002AD
:1023D300009B1D47000800181B480001009D1D4B72
:1023E3000001009E1D04000100AA1DA1000100AE12
:1023F3001D37000100AD1D88000100AC1D3C00012C
:1024030000151B3D000100921D490002009F1D673E
:10241300000100221B4D000200A11D4E000100A37C
:102423001D4F000200A41D3E000100961D51000136
:1024330000161B52000100941D53000100951D540A
:10244300000100171B0000000000000001363601E8
:102453000100010201000103010001040106060558
:10246300020000070100340801000F090401010DF7
:102473000100FF0E08000017020000190100FF1AF7
:102483000100011B0100FE1C0100081D0200001FCA
:1024930001000120010001210200002301000F249B
:1024A3000200002601000127010008280200FF2A7C
:1024B3000100072B0102402C0100002D0100012E19
:1024C3000100012F0100FF30010B1D310800003A0C
:1024D3000100083B01000F3C0100013D0100FF3EEC
:1024E30004000042040000460400004A0400004EB9
:1024F30004000052040000560400005A04000001C6
:102503000371030103010301030103010322030216
:10251300030103100300030003000300030003008F
:102523000300034203000324030603000300030420
:1025330003120325032303250323030403040300D6
:1025430003000300034403000300032303000365A4
:102553000321003503810300030503000300030087
:1025630003000325032303000000002001FB860072
:102573000001002001FC86000002002001FE86000D
:102583000003002001FF86000004004201C586000D
:1025930000050042015886000006004201E0850064
:1025A3000007003001FA86000000404201E0850088
:1025B30000FDFF2101F886010020002005241D01F4
:1025C3000021002005251D14000E00422376190367
:1025D3000271023001600211027002010202020262
:1025E300028002100261023A004100630273027228
:1025F30002620243020002130238000002000204D6
:102603000212020002000200020002040204023766
:102613000037003C02440200023900000200026558
:1026230002000235028102000205028202830200D7
:1026330002010171010101010111010101310101D6
:102643000101018001100161013B0014006301736A
:10265300017201620143010001130106013D0135CD
:102663000004011201000100010001000104010442
:1026730001330133013C0144013201360000010002
:10268300016501000135008101000105018201831B
:10269300010001030071003001600011007000317E
:1026A3000220035004800010006100000014006346
:1026B3000073007200620043000000130006000074
:1026C30000000004001200000000000000000004ED
:1026D300000400370037003C024400000000000003
:1026E30000000065000000350081000000050000C7
:1026F300008300000036000100060000000F000008
:10270300000000000000000000000003FFFF0000C5
:102713000403FFFF0000FFFF0FF4010005C40403DF
:1027230020000100000B0000000000000000030176
:102733000F00000000000000000000000000000087
:102743000000000000000000000000000000000086
:10275300000000591583155F15F914651589156572
:102763001595156B15F914651589157115F914006F
:102773000000007715F91400000000000000007D40
:1027830015F9140000000000000000000000000024
:102793000000000000000000000000000000000036
:1027A3000000000000000000000000000000000026
:1027B300004B1701004B170200CD160280C716030A
:1027C30000D3160400D9160480DF160500E51606AB
:1027D30000EB163100FD163300031734000917FF11
:1027E300FF0000030003000400080010001F003E68
:1027F300007B00F600EC01D703AF075D0FB91E7134
:102803003D000007ECFDFDFDECDCDCCCBCACAC9C7E
:102813009C8C7C7C6C6C5C5C5C4C4C3C3C2C2C1C25
:102823001C03EAF5E5D5D5C5B5A5959585857575DB
:10283300656555554545353525251515050AFD1C91
:1028430002C71C05D31C07CD1C0CAF1C0DBB1CFF02
:10285300000000160F00000B150B020002220F33BD
:1028630000000E0F5A6967426565416C6C69616EC1
:1028730063653039D0D1D2D3D4D5D6D7D8D9DADB22
:10288300DCDDDEDF303016181920231A1C1E300061
:10289300034D4C4651181A25050200011916181646
:1028A3001618230300303017181921301B1D1F3051
:1028B300003C40423A3F3F392F47300C0E020B0495
:1028C3000B0A0708000F020402010101010902E8D3
:1028D30003000000BE040A01000E000300E803FF2A
:1028E30004090D031004030A0C041E0828020C0536
:1028F30008151E04C082C083122165901B4B749F70
:10290300F0A3741AF0901B4D74A5F0A3741AF09001
:102913001B4F74ABF0A3741AF0901B5174B1F0A366
:10292300741AF002563274F7120809901B3FE4F050
:10293300E9901B3EF07C187D1B7A407B1B1214DB55
:10294300901D9DE0901B48F0901B497402F0A37406
:102953001B0238BF74F0120809EAFEEBFF548070C3
:1029630003022AC8901B3E1239547003022AC1EA9B
:10297300241B1251BF707CEA241F1251BF641370D1
:1029830002A3E0706E8A828B83122B16901B59125E
:102993004751750A00750B00800D12379512683187
:1029A300121439AA0EAB0FEA4B60488A828B83E07C
:1029B300650C7004A3E0650D702C8A828B83A3A33E
:1029C300A3A3E0F50EA3E0F50FE50A450B8A828B7E
:1029D30083A3A3A3A360C3123A97850A82850B83BB
:1029E300A3A3A3A380B78A0A8B0B8A828B83124784
:1029F3004D80B4E508242A1251BFFCE5082402F8EF
:102A0300E43509F9E8FAE9FB901B59122BFDA3A35E
:102A1300E06402703C8A828B83124751800B888268
:102A23008983A3A3A3A3123A97E849601F888289E5
:102A330083E06A7003A3E06B70E488828983A3A3B5
:102A4300E06C70DA901DA31254EF806BECF9121A4C
:102A5300DB850882850983E06401704FE50824184B
:102A6300122AFF120C9B125DD9120AE8E508241200
:102A7300122AFF120C9BE508123948120C97E5083D
:102A8300240B125DDD120AECE50824171238E5E584
:102A9300082402FCE43509FDE5082419FAE43509A4
:102AA300FB1222DF740A120C74800CE064027007BC
:102AB300AA08AB09121BB9AA08AB091213AFEEFAA5
:102AC300EF6480802DEA5402600C901DBA7401F00B
:102AD300EA6402FA8023EA5408601A121AD5EA4B10
:102AE300700B901B5B125CB47A08122B0CEE64081B
:102AF300FAEFFB80047A007B00026463F582E4351D
:102B030009F583E0F50A780A22FB901B3EE0F912EF
:102B130014B122A3A3E0F50CA3E0F50D227B0090F2
:102B23001B3EE0F91214A574042274F41208098AF6
:102B3300088B098A828B83A3A3A31245491238F019
:102B430038F583E02409FA1263FB7003022BF08A41
:102B5300828B8374021245BE850882850983122BFA
:102B6300FDE8F0A3E91260758A828B83A3A3A3A374
:102B7300A3A3A3A3F0E5082403F8E43509122BF279
:102B83001238F03AF583E08E828B83A3A3A3A3F0DC
:102B9300EE2409FAE43FFB8E828F83A3A31257A18D
:102BA300F5838882E0A2E58E828F83A3A3A3A3A3E8
:102BB300500474018001E4F0E5082403F58289835D
:102BC300124751EA124CD23BF5831263C2120C93A3
:102BD3001238EF3B1258938E828F83A3A312757121
:102BE300120C74EEFAEFFB901B3E1264488016F948
:102BF3008882F583E0FAA3E0CA221248EEA3A32257
:102C03007402120C747F04020A1D74F21208098AFA
:102C1300088B09ECFAEDFB740E120F94E0FC122200
:102C2300438A0C8B0DAE0CAF0DEA4F6030AC08AD90
:102C33000912224FE96026AC08AD09EEFAEFFB1248
:102C43002249E970148E828F83123A84FAEFFB12C1
:102C5300226DAA08AB0912222B7900800279B402F3
:102C6300483D74F012080974F6120D27EAFEEBFFD3
:102C73008C088D09750FB3852182852283E4F07555
:102C83000E008002050E9028F6E493F8E50EC39833
:102C93004003022D8CAA0E7B001221598A0A8B0B4A
:102CA300EA4B60E08A828B83A3A3122D9328F0F86A
:102CB300C3EE98EF940050CC7C157D007900AA08F0
:102CC300AB09121397850A82850B83A3A3A3A312CF
:102CD300686EE0F8EEC3982925E0F8E433F9E50AD5
:102CE30028F582E50B39F583A3A3A3A3A3A3123885
:102CF300FAA31253168A0C8B0DAC0CAD0DAA08ABBC
:102D0300091214DB850A82850B83A3E06401700A30
:102D1300125DD9740112390C80447401120D0785B8
:102D23000A82850B8312474F1221B9E9603D74096A
:102D3300120F94E0C0E0125DD9D0E0F07409120FD5
:102D430094E0640370137401120D07E508240BFA71
:102D5300E43509FB1214DB80127401120F94123A4A
:102D630097E5081252FC350912682F850A82850BF4
:102D730083125DE512390CA3A3E0C0E0E508241437
:102D8300125DDDD0E0F0750F00A90F740A026460D4
:102D9300A3A3A3E0F8852182852283E02274F7129E
:102DA3000809E9FE8A828B83A3A3A3A3A3A3E05408
:102DB3000860338A828B83A3A3A3A3A3A3E0540253
:102DC30060218A828B83A3A3A3A3A3A3A3A3A3E0CA
:102DD3006406600F74E96E600A74CD6E600574F06A
:102DE3006E7003121ABD02413C74F012080974EFAD
:102DF300120D27740F120F94125B987408120F941C
:102E0300E9F0ECFEEDFF7405120F94123F0412413A
:102E130028A3E0F91222377406120F94125B9874F8
:102E230006120F94124D6370030230A7123934E077
:102E3300FA7406120F94E0F91219FD123107F8A380
:102E4300E0F9E84970030230A7EE2403F50AE43FF2
:102E5300F50BEE2406F508E43FF5097C00850882AE
:102E6300F583124751850A82850B83E0F9122231DB
:102E73007403120F94125B98850A82850B83E0C05A
:102E8300E0852182852283123100D0E0124E78F949
:102E930085218285228312379C1249CA122D96FA04
:102EA300A3E0CA2407F582E43AF583E8F0A3E41229
:102EB3005BA32406F582E438F583E412683B1245EC
:102EC3003D120C93EE1238F03F1258937403120F15
:102ED30094124549240912756B120C747429120F4C
:102EE30094126868122BF7124E8B3A12682F742BC8
:102EF300120F94E0C0E0852182852283124D2AD0EF
:102F0300E0F07402120F94E4F07425120F94780821
:102F1300120F1F022FFE7403120F9412585B888244
:102F2300F5831230EFA3A3A3125321FB1221B38520
:102F33000E82850F83A3EAF0A3EBF07403120F94C0
:102F4300123100A31230EF125530A2E6500F850E56
:102F530082850F83A3A3A3A3A3E0D2E1F074051298
:102F63000F94E0706B850E82850F83A3123A9790BE
:102F73001B99E0687003A3E0697055850E82850F85
:102F830083A3A3A31238CF750C00780C120C9B7883
:102F930008120C8F7429120F94E0F50C780C120CA4
:102FA3009B7427120F94120AEC901BA6120AEC7959
:102FB300007419120F94124721121C01740A120C87
:102FC30074850E82850F83A3A3A3A3A3E04405F016
:102FD3007402120F94E004FC8E828F8312474B8E8F
:102FE300828F83A3A3A3E0F91222317403120F94F7
:102FF300125B987402120F94E004F07403120F949E
:10300300124D6360677402120F94E0FA7406120F94
:1030130094123A97C3EA98E49950517402120F94A8
:103023001233D9852182852283E028F8A3E039F978
:10303300E8240FF50EE439F50F850E82F583E4F0ED
:103043007403120F941230FA64016003022F19748F
:1030530005120F94740112644EF07403120F94124C
:1030630056221233FCE8F0A3E9022F3D8521828525
:103073002283124751121A03852182852283120A61
:10308300EC7426120F94E0FD7425120F94E0FC7487
:103093000A120F94E0F9EEFAEFFB121AB774021258
:1030A3000C7480438E828F83A3A3A3E0C0E0740CCF
:1030B300120F94D0E0F01262B7E0C0E0740D120F6B
:1030C30094D0E0F07406120F94124D637009740EDD
:1030D300120F9474B98007740E120F947410F07465
:1030E30009120CFF121BFB7411026460E0850E824F
:1030F300850F83A3A3A322E0124E50E022E0124ED9
:1031030050A3A322852182852283EAF0A3EB124DEB
:103113006C2274F012080974E1120D277404120F63
:1031230094E9F07403120F94ECF07402120F94ED0F
:10313300F08A0E8B0F742F120F94122B18AA0CFB0C
:103143001219F17401120F94E9F0AA0CAB0D1219C4
:10315300F77401120F94E070030233D48521828542
:103163002283E480158E828F83A3A3A3A3A3E0D23B
:10317300E3F0852182852283E0041263A6F885218A
:1031830082852283E0C39840030233CB7401120F7C
:1031930094E070030233CB8521828522831233D9D5
:1031A300E50C28F8E50D39F9E8240FFEE439FF8E24
:1031B30082F583A3A3A3A3A3E0A2E040B57508000F
:1031C300750A08750B007402120F94E0600375080A
:1031D300207C087D0079007405120CFF1213978E72
:1031E300828F83E0603E901BE9E06401701AE5087A
:1031F300D2E3F508750B101233E9120F94E8F0A32C
:10320300E912521474FF807643080C750A0C8E82FF
:103213008F83A31233F41268317405120F9474FF71
:10322300F0A3805A7404120F94E06009E508D2E613
:10323300F508750A0A8E828F83A3E064FE7003A3E8
:10324300E0F470307412120F947404125E03F87475
:103253001D120F94E81245BE7412120CFF12191FAF
:103263007D007C0079007415120F94AA82AB83123F
:103273001733800B1233E9120F94E8F0A3E9F074CB
:1032830007120F94E508F012392BC0E07409120FEE
:1032930094D0E0F0740A120F947401F07405120CC8
:1032A300FF121BBF7411120F94E060030233A97461
:1032B3000D120F94124E738E828F83A3A3A3A3F0D8
:1032C300740D120F9412458CE50AF0A3E50BF0740C
:1032D30003120F94E0C0E012451DD0E01255306098
:1032E30011901BE9E0C0E0740D120F94124567D0F2
:1032F300E0F0740D120F94123A97850C82850D83BA
:10330300A3A3A3A3A31233E2241C125B9212684B60
:103313001233E41254E2391262D6C0E0124504D0EB
:10332300E012639BC0E0740D120F9412404AD0E088
:1033330012609CC0E0740D120F94124040D0E0F074
:10334300740D120F941233F41233E2242A125B9297
:10335300850E82850F83A3A3A3A3A3A3A3A3E01234
:103363005B8B12391AC0E012402CD0E0F0740D12BE
:103373000F94124751850E82850F831263B124285F
:10338300F582E43B12682F1239231263C2120C93A5
:1033930012588CEA125B243B12756F120C7474057D
:1033A300120CFF121BC58E828F83A3A3A3A3A3E0DA
:1033B300D2E0F07411120F94E060030231687401DB
:1033C300120F94E0140231747900AA0CAB0D121A97
:1033D300C3741F026460E075F007A4F8A9F022A388
:1033E300A3124755E8228E828F83A3123A9B74055A
:1033F30022E01233FCA3A3A322F8A3E0F9850E82F3
:10340300850F83A32274F012080974E8120D27E9CB
:10341300852182852283F08A0E8B0F8A828B83A378
:10342300A3A3A3A3A3A3A3E0F9121A1B8A088B09DE
:10343300EA4B70030234E5E50E124CE612394312EF
:1034430038DA852182852283E060030234E87C0434
:10345300850E82850F83A3A3A3A3A3A3A3A3E0F94C
:10346300121A21EE4F607B8E828F83A3A3A3A31234
:103473003A977407120F94125CC9123A977409129F
:103483000F941245EEC0E07411120F94D0E0126055
:103493007AA3A3A3A3A3A3A3123A97740F120F941F
:1034A3001268317412120F94E4126456C8241FF583
:1034B30082E438F583125857C413135403FC700283
:1034C3007C048E828F83E0F97808120C977420595C
:1034D300FD744059F97403120CFF121AB7740212E7
:1034E3000C7402645E7C08850E82850F83A3A3A3FC
:1034F300A3A3A3A3A3E0F9121A218B0BEA4B700336
:10350300023466EE4F60DB852182852283E0F50C71
:10351300780C120C9B850882850983A3A3A3A3A31C
:10352300A3A3E0F50C780C120C9B8A828B83A3A3D4
:10353300A3E0FB8A82850B8312708E8A82850B83BC
:10354300E0FA8E828F83A3A3E0F91222EB740212B6
:103553000C7402346A74F712080974FA120D27E91D
:10356300FE780179017F00800379000F1248CDE0D6
:10357300FCEFC39C5026EF75F007A4FC85F008AD63
:1035830008EA2CFCEB3DFD123EBCE0A2E050DA540D
:103593000C60D6E0A2E250D3780080CF8A828B837E
:1035A300A3A3A3A3A3A3E0703DE9A2E04005740194
:1035B3006E70338A828B83A3A3A3A3A3A374011284
:1035C30038ACE0C0E07403120F94D0E0123F1BE06C
:1035D300C0E07404120F94D0E0F07405120F94E865
:1035E3001257F6121BFB7406024139C082C083795D
:1035F30001121AC302563274F4120809EA4B901DE1
:10360300BA6019E4F08A088B09F50AF50B780812F9
:103613000C8F7A02122B20120C74800A7401F07A38
:10362300027B00122B0D022C0874F012080974F3AC
:10363300120D277403120F94E4F0A3F0901B591298
:1036430038DA7401120F94E4F0A31245C304F09026
:103653001B93E0A2E3500302371F1238A074091230
:103663000F94120F597409120F947808120F1F90B8
:103673001B5B7808120D0F7405120F947808120F54
:103683002E1237A37405120F947808120EE1500717
:103693007A017B000237907405120F94780C120F95
:1036A3001F901DA2E0F509780C790812079AA80C5F
:1036B300A90D901DA3E0C398E4995003E08001E8AD
:1036C300852182852283F07409120F947808120FE2
:1036D3001FC008C009C00AC00B7405120F94780CF0
:1036E300120F1F1237A3780C790812079AE4F50A10
:1036F300F50BD00FD00ED00DD00C780C7908120D2D
:10370300E2901B5B780C120F2E8011123795126812
:1037130031EEFAEFFB121439AE08AF09EE4F6065D4
:103723008E828F83122D93C398502DEE2403F8E4D9
:103733003FF9E0FA88828983E0C39AF06023740337
:10374300120F94123BFD7401120F94EEF0A3EF12CB
:103753005CE4FEA3E0FF80C48E828F83A3A3A3E473
:10376300F08E828F831275287401120F94124D63A9
:103773008E828F83A3A3A3A36091125CBD120F94C7
:1037830012379C80897403120F94124751740D02EF
:103793006460123A9B901B5922125882A3A3A3225E
:1037A300901DA1127530E4F50AF50B2274F012088E
:1037B300098A088B09890A78007900901B59123805
:1037C300DAFBEE4B601E088E828F83A3A3A3A312A2
:1037D300471B601008E87001098E828F831238D668
:1037E300EA4F70E3901DA4124751C3E89AE99B4046
:1037F300030238937A06123896A80CA90DEA497089
:10380300030238938A828B83E508F0A3E509123813
:10381300B5E50AF0901DA31248D51238ACA3E4F025
:10382300A3F0901B5912471B600D8E828F83A3A3B5
:10383300A3A31268318017901B59126831901B9310
:10384300E0A2E340091238A0901B5B120F59901BB2
:1038530093E0A2E3503A7A087B00901B3EE0F91212
:1038630014B7EA4B4C4D7028901DA1E0F508A3E076
:1038730085080CF50DE4F50EF50F780C120C8F7A14
:10388300087B00901B3EE0F91214AB7404120C7415
:103893000264637B001214338A0C8B0D221214C34F
:1038A300EAF8EBF9ECFAEDFB221238B0221238B544
:1038B300A322F08A828B83A3A322E508F002413C72
:1038C300F08E828F83A3A3A3A3A3A3221251CDA31C
:1038D300A3F022A3A3A3A3E0FEA3E0FF227F05029C
:1038E3000A1DF582E43509F583E0F922EA1238F47A
:1038F300222410F582E422123902A3A3A3A32212E5
:103903003A9F8508828509832212391022F0850A9D
:1039130082850B83A3A322E50E2411123940E022F2
:10392300E50E240E12394022E50E2410123940E030
:103933002212393822EE1238F43FF58322F582E45D
:10394300350FF58322240FF50AE43509F50B780AC0
:1039530022E0F91213BB8A088B09EA4B2274F21294
:103963000809890B8A088B098A828B8312475112B3
:103973001AE7EA4B600479B8806A121AF3E9F890FF
:1039830028E7E493F9E8C399400479B280567A159D
:10399300123896AE0CAF0DEA4F7004791080458A49
:1039A300828B83E4F0A31238B5E50BF0750A007837
:1039B30008120C937C127D00EA240312636D120C2F
:1039C30074901B5F124D637008901B5F800C123A5A
:1039D30097888289831239EA70F4EEF0A3EFF0122C
:1039E3001B05790002483D124755EA4B88828983BB
:1039F30022C082C083901B5F80048C828D831270EF
:103A03008FEC4D60288C828D83A3A3E069600574DD
:103A1300FF6970E68C828D83A3A3A3E06A7003A37E
:103A2300E06B70D6EC2403FAE43DFB80047A007B60
:103A33000002563274F7120809E9FD74FE6D700432
:103A43007C0180027C00901B5F80096D70027C0109
:103A530088828983124D63601F88828983A3A3A30D
:103A6300E06A7003A3E06B70E7ECA2E088828983CD
:103A7300A3A3E050D6F9800279FE02413CEEF9801F
:103A83000CA3A3127530EE227402120C747F02028F
:103A93000A1DF583123A9B22123A9F22E0F8A3E013
:103AA300F922123A9F8E828F8322120C747F0302B3
:103AB3000A1DC082C0837900901B5F800109E0FA70
:103AC300A3E08A82F583E582458370F1025632745E
:103AD300F6120809E4F508F5097808120C979028FE
:103AE300E7E49375F013A4A9F0123BF212688F1266
:103AF3000C74E9FE74096E7003121AFF023A8074A3
:103B0300F612080974FE120D27852182852283E4AB
:103B1300F0A3F0A821A922880889097808120C9734
:103B23007508027509007808120C97126500120CCB
:103B330074023A8B74F512080974EB120D27852170
:103B430082852283E4F0A3F0901B5F80748E828FC2
:103B530083A3A3E0C0E07402120F94D0E0125214C6
:103B6300A982AA8389088A09750A007808120C9326
:103B73007C127D007406120F94126854120C747434
:103B830002120CF7880889097808120C9775081334
:103B93007509007808120C977404120F94124D06DD
:103BA30075F013A4F8AAF075F013E9123BEE126551
:103BB30008120C74852182852283123BFD8E828F2D
:103BC300831238DAEE4F7085A821A9228808890963
:103BD3007808120C977508027509007808120C977B
:103BE300126500120C747415023AADA42AF9E82484
:103BF30002FCE439FD7A427B0022E02401F0A3E0D9
:103C03003400F02274F412080974EB120D277E00BD
:103C13007F00A821A922880889097808120C9775C2
:103C230008028E097808120C977C007D007A4212F4
:103C3300689B120C74E9706C8E0880567402120C27
:103C4300F7880A890B780A120C97750A13750B000B
:103C5300780A120C97E50875F013A4F8AAF075F02A
:103C630013E509123BEE12689D120C74E9701B7484
:103C730003120F94AA82AB837402120F94E0F91219
:103C83001AE1E970050EEE70010F0508E5087002F0
:103C93000509852182852283123A97C3E50898E5B1
:103CA30009994098EEFAEFFB7415022C0574F6128D
:103CB30008098C828D83A3A3123F09F0EA125B2AC1
:103CC3003BF583E0C0E0123EC6D0E0F0EA241DF5E8
:103CD30082E43B123A95123EAA123F04F0A3F0EAA3
:103CE300241FF582E43BF5831238DAEC123E9D3D46
:103CF300F583EEF0A3EFF0123EA33BF583123ED41F
:103D0300A3A3A3A3A3A3EEF0A3EF125785FE8C8274
:103D13008D83123F1374035EFEC394034003023E7C
:103D230090EE600874026E6003023DB58C828D8351
:103D3300E0540CFE740C6E7003023DF4E0A2E44008
:103D43000D88828983E08C828D83A3123F297408B6
:103D53006E6003023DF4123EB47401F08A828B83D9
:103D6300A3A3A3A3A31251DA70148C828D83E0441E
:103D73000C123F1BA3A3123ED4EEF0A3EFF08C82F0
:103D83008D83E0A2E4402B8882123EE2123EF7507C
:103D93000109F582123EE2A3A3A3A3A3A3F0A3EF19
:103DA300123F238C828D83A3A3A3F0E82403F8504E
:103DB300010988828983E0C0E0EC2411F582E43DA7
:103DC300F583D0E0123F138C828D83E0A2E7507518
:103DD30088828983E0FE8C828D83123F2974FC5E86
:103DE300700C8C828D83A3E054036403701E023E27
:103DF30090123EB4E4F0740C6E6003023D5F88825F
:103E0300123EE8123EF7500109023D818C828D83F8
:103E1300A3E05403603288828983E0C0E0EC123E61
:103E2300CE3DF583D0E0123F2A8C828D83E054038C
:103E33006402701488828983E0C0E0123EBCD0E043
:103E4300123F2A8003A3E4F0EC124CD23D12682FF8
:103E5300EC2410FEE43DFFEA241DF582E43BF583E8
:103E6300E0F5088E828F83E0C3982508F508F0EA11
:103E73002417F8E43BF98882F583E0C39508C0E092
:103E8300123EAAD0E0125785C39508500A123EAAE3
:103E9300E4F0123EC6E4F0023A902415F582E422DF
:103EA300EA240DF582E422EC240DF582E43DF5834A
:103EB30022EC124E8B3DF58322EC2414F582E43D73
:103EC300F58322EC1238F43DF583222413F582E4C2
:103ED30022E0FEA3E0FF8C828D83A3A3A3A322127F
:103EE3003EE8A3A3228983E0F508A3E0FFE5088C5D
:103EF300828D8322A3A3A3A3F0A3EFF0E82402F807
:103F030022123F09A322E4F08C828D83A3A3A32270
:103F1300123F31A882A983221238B0A3A3A3A322FC
:103F2300123F31A3E022A3123F3108A98322125783
:103F33008EA32274F412080974F3120D278A0A8BD4
:103F43000BECFEEDFF8C82F583E0540CF508E0A248
:103F5300E75006E508D2E7F508E508D2E1F50812CF
:103F630051DA7006E508D2E4F508E0A2E55006E56B
:103F730008D2E5F5087C087D007900AA21AB22125E
:103F830013977402120F94E508126835C0E07403A6
:103F9300120F94D0E01245C3E50AF0A3E50BF074C9
:103FA30005120F941260A1120F94E0707774081237
:103FB3000F94124549125777381260BCC0E0740859
:103FC300120F9412404AD0E012609CC0E0740812B1
:103FD3000F94124040D0E0F07408120F9412403650
:103FE300E01245711245F2125B8BEE24111251A6B9
:103FF300C0E012402CD0E0F0EE24141251A6C0E031
:104003007408120F941245492435F582E438F58378
:10401300D0E0124596C0E07408120F9412454DD0BB
:10402300E0125DF5740D022C05E82432F582E439C3
:10403300F58322123AA5A3A3A3A3A3A32212455D4A
:1040430012629B38F5832212455D2426F582E438FB
:10405300F5832274F71208097E008A828B83A3A357
:10406300A3A3A3A3A3A3A3E06404600302411812C0
:104073004E83E06003024118124CE53B124D617020
:104083000302411888828983E054036003024118C4
:10409300E8124E8B39F583E0FA8C828D83A3A3E07B
:1040A300FBA3E0CB2411F582E43BF583E06A706562
:1040B30088828983A3A3A3A3A3A3A3A3A312411CBD
:1040C300E06A7003A3E06B704C88828983A3A31218
:1040D3004128E0FFA3E0CF24061251A66A7003A390
:1040E300E06B703188828983A3A3E0F88C828D838F
:1040F300A3A3E0F9A3E0F5838982A3A3E068601397
:104103008C828D83A3A3A3E0F5838982E0540C649E
:104113000470027E01EEF9802012412022124759D9
:104123008C828D8322A3A3124120A3A322740C1299
:104133000F94E0F9740D120C747F01020A1D74F6DA
:1041430012080974FC120D27EAFEEBFFECFAEDFBF3
:104153008C82F583A3E054036016901B55124D63C4
:1041630060597900EEFCEFFD125982122302804B55
:10417300852182852283EEF0A3EFF07402120F945F
:104183001245B8AC21AD227A1D7B1B121D458A084E
:104193008B09A808A909EA4960218A828B83A3A312
:1041A300A3A3A3A3A3A3A37406F07A0088828B839B
:1041B300124549125B4BE0F9121CA37404023A8DB9
:1041C30074F212080974F3120D27EAFEEBFF8A82D8
:1041D300F583A3A3A3A3A3A3A3A3A3A3E0F50A9097
:1041E3001DBAE0700579BA02450175080175090029
:1041F300750C00750D007C087D007900AA21AB22A7
:104203001213977405120F9474011245CB54046072
:10421300127402120F94E0D2E61245CB54087003D5
:10422300750803E05410600674404508F508E0542F
:104233000860227402120F94E044C01245CB54204C
:10424300600A7403120F94E0D2E080087403120F23
:1042530094E0D2E1F0EE24151251A6124531700319
:10426300740169700674084508F5088E828F83A36C
:10427300A3A3A3A3A3A3A3E07016121D9F8521826A
:10428300852283125B987402120F94E0D2E280308D
:10429300640F70107402120F941245D3740445080E
:1042A300F508807F8E828F83A3A3A3A3A3A3A3A3D5
:1042B300E064028E828F83700A126868E8F0A3E9D3
:1042C300F08060A3A3A3A3A3A3A3A3E06403700D3F
:1042D300AC21AD22EEFAEFFB121B5380468E828F88
:1042E30083A3A3A3A3A3A3A3A3E064017035901B9B
:1042F300E9E060107402120F941245D3750910752A
:104303000AFF80187402120F94E0440C1245C37420
:10431300FDF0A374FFF074044508F5088E828F83C3
:10432300122B18EE24151251A6A2E0503F7402126C
:104333000F94E0540C701B8E828F83124751121717
:10434300C9E9700579BB0245017402120F94E0D2EA
:10435300E5F0EE24151251A6A2E050107402120FDC
:1043630094E0540C64047004E0D2E5F0EE241112DE
:1043730051A6C0E07404120F94D0E01260A3120F90
:1043830094E060030244FA7408120F9412458CE51A
:1043930008F0A3E509F0124527E0C0E012451DD05F
:1043A300E0F012450EE0C0E07408120F9412454984
:1043B300123ECE38F583D0E01245F26401701190BD
:1043C3001BE9E0C0E07408120F94124567D0E0F0D7
:1043D3007408120F94124587124518FAE8241CF545
:1043E30082E439F583EA1245BEEE2415FAE43FFB75
:1043F3008A82F58312708FE81254E239F5831245ED
:10440300B8EE241C1251A6C0E0124504D0E01256A7
:1044130028124531700374016970137408120F94E4
:10442300124E73FAEE241D1251A6F9121A278E8228
:104433008F83A3A3A3A3A3A3A3A3A3E0C0E07408B0
:10444300120F9412404AD0E0F07408120F941240F5
:1044530040E50AF07408120F94124D062428F582E1
:10446300E439F583E50CF0A3E50D12459E12457181
:1044730012521F125B8BEE124518C0E0E82433F58D
:1044830082E439F583D0E0F0EE241B1251A6C0E09C
:104493007408120F9412454DD0E0F0EE241A125115
:1044A300A6C0E07408120F941245492432F582E441
:1044B30038F583D0E012459612453D120C931262F3
:1044C300A112708F740B120F94124549242F127589
:1044D3006B120C74EE24151251A654406012901BFB
:1044E30075124D63600AAA21AB221259821223026C
:1044F300AA21AB22121BC5740C120F94E0F90248D7
:1045030038E82420F582E439F58322EE2419F58274
:10451300E43FF583221262B0E022E82412F582E43C
:1045230039F58322EE2418F582E43FF58322548083
:10453300F8A3E05401F974806822F508A3E0F509B3
:10454300750A0078082212455D2212455D2434F570
:1045530082E438F58322A3A3A3A312456122E0F8E2
:10456300A3E0C82212455D123E9D38F58322FAA3CB
:10457300E0FBE8242AF582E439F583EAF0A3EB2291
:10458300A3A3A3A3123A9BEE22124D0A124CEA39BB
:10459300F58322F0EE241312522722F0EE240D129B
:1045A300522722E0FC8A828B83E02CFCA3E03400B8
:1045B300FD8A828B83ECF0A3EDF022F0A3E4F022DA
:1045C300F085218285228322F0EE241512522722C0
:1045D300E0D2E3F01245DB228E828F83123A9F856D
:1045E3002182852283E8F0A3E9F022E8F0A3E9120F
:1045F3005CDEE02274F71208098A828B83A3E064ED
:104603000170047E6380027E648A828B83E060088B
:10461300790512462B24F3FE901B91E06007F912F3
:10462300462B24F2FE024118121C6DE9F8EEC398E2
:104633002274F612080974FE120D27852182852241
:1046430083125B98E9FEECFAEDFB900530124D63A3
:104653006032A821A922880889097808120C977D5D
:1046630001740E120F94E0FCEEF9900530125B6CAE
:104673001223027402120C74EA4B60047900800660
:1046830079B2800279B6023A8B74F7120809E9FE0F
:10469300901B4B124D63601F7409120F94E0F508D1
:1046A3007808120C9BEEF9901B4B125B6C122302E1
:1046B3007401120C74800279B602413C74F712083B
:1046C300098908ECFEEDFF79B5E508245E60201446
:1046D300600624F86034803D90053212471B603534
:1046E3001268AC1223028E828F83125B988024900F
:1046F3001B4D12708FEC4D601CEEFCEFFD901B4DBB
:10470300125B6C122302E9F9800B901B49124721BB
:104713001214DB790002413C124755EA4B22127016
:1047230093EEFAEFFB2274F7120809E9FE79B574E8
:10473300AB6E700B901B491247511214DB790002C8
:10474300413C8E828F83A3A3A3A3A3A3A3A3124756
:10475300552212475922E0FAA3E0FB2274F1120812
:1047630009EAFEEBFF8C0A8D0B750801901B99E09B
:104773006E7003A3E06F700C12482CAA0AAB0B12E5
:1047830014DB805E121DA5EE6A7002EF6B7009AA3E
:104793000AAB0B121DAB804AAC0AAD0BEEFAEFFB72
:1047A3001218FBE9F508901DA9E0703612225BE9A7
:1047B3007030E508702C901B69E06E7003A3E06F06
:1047C3007020EE4F601C750C61750D1B750E007823
:1047D3000C120C937C087D00AA0AAB0B12685812CA
:1047E3000C74A90802718B74F2120809EAFEEBFF3C
:1047F3008C088D09750A0112482CEEFAEFFB12148E
:10480300D5E964017011901B99123A978508828546
:104813000983126831800EAC08AD09EEFAEFFB1282
:104823001901E9F50AA90A8011121D998A0C8B0D49
:10483300AC0CAD0D22740D120C747F06020A1D74AC
:10484300F6120809EAFEEBFF7A0D7B00121433EA35
:104853004B6062EE2424126535F0EE242512653593
:10486300A31248FA12653BA3A31262CE1248D5F0F5
:10487300EE1248BB1248EAE8F0A3E91249111248C4
:10488300E2126831EE1248C4126391A3A3A3A3F00A
:10489300EE24331251A6C0E01248CDD0E01260C01E
:1048A3001248E2A3A3A3E8F0A3E9124909C0E01266
:1048B3004E83D0E0F0023A90242AF582E43FF58358
:1048C30022242EF582E43FF58322EA1252FC3BF5C3
:1048D30083221248D922E08A828B83A3A3A32212C4
:1048E30063F0A3A3A3A3221248EE22123A9F8A8263
:1048F3008B83A3A3A3A322F01248FF22EE2426F561
:1049030082E43FF58322F0EE243212522722F0EEA6
:10491300242C1252272274F412080974FE120D2754
:10492300ECFEEDFFEC24161251A664057010EC2486
:1049330006FCE43FFD121B4DE970030249C5AC219F
:10494300AD221265EA1217CF852182852283124D8B
:1049530063606B8E828F83E064017058E875F009A1
:10496300A4F8AAF075F009E9A42AF974C228F87426
:104973000839F9E8FAE9FB8882F5837808120F1FF2
:10498300EE124A67120EE1402785218285228312A7
:1049930045871251B41249CA7808120F1F9086E254
:1049A3007808120E1C8A828B837808120F2E800AD5
:1049B30079A28010EE240F12682B7900800679A16A
:1049C300800279C8022C031245E8EE1262BC2274FD
:1049D300F21208098A0C8B0DECFEEDFFEC1251B4B8
:1049E300E4F0A3F09086F27808120F1FEC124A67E6
:1049F300120D536067EC240E1251AD703478B390EE
:104A03001B90E07028901BC2E064017020EC24111D
:104A13001251A6F9121C558B09A909EE124CE63F57
:104A2300125B96EA4960047800800278A1880880C6
:104A33002EE060046402700A121B5FE9F508700738
:104A4300801DE064037010EEFCEFFDAA0CAB0D12A9
:104A530017F3E9F50880087508A180037508A3A971
:104A63000802483D1262BC78082274F012080974E7
:104A7300F5120D27EAFEEBFFEA240AFCE43F8C82E1
:104A8300F58312752C124CF07403120D078A828B76
:104A93008312598CE97003024B567401120D07748B
:104AA30003120CFF1217CF7401120F94124D63708F
:104AB30003024B56E875F009A4F8AAF075F009E96A
:104AC300A42AF974BE28FC740839FDE508240E12E3
:104AD3005DDDE4F004120F94123A97E508124CE6F8
:104AE300350912682F8C828D83120F7DE5082412FD
:104AF300125DDD120F599086E27808120F1F8C8227
:104B03008D837808120E7B8C828D83780C120F1F95
:104B13009086DA7808120F1F780C790812079AE545
:104B2300084509450A450B702A7401120F94124D6A
:104B33000675F009A4F8AAF075F009E9A42AF97436
:104B4300C628F582740839F5837401F07A007B086E
:104B5300124D138E828F83A3A3A3A3A3A3A3A3A303
:104B6300A3E02406FCA3E03400FD8E828F83125958
:104B73008C1260AE603EEE240A124CD812458C743F
:104B8300681245BEE8124CD239F5837402F0901BCB
:104B93007B120F7D8C828D83125B851257773CF5D8
:104BA30083120F599086E27808120F1F901B7B78AF
:104BB30008120E7B124D4E705D901B49124CFEA3E2
:104BC300A3A3A3A3A3A3A3A3A31257AD1214D5E92D
:104BD300701012576B901B4912577D70051260AE0F
:104BE30060348E828F83A3A3A3A3A3A3A3A3A3A3AE
:104BF300124CFE1247511217F9E960118E828F830E
:104C0300A3A3A3A3A3A3124D3AE4F0A3F08E828F30
:104C130083124D20E4F0124D4E6003024CCD8E8280
:104C23008F83A3A3A3A3A3A3127528901B90E06073
:104C330003024CC2901BC2E064016003024CC275C4
:104C43000A3A750B00780A120C977402120CF78853
:104C53000A890B780A120C97126B27120C74E970ED
:104C63005BE508240E125DDD7401124D68C0E0E5BA
:104C7300082411125DDDD0E0F0E508240F125DDD9C
:104C8300743A1245BE901B77120F7DE50824121269
:104C93005DDD120F599086E27808120F1F901B7783
:104CA3007808120E7B9086E27808120F1F901B770C
:104CB3007808120D537008124D0F8003124CF01236
:104CC3004D4E700612566E74A1F0740B026460248C
:104CD3000EF582E422F8E43FF9E8FCE9FD8882F569
:104CE3008322EA124CEA22240FF582E422E5081219
:104CF3004CEA3509F583E4F0A3F0221270938E8217
:104D03008F8322124D0A22123A9FE8227A007B02F5
:104D1300901A22E0F91213DF228A828B83A3A3A3C2
:104D2300A3A3A3A3A3A3A3124D2E22124561240E72
:104D3300F582E438F58322A3A3A3A3124D422212E2
:104D43004561240FF582E438F583228E828F83A395
:104D5300A3A3A3A3A3124559240FF582E438F58333
:104D6300124D0A4922124D6C22F08521828522833D
:104D7300E02274F6120809EAFEEBFF7A237B0012A5
:104D83001433EE240AF508E43FF509850882125B23
:104D9300967C237D00790012139785088285098309
:104DA300124D637003024E36EEFAEFFB121B6B12C9
:104DB3004D4E60748E828F83124E6964018E828F92
:104DC30083A3A3A3A3A3A37007124E5F740E802132
:104DD300124D6370101260AE700B8E828F83A3A38B
:104DE300E0A2E05007124E55740D8005124E557423
:104DF300051260C0540364017007124E3D740580B0
:104E03000B901B91E0C0E0124E3DD0E0124E78F5BE
:104E13008388821251D385088285098312454912FA
:104E23005B2A38F583E9800E850882850983125C45
:104E33000F8003125B52F0023A908E828F83A3A3FA
:104E4300A3A3A3A3A3A3A3A3124E4F22E0125B71B8
:104E5300A3228E828F83A3A3A3A3A3A312455912D4
:104E63005B3038F58322A3A3A3A3A3A3A3A3A3A384
:104E7300124D2EE022124E7C221265FFF8A3E0228F
:104E8300EA124E8B3BF58322240CF582E42274F163
:104E930012080974E4120D278A0C8B0D8C088D09F6
:104EA3007A237B001214338A0A8B0BAE0AAF0BEA08
:104EB3004F700302518E125B36E50824151251BF61
:104EC300687003A3E0698E828F837004740280028A
:104ED3007401F0E508240DF8E43509F98882F583B7
:104EE300E0FAC3E49AFA95E0FB1251BB2AFAA3E075
:104EF3003BFB8E828F83A3A3A3A31257948E828F2F
:104F030083A3A3F0EE2420F582E43FF583E4F0EEDF
:104F13002421F582E43FF583E4F0EEFAEFFB121C63
:104F23001F8508828509831251DA70098E828F8367
:104F3300A374058006901B911251C8F0EE2417F557
:104F43000AE43FF50B8E828F831251D3E9850A82DF
:104F5300850B83F0EE2416F8E43FF9E508240EFAF6
:104F6300E43509FB888289831245A6E5082410FAF3
:104F7300E43509FB850A82850B83E0FC88828983FB
:104F8300E0F88A828B83E0C398C39CF8125214F032
:104F9300EEFCEFFDAA0CAB0D121B65E9F50B8E823F
:104FA3008F83E06402700612576B125198E50B6011
:104FB30003025185750C00750D00901DA9E0640175
:104FC3006005E06402703F1251AA6008EE242112CA
:104FD30051AD70328E828F83A3A3A3125B581251FB
:104FE300E0EE24161251A6125209FAE439FB1238E4
:104FF30098EA4B60111263BA120C931251EEAA0C89
:10500300126858120C74EEFAEFFB121C2BE9F50B25
:10501300901DA9E064016008E06402600302517816
:10502300E97003025178E50C450D70030251858048
:1050330003850E0B1251AA600BEE24211251AD60B1
:105043000302517E850B0E850C08850D09750A0038
:105053007808120C931251EE8E828F83A3A3A3A31D
:10506300127571120C74EE24201251A6600D1251A8
:10507300B374681245BEEE24208015EE242112512C
:10508300A660151251B37403F0A37401F0EE24214A
:10509300F582E43FF583E4F0EEFAEFFB121C2BE913
:1050A300F50B70907C137D0079007409120CFF12CC
:1050B3001397741A120F94740112521F64687002CA
:1050C300A3E0704F8E828F83124D3AE06405600334
:1050D3000250347C0879FF8E828F83A3A3A3A3E0BD
:1050E300242A1257B0121415E970030250347C08B5
:1050F3007D0079FF7401120CFF1213977401120DD6
:10510300077A007B0079AB121B477419120F947452
:10511300FC80151251B3E064037004A3E0640170D2
:10512300087419120F9474FFF0E4F508F509780870
:10513300120C977402120D077413120F94AA82AB08
:1051430083125C95120C74852182852283E0602B87
:105153007409120CF7880889097808120C977508E6
:10516300137509007808120C977C007D00126508FE
:10517300120C748006E50C450D6007AA0CAB0D12EA
:105183001439EEFAEFFB1214398003750B10A90BD7
:10519300741C027188EE2406FAE43FFB1214DB222E
:1051A300EE240C12522722EE2420125227640122ED
:1051B300EE124CEA3FF58322E508240EF582E4352E
:1051C30009F583E0221251CDA322E08E828F832240
:1051D300A3E0F9121C6D22E054036401221251E48E
:1051E30022E0FAE82AF8E43400F9228E828F83A3BE
:1051F300A3A3125B5C1251E4EE241612522712523F
:1052030009FCE439FD22FAE82AF8E439F9E8240430
:1052130022125218221260CFA3A3A322F012522407
:1052230022EE240FF582E43FF583E0227901020C9C
:105233004174F4120809EAFEEBFF8A82F583A3A303
:10524300A3A3A3A3A3A31245492424F582E438F519
:10525300831251DA702E8A828B83124E6970251263
:105263005302E06405701D125302A3E0F874016851
:1052730060057406687007124D1C74028005124D98
:105283001C7403F0EA240A125C03125B6CE4F0EA78
:105293002408F8E43F122BF22431F582E43AF58333
:1052A300E0C0E01268A3A3A3D0E0125321CA242EC6
:1052B300F582E43AF583E0C0E01268A3A3A3A3D088
:1052C300E0125847C81252FC38123A951268A312DA
:1052D30053168A0A8B0BAC0AAD0B850882850983AA
:1052E3001257AD1214DB85088285098312475112C8
:1052F3001C2B125BFEF0022C08240BF582E4228A9D
:10530300828B83A3A3A3A3A3A3A3A3126095F58373
:10531300888222A3A3A3A31245E8121D9922125740
:1053230089FAA3E02202522FC082C083901B6B74C0
:1053330071F0A3741BF0901B6D747DF0A3741BF0CC
:10534300901B6F7483F0A3741BF0901B717477F040
:10535300A3741BF002563274F4120809EA2408FEFF
:10536300E43BFF8E82F583124D06125B42E0F508A3
:1053730074035508F5091257A8F8A3E08882F5834A
:10538300E508F0A3A882A983E50960097402650909
:105393006003025447740C5508FC600A74086C607F
:1053A3000574046C7026740265097006E508A2E4AE
:1053B300401A8A828B83A3A3A3A3A3A3A3A31255F7
:1053C3004D12629B3D1254E8A308A983740C6C70C0
:1053D3001C12554924281255352428F582E43DF53D
:1053E30083A3125EC9F0E82402F850010974026530
:1053F300097006E508A2E4404B125549242A1255C8
:1054030035242AF582E43DF583A31254F71255534C
:10541300125EC9125553A31254EFE82404F8500145
:1054230009EC600F74086C600A740C6C60057404FA
:105433006C7011125B792426F582E43C1254E8A3C4
:10544300A882A9838A828B83A3A3A3A3A3A3A3A3D1
:1054530012551754037014E508A2E1400E125B794C
:105463001254E23CF583E0548060081254FD125458
:10547300EA8019901B3FE0C0E01254FDD0E01255C2
:105483002A8882898312552A0412578EA3A882A9D7
:1054930083E508A2E750458E828F831255178882D1
:1054A300898312553012551C54036030125B7924E2
:1054B30034F582E43C125EC7F0E508A2E1501D8A90
:1054C300828B83A3A3A3A3A3A3A3A3122BF72435A4
:1054D300F582E43A125EC7A3F0E82403022C082401
:1054E3001EF582E422F5831254F7F0221254F7A337
:1054F300A3A3F022E088828983228A828B83A3A3D9
:10550300A3A3A3A3A3A3E0FCA3E0CC2432F582E4EA
:105513003CF58322E012551C22FCA3E0CC2425F5A4
:1055230082E43CF583E022F0901B3FE0221260CB43
:10553300E022F582E43DF5831254F712554222121C
:1055430060CF12554D228E828F83E0FDA3E0CD22E2
:10555300A3125542242CF582E43DF58322C082C078
:10556300838A828B83125622FC74035CF98A828BB2
:1055730083A3A37401F0E960057402697061740C7C
:105583005CF8600A74086860057404687013740238
:10559300697005ECA2E440098A828B83A3A3740299
:1055A300F0740C68700A8A828B83A3A3E02402F050
:1055B3007402697005ECA2E440258A828B83A3A35D
:1055C300E02404F0E8600F740868600A740C6860F3
:1055D3000574046870098A828B83A3A3E004F0EC4A
:1055E300A2E7502A8A828B83A3A3E00412562812CF
:1055F3003101E0540360178A828B83A3A3E004F094
:10560300ECA2E150098A828B83A3A3E004F08A828F
:105613008B83A3A3E004F080168521828522831265
:105623004E4FA3E022F08A828B83E022120C74D0C7
:1056330083D082020C41C082C0838A828B83A3A35E
:10564300A3A3A3A3A3A3A3A3124D6360098A828B7D
:1056530083A3A312565B80D7A3A3A3A3A3A3A3A34C
:10566300125667221247591214392212567222EE29
:10567300240CF582E43FF5832274F612080974F4CE
:10568300120D271257B7FCA3E0F5838C82A3E0C069
:10569300E07402120F94D0E012586512584E74044D
:1056A300120F941268317402120F94E064047014A0
:1056B3001257CD24121257B07406120F9412579436
:1056C300241A8035E064016005E064067039EA2439
:1056D30002F8E43B122BF21257773AF583E0C0E06D
:1056E3007403120F94D0E012578524131257B07429
:1056F30006120F94125794241B12584E7408120F5B
:1057030094E8F0A3E9802B7406120F94E4F0A3123B
:1057130057C824121257B07408120F941257A1C815
:10572300241AF582E438F583E0C0E0740A120F947A
:10573300D0E0F07406120F94124D63601F740612CA
:105743000F941247511218EFE96401700F12576B4F
:105753007406120F9412577D64017007AA21AB22BD
:10576300121C07740C023A8D121D998A088B09AC1E
:1057730008AD09222412F582E4221247551214D5EA
:10578300E9221257892212578EE022F088828983F8
:105793002212579822EAF0A3EB12578EE0221257F7
:1057A30098F8A3E022126129E022E02406FAA3E09C
:1057B3003400FB228A828B83A3A3A3A3A3A312682F
:1057C3006CE8F0A3E9F01257CD22125876E022C01C
:1057D30082C08374FD120D271257FC1230FBC0E008
:1057E3007402120F94D0E01257F6121C0D740302C8
:1057F300562FE4F0AA21AB22228A828B83A3A3A390
:10580300A3A3A31245DF8A828B83A3A3E022C082D2
:10581300C08374FA120D2712685E12586BC0E074CD
:1058230002120F94D0E0125847F5838882A3A3E0B5
:10583300C0E07405120F94D0E01257F6121C1374D3
:105843000602562F125789F8A3E022F8A3E034008A
:10585300F922A3A31258C922E02402F8A3E03400DA
:10586300F9221257892402221245E8125876125857
:1058730082E022EA2402F8E43BF98882F58322E0FD
:10588300FAA3E0F5838A82A322E50E1238F4350FDA
:10589300F583E0FC7D0022C082C0831258BD600AFC
:1058A30024FC600B24F9600C800D121BA1800812EC
:1058B3001BA78003121BAD0256328A828B831258B8
:1058C300C724FB22A3A3125B70E02274F61208091B
:1058D30074E4120D27EAFEEBFF7401120D078A82AE
:1058E3008B83A3A3A3A3A3A312598C7409120CF74C
:1058F300880889097808120C977402120D0774033B
:10590300120CFF125C95120C74852182852283E0B0
:105913006036741A120F94E060046401702A901BBD
:1059230022E070248E828F83A3A3A3A3A3E0701825
:105933008E828F83125986603F8E828F83A3A3A3A7
:10594300125982E0640760308E828F83A3A3A3A3DE
:10595300A3A3A3A3E070148E828F8312585564050A
:1059630060097A347B011216A3800DEEFAEFFB90E7
:105973001B73125B6C122302741C023A8DEEF91234
:105983005B73221258C7640622124755121B4D221D
:1059930074F412080974FA120D27EAFEEBFF1231B0
:1059A300072408F582E43B125B9E240AF582E4385F
:1059B300125B9E125B4B1257F5121B9512561CF588
:1059C30008125B368521828522831268A9E06870FC
:1059D30003A3E069602EE508A2E5502885218285AE
:1059E3002283A3E0FB901B6B125B6C1223028521C5
:1059F30082852283124549240A124D5D7006125690
:105A03001CC2E5F01251A36003025B1F7403120F63
:105A1300947436F07402120F94125B58A3A3E02817
:105A2300C0E07404120F94D0E0125214A3A3E0C098
:105A3300E07405120F94D0E0125CD7F8A3E0F9E804
:105A430049601BE8125B2A39F583E0FAE8125B3000
:105A530039F583E02AF87404120F94E028F07403F4
:105A6300120CFF12195B8A088B09A808A909EA49D5
:105A73007003025B148E828F83124751888289835D
:105A8300A3A3125B98E8125777391260BCC0E0E811
:105A9300125B42D0E012609CC0E0E82425F582E46A
:105AA30039F583D0E0125CE4C0E0E8242EF582E40B
:105AB30039F583D0E0F07402120F94E0FA1257A87C
:105AC3002AFCA3E03400FDE8125B2439F583124578
:105AD300B8E82431F582E439F583EA125CD7FAA3F6
:105AE300E0FBEA4B6019E8242FFAE439FB8E828F3E
:105AF30083A3A3125B7D125B303CF5831245A68E14
:105B0300828F83A3A3A3A3A3A3A3A3E8F0A3E98002
:105B13000AEEFAEFFB121B9B125B52F07406022C87
