:020000040000FA
:06000000020EF1020410E3
:03001B000205E8F3
:03002B00020CC400
:030033000204E0E4
:030043000208D4DC
:030053000202E8BE
:03006B0002044A42
:0300730002063D45
:10008300020371010000000000F8FF07FFFF0000FA
:100093000504000000030001FFFFFFFF0014102709
:1000A30000000020FD000206FFFF1E0101B3150042
:1000B300000000000000000000000000000000003D
:1000C30000000000001E000104010C0002012A8749
:1000D300021A8701040000221A000000E80300004E
:1000E300FFFF731A0188130000E803000064006433
:1000F30000B801A0BB0D00A0BB0D00020202070463
:1001030001051E02051E020A0A010108080103B8BF
:100113000B02803E0102FEFFE8030A050001FFFF18
:10012300020A011401E000000000020000000503C0
:1001330001010F0300030003000300030003000396
:10014300000300030005000A00140028004F009E6E
:100153000000009F26000000000B2500000000FFA8
:10016300000000FF0000120F01604F120F3D6012EC
:10017300E7548066F6120DA67011120F9E703B09AC
:100183000909F4F618F618F618F622120DBA7015C6
:10019300120FB008080860EAE6447FF61876801864
:1001A300E4F618F622120FB06016120F9E7012E4D6
:1001B300F608F608F608E65480F60909091818182F
:1001C30022EAC0E0EBC0E0ECC0E0EDC0E0E687F07F
:1001D300A4FBACF008E687F0A42CFCE435F0FA1895
:1001E30009E687F0A42C4B60027401CA35F0FCE4E5
:1001F30033FB09E687F0D2F7A42CCB35F0FC1908C2
:10020300E687F0A42BCC35F0FBE433FD0819E68731
:10021300F0D2E7A42C4ACB35F0CD3400FC09E687B5
:10022300F0D2E7A42DCC35F0FDE433FA0918E687C4
:10023300F0D2F7A42CCD35F0CA3400FC08E687F0E1
:10024300D2E7D2F7A42ACC35F07A7E20E70B0ACB8B
:1002530033CBCD33CDCC33CC33CB3350147004ED0F
:1002630030E00ED2F1E4CD3DCDCC3CCC3B5005DAB1
:1002730005C2F1EB547FC63308E63392F0FBE73354
:1002830009E733C39A502D2B70190C0D4C4D701583
:100293001806E608C333700D20F10AA2F013F6E442
:1002A30018800B4024E4F630F002768018F618F636
:1002B30018F68024D33B14501074FFA2F013F618E1
:1002C3007680E418F618F6800FA2F013F618E633DA
:1002D30003F618ECF618EDF6D0E0FDD0E0FCD0E024
:1002E300FBD0E0FA22C0E0C0D0E8C0E0E9C0E0EA19
:1002F300C0E0EBC0E0ECC0E0EDC0E0EEC0E0EFC07A
:10030300E0C008C009C082C083C0F0A2AFE433F5E7
:1003130009D2AF85A708AFA1EF5508FE74105E6040
:100323000612114575A1EF74085E600812114B7532
:10033300A1F78024EFA2E092F0E508A2E082F0505A
:1003430017906198E0F8900AB6E0C398A2D265D0FE
:10035300335002E8F075A1FEE509A2E092AFD0F0B8
:10036300D083D082D009D008D0E0FF0203F6C0E0EA
:10037300C0D0E8C0E0E9C0E0EAC0E0EBC0E0ECC018
:10038300E0EDC0E0EEC0E0C082C083C0F0A2AFE405
:1003930033FED2AF9061A4E0F8759B00E591585409
:1003A3000860087591F712118D8023E59158541058
:1003B30060087591EF1211938014E591A2E092F019
:1003C300E8A2E082F05007E0C2E0F01212C59061AB
:1003D300A3E0F8E5E9585404600E1212A775E9FB8F
:1003E300906193E0A2E640F2EEA2E092AFD0F0D0AB
:1003F30083D082D0E0FED0E0FDD0E0FCD0E0FBD0A3
:10040300E0FAD0E0F9D0E0F8D0D0D0E032C0E0C0DC
:10041300D0E8C0E0E9C0E0EAC0E0EBC0E0ECC0E057
:10042300EDC0E0EEC0E0C082C083C0F0A2AFE43311
:10043300FED2AF9061A5E0F8E5BF5854046006759D
:10044300BFFB1212D180A1C0E0C0D0E8C0E0E9C078
:10045300E0EAC0E0EBC0E0ECC0E0EDC0E0EEC0E0FD
:10046300C008C009C00AC00BC082C083C0F0A2AFDD
:10047300E433FED2AFE589A2E1503090056A7401FE
:10048300F0E589540290056BF0750819750900753C
:100493000A00750B007808120C8F7A107B00900508
:1004A30069E0F91214A57404120C74758900C2C5AD
:1004B300EEA2E092AFD0F0D083D082D00BD00AD09E
:1004C30009D008D0E0FED0E0FDD0E0FCD0E0FBD0C6
:1004D300E0FAD0E0F9D0E0F8D0D0D0E032C0E0C00C
:1004E300D0E8C0E0E9C0E0EAC0E0EBC0E0ECC0E087
:1004F300EDC0E0EEC0E0C008C009C00AC00BC08276
:10050300C083C0F0A2AFE433FED2AFE58BA2E050CC
:100513003290056A7404F0E58BA2E0E43390056B36
:10052300F0750819750900750A00750B0078081233
:100533000C8F7A107B00900569E0F91214A57404FE
:10054300120C74758B00C2E80204B312059930F0E3
:10055300391205DE803412059920F01430E72B742C
:10056300FFFCFBFA747F8022E4FCFBFA7480801AA0
:10057300B48008BC00F2BB00EF800F50EBF9E4C37A
:100583009AFAE49BFBE49CFCE499C6CC18C6CB180E
:10059300C6CA18C6F922E4C9C608CAC608CBC6D358
:1005A300330308CCC63392F0C3947F402E94184093
:1005B30019C9B90704CACBCC225025C309CA33CA07
:1005C300CB33CBCC33CC33D9F422F4600DC9CCC3B9
:1005D30013CB13CBCA13CAD9F6CC22E4FCFBFA2201
:1005E30014FCFBFA22C0E0C0D0E8C0E0E9C0E0C0E0
:1005F30082C083A8F9E8C0E0900A23E0F874A22837
:10060300F582E43409F583D0E0F0900A22E0F8A300
:10061300E0687006E595900A25F0900A23E004F05F
:10062300C394804002E4F0A374C6F0D083D082D098
:10063300E0F9D0E0F8D0D0D0E032C0E0C0D0E8C0DC
:10064300E0E9C0E0C082C083900AA6E0F8A3E068B6
:100653007008539AF7A374018022C2EA900AA6E0B5
:10066300F8740128F0742628F582E4340AF583E04F
:10067300F5F9900AA6E0C394804002E4F080ACC38D
:10068300E498F8E499F91206C38026C3E49AFAE4DD
:100693009BFBE920E7E91206C3E498F8E499F92201
:1006A300C3E498F8E499F91206C3E498F8E499F9D5
:1006B300C3E49AFAE49BFB22EB20E7CFE920E7E0CF
:1006C300B90010BB0008E88AF084F8AAF022E4FB22
:1006D300C8FA22EB70227B10C833C8C933C9335020
:1006E30007C39AC3DBF280069A50012ADBEAC833B8
:1006F300F4C8C933F4C9FA2275F008E4C833C8C989
:1007030033C933C99AC99B5004C92AC93BD5F0ECF4
:10071300FBC833F4C8E4C9FA22080808EAC0E0EBCE
:10072300C0E086F0E7A4FA180986F0E7A42AFA18CD
:100733000986F0E7A42AFA180986F0E7A42AFA1929
:1007430086F0E7A4FBE5F02AFA190886F0E7A42B64
:10075300FBE5F03AFA190886F0E7A42BFBE5F03A3B
:10076300FA18180986F0E7A4C5F02BFBE43AFA1946
:1007730008E7C5F0C6A426F6E5F03BFBE43AFA1811
:1007830086F0E7A4F6E5F00826F6E43B08F6E43A3B
:1007930008F6D0E0FBD0E0FA22E4CFC0E0E4CEC01C
:1007A300E0E4CDC0E0E4CCC0E075F020E626F60836
:1007B300E633F608E633F608E633F6181818EC3392
:1007C300FCED33FDEE33FEEF33FFC3EC9709ED97FA
:1007D30009EE9709EF97191919400FFFEC97FC09D8
:1007E300ED97FD09EE97FE191906D5F0BFECF70951
:1007F300EDF709EEF709EFF7191919D0E0FCD0E08E
:10080300FDD0E0FED0E0FF222521C582C0E0E52235
:1008130034FFC583C0E0E521C3958224F810AF08F7
:100823008583228582218008858322858221D2AF18
:10083300CEF0A3E520F0A37808E608F0A3DEFAEFF4
:10084300F0A3E58124FAF8E608F0A3E608F0A3E6AE
:1008530008F0A30808E608F0A3E608F0A31581153D
:1008630081D0E0FED0E0F8158115811581E8C0E064
:10087300EEC0E022E9799EC608CAC608CBC608CCFA
:10088300C6C370207996CACBCC7019798ECBCC7045
:10089300137986CC700EF9802ACA33CACB33CBCCFA
:1008A30033CC331930E7F2CCCBCA3350147004EA9B
:1008B30030E00DE4CA3ACACB3BCBCC3CCC50020966
:1008C300C3E913C6CC182313C6CB18C6CA18C6F976
:1008D30022C0E0C0D0E8C0E0E9C0E0EAC0E0EBC07D
:1008E300E0ECC0E0EDC0E0EEC0E0C082C083C0F049
:1008F300A2AFE433FED2AFC2C0E5D1A2E4500312EB
:1009030010BBEEA2E092AFD0F0D083D082D0E0FE55
:10091300D0E0FDD0E0FCD0E0FBD0E0FAD0E0F9D0AD
:10092300E0F8D0D0D0E032120F89B9000302096990
:10093300E4900501780E79198002F0A3D8FCD9FA66
:100943007A0E7B1D90008678E379018015E493A3EA
:10095300AD82AE838A828B83F0A3AA82AB838D821E
:100963008E83D8E9D9E77582EF75837D7400120C05
:100973003B7582037583237400120C3BFF75F010E3
:100983008E238F2485822885832785218285228350
:10099300E0CEA3E0CF852882852783EBC9EAC8EDA3
:1009A300CBECCAC3E833C8E933C9EA33CAEB33CB68
:1009B300C3EA9EF526EB9FF525B35004AB25AA2683
:1009C300EC33CCED33CDD5F0DAAE23AF2422D08394
:1009D300D082ECC0E0EDC0E0E493A3FCE493A3FD7C
:1009E300ED4C600D120AA9EC24FFFCED34FFFD80F1
:1009F300EFE493A3FCE493A3FDED4C600D120B46CF
:100A0300EC24FFFCED34FFFD80EFD0E0FDD0E0FCF3
:100A1300E493A3C0E0E493C0E0228522838521828E
:100A2300E0A3FEE0A3F5207808E0A3F608DFFAE0F0
:100A3300A3FFE0A3C0E0E0A3C0E0E0A3C0E0E0A325
:100A4300C0E0E0A3C0E010AF088582218583228047
:100A530008858221858322D2AFD083D082020C41C4
:100A6300D083D082E9C0E0E493A3C386F0C5F095B8
:100A7300F0F908E493A386F0C5F095F0700BE493C6
:100A8300A3C3994005E9048002A3E475F002A425F9
:100A930082F582E5F03583F583D0E0F9E493A3C0D2
:100AA300E0E493C0E022C0E0C3E4939608740193AA
:100AB3009618400FE49366700808740193661870E3
:100AC300007019A3A3C3E49396087401939618A323
:100AD300A3400DD0E0D0E0D0E0020A0DA3A3A3A36E
:100AE300A3A3D0E0227404800474028000CCC0E08D
:100AF300EDC0E0E521C39CCCAD2250011D10AF0633
:100B03008C218D2280068C218D22D2AF120BBDD079
:100B1300E0FDD0E0FC2274028000CCC0E0EDC0E038
:100B2300E521C39CCCAD2250011D10AF068C218D55
:100B33002280068C218D22D2AF120B9BD0E0FDD0F8
:100B4300E0FC22C0E0C0F088F0E49366700808740B
:100B5300019366187000A8F0A3A3700BD0F0D0E047
:100B6300D0E0D0E0020A0DA3A3D0F0D0E022D083DE
:100B7300D082CCC0E0E493A36006120BFD1470FA9C
:100B8300E493A36006120D3D1470FAD0E0FCE493E5
:100B9300A3C0E0E493C0E022CAC0E0E493A3C5820B
:100BA300CCC582C583CDC583F0A3C582CCC582C520
:100BB30083CDC583DAE5D0E0CA22CAC0E0E0A3C58D
:100BC30082CCC582C583CDC583F0A3C582CCC58243
:100BD300C583CDC583DAE6D0E0CA22C008C3E09658
:100BE300F50808A3E096420808A3E096420808A384
:100BF300E09645087001D3D00822C0E0E493A3D364
:100C03009C5010E493A3C39C400AD0E0D0E0D0E012
:100C1300020B8EA3A3A3D0E0227009080808226068
:100C230016181818C6C333C608C633C608C633C653
:100C330008C633C6D5E0EA22C09FF59FE473D09F70
:100C430022D083D082C09FE493C0E0740193C0E0BC
:100C5300740293F59F222521F58210AF08F52140F8
:100C63000C15228008F52140021522D2AF8522837C
:100C73002200C0D0252110AF08F521500C05228099
:100C830008F52150020522D2AFD0D0227404800A85
:100C930074038006740280027401C0E0F404120C31
:100CA30059D0E0120F4C22BB0102E722C082C0835D
:100CB30089828A83BB0003E08002E493D083D082DD
:100CC30022C0E0C0D0E8C0E0A8A8D2AFC2C7E8A263
:100CD300E792AFD0E0F8D0D0D0E032601608080831
:100CE300C6C313C618C613C618C613C618C613C67A
:100CF300D5E0EA222521F8E43522F9222521FAE478
:100D03003522FB222521FCE43522FD22C3E0C696D1
:100D1300F608A3E0C696F608A3E0C696F608A3E095
:100D2300C696F622252110AF08F521400C15228026
:100D330008F52140021522D2AF22C0E0E493A36C50
:100D43007009D0E0D0E0D0E0020B8EA3A3D0E02264
:100D5300E066701008A3E066700A08A3E0667004FA
:100D630008A3E06622C3E09608A3E09608A3E096F2
:100D730008A3E096A2D265D03322E7667010080973
:100D8300E766700A0809E76670040809E76622C384
:100D9300E096F008A3E096F008A3E096F008A3E03D
:100DA30096F022181818E60846087009E626087017
:100DB30005E633F4220822191919E70947097009CE
:100DC300E727097005E733F4220922C3E493960861
:100DD300740193960874029396087403939622C33E
:100DE300E697F60809E697F60809E697F60809E68E
:100DF30097F622E647F60809E647F60809E647F6B6
:100E03000809E647F622700422600D18C6C333C6EC
:100E130008C633C6D5E0F41822E026F608A3E03668
:100E2300F608A3E036F608A3E036F622E657F608FE
:100E330009E657F60809E657F60809E657F622E0E9
:100E430056F608A3E056F608A3E056F608A3E056C4
:100E5300F622E056F008A3E056F008A3E056F008A7
:100E6300A3E056F022E627F60809E637F60809E676
:100E730037F60809E637F622E026F008A3E036F055
:100E830008A3E036F008A3E036F02206E6700D086A
:100E930006E670080806E670030806E622E4C39631
:100EA300F608E496F608E496F608E496F622600D52
:100EB30008C6A2E713C618C613C6D5E0F322C6F4C4
:100EC300C608C6F4C608C6F4C608C6F4C622C3E7F5
:100ED300960809E7960809E7960809E79622C3E00A
:100EE3009608A3E09608A3E09608A3E0962275D09F
:100EF3000075813F7521017522050002092AE60864
:100F03004608C3134608336002E633F422600C0834
:100F1300C6C313C618C613C6D5E0F422E0F608A369
:100F2300E0F608A3E0F608A3E0F622E6F008A3E65D
:100F3300F008A3E6F008A3E6F022E7094709C31384
:100F43004709336002E733F422CAC0E0E6F0A3089E
:100F5300DAFAD0E0FA22E8F0A3E9F0A3EAF0A3EB8F
:100F6300F022E0FAA3E0FBA3E0FCA3E0FD22EAF019
:100F7300A3EBF0A3ECF0A3EDF022E0F8A3E0F9A3D8
:100F8300E0FAA3E0FB22E5C754F84401F5C7790171
:100F9300222521F582E43522F58322E72719471913
:100FA30047194722C2AF75D69F02000022E62618D2
:100FB300461846184622120C444BA304120C4489CB
:100FC300A304120C4453A504120C4432A604120CBD
:100FD3004410A704120C44A88805120C44F6880593
:100FE300120C44898A05120C44918B05120C44247B
:100FF3008C05120C4448B105120C444DB105120C7A
:101003004480B105120C44BF9F05120C4486A00511
:10101300120C44B7A105120C440EFF01120C441F1D
:10102300FF01120C44B9FF01120C44C4FF01120C5E
:1010330044DCFF01120C44F87F00120C44EBFF0167
:10104300120C4467AD05120C4477AD05120C448FA6
:10105300AD05120C440CAE05120C44CEFE02120C6C
:101063004453FF02120C44B9FF02120C4421FF0344
:10107300120C44A8FF03120C44B7FF03120C447F65
:10108300EB04120C44C3EB04120C4461ED04120C88
:10109300449EEE04120C4484F004120C44EFB00599
:1010A300120C44BC7500120C44757600120C44C13A
:1010B3007700120C44977900120C44EA7900120C61
:1010C300442E7A00120C44C17A00120C44657B0052
:1010D300120C44EB7B00120C446A7C00120C443863
:1010E3007D00120C44577D00120C44647D00120CE9
:1010F30044A1E004120C44CCE004120C44DDE304EC
:10110300120C44B7E404120C44D8E404120C44F463
:10111300E404120C440DE504120C444AA605120C17
:10112300447FA605120C44BAA605120C442CA7054D
:10113300120C445CA705120C4489A705120C44E663
:10114300A705120C44E9A705120C44FCA705120CD1
:101153004408A805120C44F59905120C44499A0554
:10116300120C44999A05120C44079B05120C44482F
:101173009B05120C44A19B05120C44B09B05120C59
:1011830044D89B05120C44C99C05120C44D69C05FB
:10119300120C44E79C05120C44B1AE05120C440139
:1011A300AF05120C442BAF05120C443BF604120C92
:1011B300449CF704120C44AAF704120C44BDF70430
:1011C300120C44D2F704120C44E7F704120C44FA4D
:1011D300F704120C44C1F804120C4437F904120C3E
:1011E30044B9F904120C4492FA04120C44A2FA040E
:1011F300120C44B1FA04120C4416AE05120C443B13
:10120300AE05120C4464AE05120C448CAE05120CF0
:101213004427A205120C444EA205120C44C5A20594
:10122300120C44F88F05120C44119005120C442F34
:101233009005120C44439005120C44619005120C66
:10124300446B9005120C44759005120C448890056C
:10125300120C44799105120C44EA9105120C4415C1
:101263009205120C44639205120C44B09205120CC1
:1012730044CB9205120C44D59205120C44209305DD
:10128300120C44A4B005120C44C4C304120C44F859
:10129300C304120C441AC404120C4433C404120CC5
:1012A300444DC404120C44B8C404120C44EBC404EB
:1012B300120C44D0CA04120C445BCC04120C44DA62
:1012C300CC04120C4468CE04120C4483CE04120CDA
:1012D30044F6CE04120C447FA405120C448FA405DB
:1012E300120C44C7A405120C44E0A405120C44518B
:1012F300A505120C4476A505120C44A1A505120CF4
:1013030044F7A505120C441DA605120C448EB10525
:10131300120C44E2FA04120C44E9FA04120C449C41
:10132300FC04120C44C0FC04120C444EFD04120CC9
:10133300442DFE04120C448CFE04120C4421FF04C1
:10134300120C446CFF04120C449CA905120C44AE0D
:10135300A905120C44C3AA05120C44C6AA05120C13
:1013630044F3AA05120C4429AB05120C443FAB0508
:10137300120C4481AB05120C44C7AB05120C440B91
:10138300AC05120C4415AC05120C4424F703120CE3
:101393004461F703120C44C6F703120C44E3F7034A
:1013A300120C449AF803120C44A4F803120C44F1EF
:1013B300F803120C441FF903120C4409FA03120C2C
:1013C3004426FB03120C4474FB03120C44B9FB03C5
:1013D300120C4424FC03120C4497FC03120C44F239
:1013E300FC03120C442DFD03120C446EFD03120C7E
:1013F3004480FD03120C4492FD03120C44B1FD031F
:10140300120C44BAFD03120C446CFE03120C44BDCF
:10141300FE03120C44F7FE03120C44EDAF05120C4D
:101423004411A805120C44AE9605120C44E496052B
:10143300120C44339805120C448C9905120C447613
:10144300A203120C44F4A803120C449CAF03120C25
:10145300442EB203120C4491B403120C442FB5036F
:10146300120C4407B703120C4440B903120C446D29
:10147300BC03120C447BBC03120C4445BD03120C89
:1014830044E6BD03120C444DC303120C44F7C303DB
:10149300120C44E27F00120C44008005120C44122B
:1014A3008005120C44008105120C44318105120C95
:1014B300447E8105120C44DE8105120C444A8205E8
:1014C300120C44678405120C442FAC05120C44B370
:1014D300AC05120C4409AD05120C4448AD05120CC1
:1014E3004492AF05120C44348701120C4440870127
:1014F300120C44E58701120C44618801120C446A02
:101503008901120C44FD8901120C449B8A01120CBF
:1015130044DD8A01120C44DC8C01120C44BC8F01A3
:10152300120C44C39401120C44039A01120C44C2DA
:10153300A401120C44C4A501120C445CA601120CB4
:10154300440DA701120C4486A701120C443DA901C6
:10155300120C4430AA01120C449DAC01120C442518
:10156300AD01120C448CB001120C44DEB301120C19
:1015730044B3B401120C44C4B901120C4455BA016A
:10158300120C4490BA01120C447ABD01120C44614E
:10159300C401120C4484C701120C442CDA04120C4B
:1015A30044FFDB04120C4494DD04120C4458DE04A3
:1015B300120C446ADF04120C4482DF04120C44B59B
:1015C300DF04120C447FE004120C44C0FF04120C2D
:1015D3004429E604120C44D0E604120C44F1E60458
:1015E300120C44EBE704120C449FE904120C4471FF
:1015F300DE03120C44E6DE03120C446DDF03120C0F
:1016030044BCE103120C44EFE203120C44D6E4039E
:10161300120C4425E503120C4482E503120C44FB2F
:10162300E503120C4427EA03120C442BEB03120CC0
:10163300448BEC03120C447BED03120C4407EE03C2
:10164300120C4440EE03120C445EEF03120C4401EF
:10165300F003120C4489F003120C4435F303120C0B
:10166300445CF403120C44ACF403120C44C0F503C1
:10167300120C44E8F503120C44EBF503120C44F985
:10168300F503120C441DF603120C448DF603120CE1
:1016930044C6F603120C44F2F603120C4405F70396
:1016A300120C442EAF05120C44FB7F00120C4400B5
:1016B3008004120C44238004120C44878104120C0E
:1016C30044D08104120C447B8204120C44E482044F
:1016D300120C44E78204120C44798304120C440272
:1016E3008404120C44B38404120C44B68404120C14
:1016F30044548504120C44D18A04120C44918C0482
:10170300120C44C68C04120C44819004120C44AF96
:101713009104120C44C69204120C44929304120CCA
:1017230044B29404120C44799604120C44E6C403A4
:10173300120C44F0C503120C449DC603120C44A7BB
:10174300C703120C4480C803120C4436C903120C9D
:101753004404CA03120C4415CC03120C4416CE03E2
:10176300120C4408CF03120C44E2D103120C443E82
:10177300D303120C4441D403120C4420D603120C9D
:10178300442ED903120C444FDB03120C44E8DB0351
:10179300120C440CDD03120C44B0E202120C44158B
:1017A300E302120C4476E302120C4449E502120CE4
:1017B30044EDE502120C4416E602120C440FEA0251
:1017C300120C4426EA02120C4429EB02120C44E6E2
:1017D300EC02120C44F1ED02120C44A6EE02120CC0
:1017E3004426EF02120C44D7EF02120C44C3F10259
:1017F300120C44A5F202120C440CF402120C441D08
:10180300F602120C44A6F802120C4486FA02120CD9
:101813004449FB02120C44C1FB02120C44D8FB02E4
:10182300120C44D9FC02120C44BCFD02120C442BD2
:10183300FE02120C44538C05120C444A8E05120C02
:1018430044098F05120C446D8F05120C44639305F4
:10185300120C44B99305120C44029405120C442A49
:101863009405120C44509405120C44689405120C10
:1018730044309505120C44459505120C44689605B1
:10188300120C44719605120C44CA9804120C44833A
:101893009605120C448D9605120C44CFF004120CDD
:1018A30044F2F504120C44C4A204120C446A7E00F0
:1018B300120C44D2FF02120C4445B005120C4455DD
:1018C300B005120C44748405120C44F7BC02120CCC
:1018D300442ABD02120C4496BD02120C4431BE02CE
:1018E300120C44CEBE02120C4413BF02120C443538
:1018F300BF02120C444EBF02120C4451A104120C3D
:101903004496BF02120C44D4BF02120C4418C00206
:10191300120C443AC002120C449CC002120C4463E1
:10192300C102120C441AC202120C448CC202120CE1
:101933004457C302120C44AAC302120C4410C4023B
:10194300120C444AC402120C449CC402120C440AF2
:10195300C502120C4475C502120C4478C502120C60
:1019630044F9C502120C4490C602120C4410C7027B
:10197300120C442FC702120C4493C802120C44A049
:10198300C802120C44ACC902120C44B9C902120CAD
:1019930044C2C902120C449ACB02120C44B4CC02C6
:1019A300120C442DCD02120C449FCD02120C44C1E3
:1019B300CD02120C4455CE02120C4429D002120C53
:1019C3004400D402120C4414D402120C4424D40252
:1019D300120C442ED402120C4437D402120C44408D
:1019E300D402120C444AD402120C4477D402120CCF
:1019F30044A0D402120C44ABD402120C44CFD40240
:101A0300120C44F3D402120C445DD502120C44A30D
:101A1300D502120C44C0D502120C443DD602120C5E
:101A23004474D602120C44B3D602120C4400D702FB
:101A3300120C4486D702120C4454D902120C44D718
:101A4300D902120C44BBDA02120C4422DD02120C3E
:101A5300447BDD02120C44C5DD02120C4420DF027C
:101A6300120C4455DF02120C44A7DF02120C445C33
:101A7300E002120C440BE102120C4448E102120C86
:101A830044DDE102120C4449E202120C44FF280037
:101A9300120C44312900120C445F2900120C443506
:101AA3002B00120C44152C00120C446D2C00120C4C
:101AB30044A82D00120C44F42D00120C441D3100D7
:101AC300120C44103400120C44603500120C44F61E
:101AD3003500120C44023600120C44343600120C4A
:101AE30044B73700120C44683900120C44FC390027
:101AF300120C443F3A00120C44BD3A00120C44DA73
:101B03003A00120C440A3B00120C443F3B00120CF7
:101B1300440F3C00120C44B83C00120C443E3F00FE
:101B2300120C445E4000120C44494100120C44CB99
:101B33004100120C44FF4500120C443C4600120CB9
:101B430044944600120C44C74600120C443147002B
:101B5300120C44674700120C44F24700120C444A2B
:101B63004800120C44214900120C44DA4900120CBB
:101B730044754A00120C447D4D00120C44994E00EA
:101B8300120C443C5200120C44305300120C4433E8
:101B93005300120C44625300120C44685500120C9B
:101BA30044415600120C44845600120C44DA570088
:101BB300120C44195800120C44A25800120C44D6BB
:101BC3005800120C449B5900120C44B35B00120CD6
:101BD30044245C00120C44645C00120C44F25C006C
:101BE300120C44145E00120C44D65E00120C44DD49
:101BF3006000120C44F56000120C44096100120CE1
:101C030044416100120C446F6100120C44EE620007
:101C1300120C44136400120C44706400120C44222E
:101C23006500120C44496500120C44106600120C46
:101C330044A86600120C44CE6800120C44036900E9
:101C4300120C44666900120C44956A00120C443D60
:101C53006B00120C446E6B00120C44866B00120C6A
:101C630044156C00120C44C96E00120C44A17000A0
:101C7300120C44BD7000120C44D97000120C44A71E
:101C83007100120C449A7500120C44008002120C6D
:101C930044328002120C44218402120C446D8402EB
:101CA300120C44B38402120C44558502120C44B145
:101CB3008502120C44F68502120C443D8702120C75
:101CC30044518802120C44408C02120C44C48C020E
:101CD300120C44D18D02120C442D8E02120C441DA1
:101CE3009002120C44929002120C449C9002120C2B
:101CF30044A99002120C44D49002120C44BB9102EA
:101D0300120C44659202120C44E39202120C440337
:101D13009302120C442C9302120C444E9302120CA5
:101D230044AE9502120C44749602120C44B9960206
:101D3300120C44369702120C44E79702120C441912
:101D43009802120C445F9802120C449B9802120CE6
:101D530044EB9802120C443F9902120C44959902E9
:101D6300120C44E19902120C444E9A02120C44C91B
:101D73009A02120C44949C02120C44949D02120C7D
:101D830044B99E02120C44F8A102120C440BA502A2
:101D9300120C44C8A502120C440CA602120C44BC3B
:101DA300A702120C44D0A702120C44DAA702120CA9
:101DB30044E4A702120C44F0A702120C440CA8023C
:101DC300120C44B7A802120C44F6A802120C4400E9
:101DD300A902120C440AA902120C447AA902120C99
:101DE30044C5A902120C44DAAA02120C4436AB020F
:101DF300120C44B7AB02120C4476AC02120C447FB3
:101E0300AD02120C44B3AE02120C44A1AF02120C89
:101E130044B9AF02120C4414B002120C4432B002A3
:101E2300120C447AB002120C44A1B002120C443CCE
:101E3300B102120C4402B202120C4494B202120C0C
:101E4300440EB302120C4428B402120C44D5B4025B
:101E5300120C44FDB502120C444DB602120C44B1EF
:101E6300B602120C4413B702120C4441B702120C0F
:101E73004465B702120C449AB702120C44CBB70262
:101E8300120C44FEB702120C441EB802120C448614
:101E9300B802120C447AB902120C44D5B902120CDE
:101EA30044FEB902120C4486BA02120C4409BB0266
:101EB300120C4434BB02120C4419BC02120C44171A
:101EC300CF04120C444FCF04120C4470CF04120CF5
:101ED30044B2CF04120C4414D004120C441ED00498
:101EE300120C442ED004120C4469D004120C444941
:101EF300D404120C4436D604120C441CD804120C1D
:101F030044B3D804120C4455D904120C44FDD30134
:101F1300120C447BD401120C44D7D401120C44227A
:101F2300D501120C443DD501120C4468D501120CA5
:101F33004485D501120C4491D501120C4428D701D4
:101F4300120C4441D701120C44C6D701120C44D9D8
:101F5300D701120C44F8D701120C449CD801120C7F
:101F6300441DDA01120C44D0DB01120C4466DC017F
:101F7300120C4469DC01120C44D9DC01120C44F745
:101F8300DC01120C448EDD01120C44D6DD01120C6F
:101F930044D9DD01120C449FDE01120C440CDF0115
:101FA300120C4432DF01120C44BDDF01120C44DB7E
:101FB300DF01120C4421E001120C44D5E001120CA4
:101FC300441FE101120C444EE101120C44ABE10148
:101FD300120C44E0E101120C440CE201120C441A0D
:101FE300E201120C4467E201120C44D7E201120C25
:101FF3004420E301120C446CE301120C4498E30106
:10200300120C44A3E301120C44C1E301120C44ACCF
:10201300E401120C44B6E401120C44F1E401120C85
:102023004401E501120C440AE501120C445EE5018A
:10203300120C4472E501120C44A1E601120C44B6E1
:10204300E601120C4444E701120C4489E701120C27
:102053004415E801120C4420E801120C4462E90122
:10206300120C447DE901120C44C9E901120C4438F5
:10207300EA01120C4471EA01120C448BEA01120CBE
:1020830044CDEA01120C449DED01120C444AEE01C9
:10209300120C44B7EE01120C44F7F001120C440F7A
:1020A300F101120C4412F101120C441EF101120C45
:1020B3004432F101120C443AF101120C446DF10166
:1020C300120C446FF201120C44F6F201120C446636
:1020D300F301120C44E8F301120C44A9F401120CAD
:1020E30044C8F401120C4469F501120C44C6F5010D
:1020F300120C44C9F501120C443DF601120C448C38
:10210300F701120C4492F801120C441DF901120C50
:102113004438FA01120C4400FB01120C4431FB0158
:10212300120C4454FB01120C445DFB01120C448C51
:10213300FB01120C441CFC01120C44D2FC01120CD6
:102143004447FD01120C44EEFD01120C4463FE01F1
:10215300120C449AFE01120C44D8FE01120C447670
:10216300A204120C44879804120C440B9804120C1A
:1021730044219E05120C441A9D05120C44E0B6043A
:10218300120C44ACB404120C44E2B304120C4435F4
:10219300B304120C442BB304120C4417B304120CF3
:1021A30044F7F504120C44E3A104120C44D5B10422
:1021B300120C4464B004120C4429A104120C44D53B
:1021C300A004120C44F2AC04120C44AEA804120C8A
:1021D30044F8A704120C4460A203120C4456A20351
:1021E300120C44649E03120C44429D03120C44F8E7
:1021F3009C03120C44159B03120C44709503120CA0
:10220300449B9103120C441D9103120C44529003FE
:10221300120C44DC8F03120C440C8F03120C446E1B
:102223008E03120C44C28C03120C44EC8B03120C6D
:102233004443A004120C44B79F04120C442F9F0480
:10224300120C44CC9D04120C44D89C04120C44463A
:102253009C04120C44FB9B04120C44428B03120C8F
:10226300443D8B03120C44318B03120C44B385039E
:10227300120C44E39B04120C44818503120C441397
:102283008503120C44648403120C44AC8303120CC4
:102293004474BF02120C44628303120C4416990463
:1022A300120C44578303120C44138103120C446F22
:1022B3008003120C44298003120C44008003120C87
:1022C3004484C304120C4457C304120C44C9C2040B
:1022D300120C448FC204120C44FFBE04120C445768
:1022E300BC04120C443CB904120C4417B704120C7E
:1022F300448EB804120C440FB804120C447A9605A9
:1023030000000080FB000022E4738F000100AD1D7C
:1023130087000100AB1D35000400741D2500020079
:10232300781D260002007A1D270002007C1D28006C
:102333000100861D29000100871D84000400FE1A88
:10234300860001001C1D2A000100881D2B000100CE
:10235300891D2C0001008D1D2D0008000A1B2E0075
:1023630001008E1D2F0001008F1D30000100901D04
:1023730031000100911D32000100121B33000100E6
:10238300131B34000100921D36000100141B38009A
:102393000100931D390001008C1D83000200A91D5B
:1023A30063000100201B640001008A1D6500010019
:1023B3008B1D6D000100211B71000800021B6600CC
:1023C3000100A81D43000100991D440002009A1D4D
:1023D300450001009C1D460002009D1D47000800AA
:1023E300181B480001009F1D4B000100A01D0400A5
:1023F3000100AC1DA1000100B01D37000100AF1D9D
:1024030088000100AE1D3C000100151B3D000100CA
:10241300941D49000200A11D67000100221B4D000D
:102423000200A31D4E000100A51D4F000200A61DC2
:102433003E000100981D51000100161B52000100CF
:10244300961D53000100971D54000100171B000047
:102453000000000000013636010100010201000105
:102463000301000104010606050200000701003410
:102473000801000F090401010D0100FF0E0800000F
:1024830017020000190100FF1A0100011B0100FEE1
:102493001C0100081D0200001F01000120010001B2
:1024A300210200002301000F240200002601000185
:1024B30027010008280200FF2A0100072B01024020
:1024C3002C0100002D0100012E0100012F0100FF4E
:1024D30030010B1D310800003A0100083B01000FD9
:1024E3003C0100013D0100FF3E04000042040000E6
:1024F300460400004A0400004E0400005204000099
:10250300560400005A040000010371030103010390
:102513000103010301032203020301031003000368
:10252300000300030003000300030003420300034E
:1025330024030603000300030403120325032303F8
:1025430025032303040304030003000300034403DC
:102553000003000323030003650321003503810304
:102563000003050300030003000300032503230303
:102573000000000020012F870000010020013087A8
:10258300000002002001328700000300200133878E
:10259300000004004201F9860000050042018C8618
:1025A30000000600420114860000070030012E8758
:1025B30000000040420114860000FDFF21012C872A
:1025C300010020002005241D010021002005251DF8
:1025D30014000E00422376190302710230016002D7
:1025E3001102700201020202020280021002610261
:1025F3003A00410063027302720262024302000264
:102603001302380000020002040212020002000258
:102613000002000204020402370037003C024402B5
:102623000002390000020002650200023502810245
:10263300000205028202830200020101710101010D
:1026430001011101010131010101010180011001A9
:1026530061013B00140063017301720162014301D4
:102663000001130106013D013500040112010001BF
:1026730000010001000104010401330133013C01A5
:1026830044013201360000010001650100013500FB
:102693008101000105018201830100010300710032
:1026A30030016000110070003102200350048000EB
:1026B30010006100000014006300730072006200E8
:1026C3004300000013000600000000000400120095
:1026D3000000000000000000040004003700370081
:1026E3003C02440000000000000000006500000000
:1026F3003500810000000500000083000000360063
:102703000100060000000F000000000000000000B0
:102713000000000003FFFF00000403FFFF0000FFB1
:10272300FF0FF4010005C4040320000100000B00A7
:102733000000000000000003010F00000000000083
:102743000000000000000000000000000000000086
:102753000000000000000000000000005915831570
:102763005F15F91465158915651595156B15F9141C
:10277300651589157115F914000000007715F91412
:1027830000000000000000007D15F91400000000A7
:102793000000000000000000000000000000000036
:1027A3000000000000000000000000000000000026
:1027B3000000000000000000000051170100511745
:1027C3000200D3160280CD160300D9160400DF16CB
:1027D3000480E5160500EB160600F1163100031719
:1027E3003300091734000F17FFFF00000300030035
:1027F3000400080010001F003E007B00F600EC01FF
:10280300D703AF075D0FB91E713D000007ECFDFD57
:10281300FDECDCDCCCBCACAC9C9C8C7C7C6C6C5C44
:102823005C5C4C4C3C3C2C2C1C1C03EAF5E5D5D5DC
:10283300C5B5A59595858575756565555545453525
:102843003525251515050A031D02CD1C05D91C07C1
:10285300D31C0CB51C0DC11CFF000000160F00009B
:102863000B150B020002220F3300000E0F5A69678B
:10287300426565416C6C69616E63653039D0D1D254
:10288300D3D4D5D6D7D8D9DADBDCDDDEDF303016CA
:10289300181920231A1C1E3000034D4C4651181AD8
:1028A30025050200011916181616182303003030E7
:1028B30017181921301B1D1F30003C40423A3F3F7F
:1028C300392F47300C0E020B040B0A0708000F02C6
:1028D3000402010101010902E803000000BE040A29
:1028E30001000E000300E80304090D031004030AAA
:1028F3000C041E0828020C0508151E04C082C083A0
:1029030012216B901B4B74A5F0A3741AF0901B4D0E
:1029130074ABF0A3741AF0901B4F74B1F0A3741A44
:10292300F0901B5174B7F0A3741AF002563A74F77F
:1029330012080B901B3FE4F0E9901B3EF07C187DDE
:102943001B7A407B1B1214DB901D9FE0901B48F009
:10295300901B497402F0A3741B0238C774F0120869
:102963000BEAFEEBFF54807003022AD0901B3E1249
:10297300395C7003022AC9EA241B1251C7707CEA2E
:10298300241F1251C764137002A3E0706E8A828BF6
:1029930083122B1E901B59124759750A00750B00A1
:1029A300800D12379D126839121439AA0EAB0FEA43
:1029B3004B60488A828B83E0650C7004A3E0650D4D
:1029C300702C8A828B83A3A3A3A3E0F50EA3E0F567
:1029D3000FE50A450B8A828B83A3A3A3A360C312CB
:1029E3003A9F850A82850B83A3A3A3A380B78A0A90
:1029F3008B0B8A828B8312475580B4E508242A12F5
:102A030051C7FCE5082402F8E43509F9E8FAE9FBC3
:102A1300901B59122C05A3A3E06402703C8A828B9D
:102A230083124759800B88828983A3A3A3A3123AF5
:102A33009FE849601F88828983E06A7003A3E06B83
:102A430070E488828983A3A3E06C70DA901DA512D9
:102A530054F7806BECF9121AE1850882850983E04B
:102A63006401704FE5082418122B07120C9B125DAA
:102A7300E1120AE8E5082412122B07120C9BE50861
:102A8300123950120C97E508240B125DE5120AEC7B
:102A9300E50824171238EDE5082402FCE43509FDA6
:102AA300E5082419FAE43509FB1222E5740A120C2D
:102AB30074800CE064027007AA08AB09121BBFAA5A
:102AC30008AB091213AFEEFAEF6480802DEA5402CB
:102AD300600C901DBC7401F0EA6402FA8023EA548E
:102AE30008601A121ADBEA4B700B901B5B125CBC7A
:102AF3007A08122B14EE6408FAEFFB80047A007B49
:102B03000002646BF582E43509F583E0F50A780A7F
:102B130022FB901B3EE0F91214B122A3A3E0F50CB3
:102B2300A3E0F50D227B00901B3EE0F91214A5747F
:102B3300042274F412080B8A088B098A828B83A3FC
:102B4300A3A31245511238F838F583E02409FA1289
:102B530064037003022BF88A828B8374021245C6C6
:102B6300850882850983122C05E8F0A3E912607DAC
:102B73008A828B83A3A3A3A3A3A3A3A3F0E508241F
:102B830003F8E43509122BFA1238F83AF583E08E8C
:102B9300828B83A3A3A3A3F0EE2409FAE43FFB8E65
:102BA300828F83A3A31257A9F5838882E0A2E58EBF
:102BB300828F83A3A3A3A3A3500474018001E4F031
:102BC300E5082403F5828983124759EA124CDA3B5C
:102BD300F5831263CA120C931238F73B12589B8E7B
:102BE300828F83A3A3127579120C74EEFAEFFB9014
:102BF3001B3E1264508016F98882F583E0FAA3E045
:102C0300CA221248F6A3A3227402120C747F040290
:102C13000A1D74F212080B8A088B09ECFAEDFB7497
:102C23000E120F94E0FC1222498A0C8B0DAE0CAFEE
:102C33000DEA4F6030AC08AD09122255E96026ACAD
:102C430008AD09EEFAEFFB12224FE970148E828F62
:102C530083123A8CFAEFFB122273AA08AB091222F1
:102C6300317900800279B402484574F012080B747C
:102C7300F6120D27EAFEEBFF8C088D09750FB3855D
:102C83002182852283E4F0750E008002050E9028D0
:102C9300FEE493F8E50EC3984003022D94AA0E7B3D
:102CA3000012215F8A0A8B0BEA4B60E08A828B83D6
:102CB300A3A3122D9B28F0F8C3EE98EF940050CCF9
:102CC3007C157D007900AA08AB09121397850A8247
:102CD300850B83A3A3A3A3126876E0F8EEC3982918
:102CE30025E0F8E433F9E50A28F582E50B39F583A5
:102CF300A3A3A3A3A3A3123902A312531E8A0C8B6B
:102D03000DAC0CAD0DAA08AB091214DB850A828544
:102D13000B83A3E06401700A125DE174011239149C
:102D230080447401120D07850A82850B831247576D
:102D33001221BFE9603D7409120F94E0C0E0125DF7
:102D4300E1D0E0F07409120F94E06403701374018E
:102D5300120D07E508240BFAE43509FB1214DB8096
:102D6300127401120F94123A9FE5081253043509A5
:102D7300126837850A82850B83125DED123914A31D
:102D8300A3E0C0E0E5082414125DE5D0E0F0750F80
:102D930000A90F740A026468A3A3A3E0F885218243
:102DA300852283E02274F712080BE9FE8A828B8363
:102DB300A3A3A3A3A3A3E0540860338A828B83A3B2
:102DC300A3A3A3A3A3E0540260218A828B83A3A3BA
:102DD300A3A3A3A3A3A3A3E06406600F74E96E6097
:102DE3000A74CD6E600574F06E7003121AC302414B
:102DF3004474F012080B74EF120D27740F120F9422
:102E0300125BA07408120F94E9F0ECFEEDFF740559
:102E1300120F94123F0C124130A3E0F912223D74B9
:102E230006120F94125BA07406120F94124D6B706E
:102E3300030230AF12393CE0FA7406120F94E0F942
:102E4300121A0312310FF8A3E0F9E84970030230B4
:102E5300AFEE2403F50AE43FF50BEE2406F508E490
:102E63003FF5097C00850882F583124759850A825C
:102E7300850B83E0F91222377403120F94125BA0BF
:102E8300850A82850B83E0C0E08521828522831237
:102E93003108D0E0124E80F98521828522831237D2
:102EA300A41249D2122D9EFAA3E0CA2407F582E4A4
:102EB3003AF583E8F0A3E4125BAB2406F582E43829
:102EC300F583E4126843124545120C93EE1238F869
:102ED3003F12589B7403120F941245512409127523
:102EE30073120C747429120F94126870122BFF1250
:102EF3004E933A126837742B120F94E0C0E0852189
:102F030082852283124D32D0E0F07402120F94E4D2
:102F1300F07425120F947808120F1F023006740301
:102F2300120F941258638882F5831230F7A3A3A378
:102F3300125329FB1221B9850E82850F83A3EAF070
:102F4300A3EBF07403120F94123108A31230F7129B
:102F53005538A2E6500F850E82850F83A3A3A3A342
:102F6300A3E0D2E1F07405120F94E0706B850E823A
:102F7300850F83A3123A9F901B99E0687003A3E027
:102F8300697055850E82850F83A3A3A31238D77565
:102F93000C00780C120C9B7808120C8F7429120FFA
:102FA30094E0F50C780C120C9B7427120F94120A00
:102FB300EC901BA6120AEC79007419120F941247B5
:102FC30029121C07740A120C74850E82850F83A3C1
:102FD300A3A3A3A3E04405F07402120F94E004FC3E
:102FE3008E828F831247538E828F83A3A3A3E0F92C
:102FF3001222377403120F94125BA07402120F94FF
:10300300E004F07403120F94124D6B6067740212A4
:103013000F94E0FA7406120F94123A9FC3EA98E4ED
:103023009950517402120F941233E1852182852243
:1030330083E028F8A3E039F9E8240FF50EE439F525
:103043000F850E82F583E4F07403120F941231029C
:1030530064016003022F217405120F94740112643A
:1030630056F07403120F9412562A123404E8F0A394
:10307300E9022F45852182852283124759121A09B5
:10308300852182852283120AEC7426120F94E0FDB7
:103093007425120F94E0FC740A120F94E0F9EEFA0F
:1030A300EFFB121ABD7402120C7480438E828F835D
:1030B300A3A3A3E0C0E0740C120F94D0E0F012625B
:1030C300BFE0C0E0740D120F94D0E0F07406120F4D
:1030D30094124D6B7009740E120F9474B9800774B7
:1030E3000E120F947410F07409120CFF121C017469
:1030F30011026468E0850E82850F83A3A3A322E0F7
:10310300124E58E022E0124E58A3A3228521828555
:103113002283EAF0A3EB124D742274F012080B74AD
:10312300E1120D277404120F94E9F07403120F9443
:10313300ECF07402120F94EDF08A0E8B0F742F12C1
:103143000F94122B20AA0CFB1219F77401120F947F
:10315300E9F0AA0CAB0D1219FD7401120F94E07083
:10316300030233DC852182852283E480158E828FDE
:1031730083A3A3A3A3A3E0D2E3F0852182852283C3
:10318300E0041263AEF8852182852283E0C3984070
:10319300030233D37401120F94E070030233D38517
:1031A30021828522831233E1E50C28F8E50D39F9F4
:1031B300E8240FFEE439FF8E82F583A3A3A3A3A320
:1031C300E0A2E040B5750800750A08750B007402AB
:1031D300120F94E060037508207C087D0079007469
:1031E30005120CFF1213978E828F83E0603E901BB3
:1031F300E9E06401701AE508D2E3F508750B1012D3
:1032030033F1120F94E8F0A3E912521C74FF807695
:1032130043080C750A0C8E828F83A31233FC126849
:10322300397405120F9474FFF0A3805A7404120FBB
:1032330094E06009E508D2E6F508750A0A8E828FE4
:1032430083A3E064FE7003A3E0F470307412120FE2
:10325300947404125E0BF8741D120F94E81245C6A1
:103263007412120CFF1219257D007C00790074156D
:10327300120F94AA82AB83121739800B1233F11207
:103283000F94E8F0A3E9F07407120F94E508F01225
:103293003933C0E07409120F94D0E0F0740A120FAE
:1032A300947401F07405120CFF121BC57411120FF4
:1032B30094E060030233B1740D120F94124E7B8EAF
:1032C300828F83A3A3A3A3F0740D120F94124594CA
:1032D300E50AF0A3E50BF07403120F94E0C0E012CB
:1032E3004525D0E01255386011901BE9E0C0E07429
:1032F3000D120F9412456FD0E0F0740D120F94125B
:103303003A9F850C82850D83A3A3A3A3A31233EA5B
:10331300241C125B9A1268531233EC1254EA3912CA
:1033230062DEC0E012450CD0E01263A3C0E0740D6E
:10333300120F94124052D0E01260A4C0E0740D1238
:103343000F94124048D0E0F0740D120F941233FC26
:103353001233EA242A125B9A850E82850F83A3A374
:10336300A3A3A3A3A3A3E0125B93123922C0E01289
:103373004034D0E0F0740D120F94124759850E8239
:10338300850F831263B92428F582E43B1268371250
:10339300392B1263CA120C93125894EA125B2C3B1A
:1033A300127577120C747405120CFF121BCB8E82EC
:1033B3008F83A3A3A3A3A3E0D2E0F07411120F940D
:1033C300E060030231707401120F94E01402317C47
:1033D3007900AA0CAB0D121AC9741F026468E07558
:1033E300F007A4F8A9F022A3A312475DE8228E8276
:1033F3008F83A3123AA3740522E0123404A3A3A378
:1034030022F8A3E0F9850E82850F83A32274F012BC
:10341300080B74E8120D27E9852182852283F08A3F
:103423000E8B0F8A828B83A3A3A3A3A3A3A3A3E0DF
:10343300F9121A218A088B09EA4B70030234EDE56D
:103443000E124CEE12394B1238E28521828522830B
:10345300E060030234F07C04850E82850F83A3A30E
:10346300A3A3A3A3A3A3E0F9121A27EE4F607B8EB5
:10347300828F83A3A3A3A3123A9F7407120F9412FC
:103483005CD1123A9F7409120F941245F6C0E0748E
:1034930011120F94D0E0126082A3A3A3A3A3A3A34A
:1034A300123A9F740F120F941268397412120F9408
:1034B300E412645EC8241FF582E438F58312585F72
:1034C300C413135403FC70027C048E828F83E0F9CF
:1034D3007808120C97742059FD744059F97403123B
:1034E3000CFF121ABD7402120C740264667C088508
:1034F3000E82850F83A3A3A3A3A3A3A3A3E0F9121F
:103503001A278B0BEA4B700302346EEE4F60DB8598
:103513002182852283E0F50C780C120C9B850882AE
:10352300850983A3A3A3A3A3A3A3E0F50C780C129B
:103533000C9B8A828B83A3A3A3E0FB8A82850B83E4
:103543001270968A82850B83E0FA8E828F83A3A3FF
:10355300E0F91222F17402120C7402347274F7123D
:10356300080B74FA120D27E9FE780179017F0080B8
:103573000379000F1248D5E0FCEFC39C5026EF758A
:10358300F007A4FC85F008AD08EA2CFCEB3DFD1226
:103593003EC4E0A2E050DA540C60D6E0A2E250D37D
:1035A300780080CF8A828B83A3A3A3A3A3A3E07015
:1035B3003DE9A2E0400574016E70338A828B83A3D8
:1035C300A3A3A3A3A374011238B4E0C0E07403124D
:1035D3000F94D0E0123F23E0C0E07404120F94D0A4
:1035E300E0F07405120F94E81257FE121C017406E2
:1035F300024141C082C0837901121AC902563A744A
:10360300F412080BEA4B901DBC6019E4F08A088B96
:1036130009F50AF50B7808120C8F7A02122B28127F
:103623000C74800A7401F07A027B00122B15022CB1
:103633001074F012080B74F3120D277403120F9415
:10364300E4F0A3F0901B591238E27401120F94E4D2
:10365300F0A31245CB04F0901B93E0A2E3500302C6
:1036630037271238A87409120F94120F59740912CC
:103673000F947808120F1F901B5B7808120D0F74BC
:1036830005120F947808120F2E1237AB7405120F20
:10369300947808120EE150077A017B000237987480
:1036A30005120F94780C120F1F901DA4E0F50978F2
:1036B3000C790812079CA80CA90D901DA5E0C398CE
:1036C300E4995003E08001E8852182852283F07428
:1036D30009120F947808120F1FC008C009C00AC04E
:1036E3000B7405120F94780C120F1F1237AB780C62
:1036F300790812079CE4F50AF50BD00FD00ED00D14
:10370300D00C780C7908120DE2901B5B780C120F29
:103713002E801112379D126839EEFAEFFB1214391D
:10372300AE08AF09EE4F60658E828F83122D9BC367
:1037330098502DEE2403F8E43FF9E0FA8882898358
:10374300E0C39AF060237403120F94123C057401D2
:10375300120F94EEF0A3EF125CECFEA3E0FF80C423
:103763008E828F83A3A3A3E4F08E828F831275309E
:103773007401120F94124D6B8E828F83A3A3A3A3A4
:103783006091125CC5120F941237A48089740312DE
:103793000F94124759740D026468123AA3901B598F
:1037A3002212588AA3A3A322901DA3127538E4F50D
:1037B3000AF50B2274F012080B8A088B09890A7820
:1037C300007900901B591238E2FBEE4B601E088E05
:1037D300828F83A3A3A3A3124723601008E8700179
:1037E300098E828F831238DEEA4F70E3901DA61292
:1037F3004759C3E89AE99B400302389B7A0612387B
:103803009EA80CA90DEA49700302389B8A828B8318
:10381300E508F0A3E5091238BDE50AF0901DA512ED
:1038230048DD1238B4A3E4F0A3F0901B59124723E8
:10383300600D8E828F83A3A3A3A312683980179090
:103843001B59126839901B93E0A2E340091238A870
:10385300901B5B120F59901B93E0A2E3503A7A0836
:103863007B00901B3EE0F91214B7EA4B4C4D7028D5
:10387300901DA3E0F508A3E085080CF50DE4F50E13
:10388300F50F780C120C8F7A087B00901B3EE0F941
:103893001214AB7404120C7402646B7B00121433A5
:1038A3008A0C8B0D221214C3EAF8EBF9ECFAEDFB48
:1038B300221238B8221238BDA322F08A828B83A346
:1038C300A322E508F0024144F08E828F83A3A3A3D1
:1038D300A3A3A3221251D5A3A3F022A3A3A3A3E0DE
:1038E300FEA3E0FF227F05020A1DF582E43509F5F8
:1038F30083E0F922EA1238FC222410F582E4221232
:10390300390AA3A3A3A322123AA7850882850983B0
:103913002212391822F0850A82850B83A3A322E59C
:103923000E2411123948E022E50E240E12394822E2
:10393300E50E2410123948E02212394022EE1238E3
:10394300FC3FF58322F582E4350FF58322240FF53E
:103953000AE43509F50B780A22E0F91213BB8A0849
:103963008B09EA4B2274F212080B890B8A088B0924
:103973008A828B83124759121AEDEA4B600479B895
:10398300806A121AF9E9F89028EFE493F9E8C399E9
:10399300400479B280567A1512389EAE0CAF0DEA08
:1039A3004F7004791080458A828B83E4F0A3123828
:1039B300BDE50BF0750A007808120C937C127D00AC
:1039C300EA2403126375120C74901B5F124D6B7023
:1039D30008901B5F800C123A9F888289831239F208
:1039E30070F4EEF0A3EFF0121B0B790002484512BE
:1039F300475DEA4B8882898322C082C083901B5F24
:103A030080048C828D83127097EC4D60288C828D9C
:103A130083A3A3E069600574FF6970E68C828D83DC
:103A2300A3A3A3E06A7003A3E06B70D6EC2403FAAC
:103A3300E43DFB80047A007B0002563A74F71208D7
:103A43000BE9FD74FE6D70047C0180027C00901B09
:103A53005F80096D70027C0188828983124D6B60DF
:103A63001F88828983A3A3A3E06A7003A3E06B701A
:103A7300E7ECA2E088828983A3A3E050D6F9800211
:103A830079FE024144EEF9800CA3A3127538EE22AD
:103A93007402120C747F02020A1DF583123AA322E8
:103AA300123AA722E0F8A3E0F922123AA78E828FF6
:103AB3008322120C747F03020A1DC082C083790023
:103AC300901B5F800109E0FAA3E08A82F583E58217
:103AD300458370F102563A74F612080BE4F508F5C3
:103AE300097808120C979028EFE49375F013A4A9B2
:103AF300F0123BFA126897120C74E9FE74096E70A7
:103B030003121B05023A8874F612080B74FE120D99
:103B130027852182852283E4F0A3F0A821A92288A6
:103B23000889097808120C97750802750900780846
:103B3300120C97126508120C74023A9374F512086A
:103B43000B74EB120D27852182852283E4F0A3F009
:103B5300901B5F80748E828F83A3A3E0C0E0740206
:103B6300120F94D0E012521CA982AA8389088A09F1
:103B7300750A007808120C937C127D007406120FEC
:103B83009412685C120C747402120CF78808890989
:103B93007808120C977508137509007808120C97AA
:103BA3007404120F94124D0E75F013A4F8AAF07555
:103BB300F013E9123BF6126510120C74852182850D
:103BC3002283123C058E828F831238E2EE4F70857A
:103BD300A821A922880889097808120C9775080278
:103BE3007509007808120C97126508120C74741585
:103BF300023AB5A42AF9E82402FCE439FD7A427BAF
:103C03000022E02401F0A3E03400F02274F412084F
:103C13000B74EB120D277E007F00A821A9228808D0
:103C230089097808120C977508028E097808120C16
:103C3300977C007D007A421268A3120C74E9706CC1
:103C43008E0880567402120CF7880A890B780A12C0
:103C53000C97750A13750B00780A120C97E5087513
:103C6300F013A4F8AAF075F013E509123BF61268F5
:103C7300A5120C74E9701B7403120F94AA82AB8310
:103C83007402120F94E0F9121AE7E970050EEE7050
:103C9300010F0508E5087002050985218285228345
:103CA300123A9FC3E50898E509994098EEFAEFFBAD
:103CB3007415022C0D74F612080B8C828D83A3A34A
:103CC300123F11F0EA125B323BF583E0C0E0123E93
:103CD300CED0E0F0EA241DF582E43B123A9D123E79
:103CE300B2123F0CF0A3F0EA241FF582E43BF58304
:103CF3001238E2EC123EA53DF583EEF0A3EFF0128D
:103D03003EAB3BF583123EDCA3A3A3A3A3A3EEF038
:103D1300A3EF12578DFE8C828D83123F1B74035EBB
:103D2300FEC394034003023E98EE600874026E6083
:103D330003023DBD8C828D83E0540CFE740C6E70C7
:103D430003023DFCE0A2E4400D88828983E08C827B
:103D53008D83A3123F3174086E6003023DFC123E53
:103D6300BC7401F08A828B83A3A3A3A3A31251E2A1
:103D730070148C828D83E0440C123F23A3A3123E64
:103D8300DCEEF0A3EFF08C828D83E0A2E4402B887D
:103D930082123EEA123EFF500109F582123EEAA367
:103DA300A3A3A3A3A3F0A3EF123F2B8C828D83A322
:103DB300A3A3F0E82403F850010988828983E0C0B3
:103DC300E0EC2411F582E43DF583D0E0123F1B8C37
:103DD300828D83E0A2E7507588828983E0FE8C821E
:103DE3008D83123F3174FC5E700C8C828D83A3E053
:103DF30054036403701E023E98123EBCE4F0740C3C
:103E03006E6003023D678882123EF0123EFF50014E
:103E130009023D898C828D83A3E05403603288823A
:103E23008983E0C0E0EC123ED63DF583D0E0123F3B
:103E3300328C828D83E054036402701488828983F8
:103E4300E0C0E0123EC4D0E0123F328003A3E4F0AE
:103E5300EC124CDA3D126837EC2410FEE43DFFEA25
:103E6300241DF582E43BF583E0F5088E828F83E021
:103E7300C3982508F508F0EA2417F8E43BF988828B
:103E8300F583E0C39508C0E0123EB2D0E012578D2F
:103E9300C39508500A123EB2E4F0123ECEE4F0029B
:103EA3003A982415F582E422EA240DF582E422EC03
:103EB300240DF582E43DF58322EC124E933DF58308
:103EC30022EC2414F582E43DF58322EC1238FC3D08
:103ED300F583222413F582E422E0FEA3E0FF8C8223
:103EE3008D83A3A3A3A322123EF0A3A3228983E07D
:103EF300F508A3E0FFE5088C828D8322A3A3A3A387
:103F0300F0A3EFF0E82402F822123F11A322E4F019
:103F13008C828D83A3A3A322123F39A882A9832273
:103F23001238B8A3A3A3A322123F39A3E022A312FA
:103F33003F3908A98322125796A32274F412080B5F
:103F430074F3120D278A0A8B0BECFEEDFF8C82F5BE
:103F530083E0540CF508E0A2E75006E508D2E7F544
:103F630008E508D2E1F5081251E27006E508D2E44B
:103F7300F508E0A2E55006E508D2E5F5087C087DE2
:103F8300007900AA21AB221213977402120F94E551
:103F93000812683DC0E07403120F94D0E01245CBC1
:103FA300E50AF0A3E50BF07405120F941260A91251
:103FB3000F94E070777408120F9412455112577FD3
:103FC300381260C4C0E07408120F94124052D0E05B
:103FD3001260A4C0E07408120F94124048D0E0F0BD
:103FE3007408120F9412403EE01245791245FA12FA
:103FF3005B93EE24111251AEC0E0124034D0E0F0D6
:10400300EE24141251AEC0E07408120F94124551FD
:104013002435F582E438F583D0E012459EC0E07480
:1040230008120F94124555D0E0125DFD740D022C59
:104033000DE82432F582E439F58322123AADA3A3C5
:10404300A3A3A3A3221245651262A338F583221208
:1040530045652426F582E438F5832274F712080BAC
:104063007E008A828B83A3A3A3A3A3A3A3A3A3E01A
:1040730064046003024120124E8BE060030241207E
:10408300124CED3B124D69700302412088828983F3
:10409300E054036003024120E8124E9339F583E0B4
:1040A300FA8C828D83A3A3E0FBA3E0CB2411F582DA
:1040B300E43BF583E06A706588828983A3A3A3A3A5
:1040C300A3A3A3A3A3124124E06A7003A3E06B702C
:1040D3004C88828983A3A3124130E0FFA3E0CF245D
:1040E300061251AE6A7003A3E06B70318882898334
:1040F300A3A3E0F88C828D83A3A3E0F9A3E0F58367
:104103008982A3A3E06860138C828D83A3A3A3E0B9
:10411300F5838982E0540C640470027E01EEF98019
:1041230020124128221247618C828D8322A3A3127D
:104133004128A3A322740C120F94E0F9740D120CFE
:10414300747F01020A1D74F612080B74FC120D270A
:10415300EAFEEBFFECFAEDFB8C82F583A3E054035C
:104163006016901B55124D6B60597900EEFCEFFD04
:1041730012598A12230B804B852182852283EEF00C
:10418300A3EFF07402120F941245C0AC21AD227A52
:10419300237B1B121D4B8A088B09A808A909EA492E
:1041A30060218A828B83A3A3A3A3A3A3A3A3A37442
:1041B30006F07A0088828B83124551125B53E0F933
:1041C300121CA97404023A9574F212080B74F312C8
:1041D3000D27EAFEEBFF8A82F583A3A3A3A3A3A380
:1041E300A3A3A3A3E0F50A901DBCE0700579BA026E
:1041F3004509750801750900750C00750D007C08EB
:104203007D007900AA21AB221213977405120F9433
:1042130074011245D3540460127402120F94E0D255
:10422300E61245D354087003750803E05410600682
:1042330074404508F508E0540860227402120F9494
:10424300E044C01245D35420600A7403120F94E073
:10425300D2E080087403120F94E0D2E1F0EE24154B
:104263001251AE1245397003740169700674084522
:1042730008F5088E828F83A3A3A3A3A3A3A3A3E01C
:104283007016121DA5852182852283125BA07402FC
:10429300120F94E0D2E28030640F70107402120F98
:1042A300941245DB74044508F508807F8E828F8362
:1042B300A3A3A3A3A3A3A3A3E064028E828F83700B
:1042C3000A126870E8F0A3E9F08060A3A3A3A3A394
:1042D300A3A3A3E06403700DAC21AD22EEFAEFFBC0
:1042E300121B5980468E828F83A3A3A3A3A3A3A3E8
:1042F300A3E064017035901BE9E060107402120FB3
:10430300941245DB750910750AFF80187402120FA9
:1043130094E0440C1245CB74FDF0A374FFF07404D5
:104323004508F5088E828F83122B20EE2415125137
:10433300AEA2E0503F7402120F94E0540C701B8E37
:10434300828F831247591217CFE9700579BB024553
:10435300097402120F94E0D2E5F0EE24151251AE67
:10436300A2E050107402120F94E0540C6404700421
:10437300E0D2E5F0EE24111251AEC0E07404120F46
:1043830094D0E01260AB120F94E060030245027414
:1043930008120F94124594E508F0A3E509F01245BD
:1043A3002FE0C0E0124525D0E0F0124516E0C0E052
:1043B3007408120F94124551123ED638F583D0E09B
:1043C3001245FA64017011901BE9E0C0E074081211
:1043D3000F9412456FD0E0F07408120F9412458FBA
:1043E300124520FAE8241CF582E439F583EA1245E4
:1043F300C6EE2415FAE43FFB8A82F583127097E830
:104403001254EA39F5831245C0EE241C1251AEC092
:10441300E012450CD0E01256301245397003740196
:104423006970137408120F94124E7BFAEE241D1256
:1044330051AEF9121A2D8E828F83A3A3A3A3A3A334
:10444300A3A3A3E0C0E07408120F94124052D0E07B
:10445300F07408120F94124048E50AF07408120F22
:1044630094124D0E2428F582E439F583E50CF0A36C
:10447300E50D1245A6124579125227125B93EE12EF
:104483004520C0E0E82433F582E439F583D0E0F039
:10449300EE241B1251AEC0E07408120F941245555E
:1044A300D0E0F0EE241A1251AEC0E07408120F945B
:1044B3001245512432F582E438F583D0E012459E4B
:1044C300124545120C931262A9127097740B120FC6
:1044D30094124551242F127573120C74EE24151285
:1044E30051AE54406012901B75124D6B600AAA21A5
:1044F300AB2212598A12230BAA21AB22121BCB74B3
:104503000C120F94E0F9024840E82420F582E439C4
:10451300F58322EE2419F582E43FF583221262B873
:10452300E022E82412F582E439F58322EE2418F51B
:1045330082E43FF583225480F8A3E05401F97480A8
:104543006822F508A3E0F509750A007808221245E8
:1045530065221245652434F582E438F58322A3A34A
:10456300A3A312456922E0F8A3E0C822124565120D
:104573003EA538F58322FAA3E0FBE8242AF582E47A
:1045830039F583EAF0A3EB22A3A3A3A3123AA3EE84
:1045930022124D12124CF239F58322F0EE2413123B
:1045A300522F22F0EE240D12522F22E0FC8A828B2E
:1045B30083E02CFCA3E03400FD8A828B83ECF0A320
:1045C300EDF022F0A3E4F022F085218285228322FC
:1045D300F0EE241512522F22E0D2E3F01245E3222B
:1045E3008E828F83123AA7852182852283E8F0A3E6
:1045F300E9F022E8F0A3E9125CE6E02274F712087E
:104603000B8A828B83A3E0640170047E6380027E45
:10461300648A828B83E06008790512463324F3FEB3
:10462300901B91E06007F912463324F2FE02412009
:10463300121C73E9F8EEC3982274F612080B74FE89
:10464300120D27852182852283125BA0E9FEECFAF5
:10465300EDFB900530124D6B6032A821A92288082A
:1046630089097808120C977D01740E120F94E0FCEF
:10467300EEF9900530125B7412230B7402120C7462
:10468300EA4B60047900800679B2800279B6023A77
:104693009374F712080BE9FE901B4B124D6B601FCE
:1046A3007409120F94E0F5087808120C9BEEF99048
:1046B3001B4B125B7412230B7401120C748002796E
:1046C300B602414474F712080B8908ECFEEDFF793A
:1046D300B5E508245E602014600624F86034803D4C
:1046E30090053212472360351268B412230B8E8271
:1046F3008F83125BA08024901B4D127097EC4D604A
:104703001CEEFCEFFD901B4D125B7412230BE9F9B9
:10471300800B901B491247291214DB790002414494
:1047230012475DEA4B2212709BEEFAEFFB2274F7FD
:1047330012080BE9FE79B574AB6E700B901B49122E
:1047430047591214DB79000241448E828F83A3A35D
:10475300A3A3A3A3A3A312475D2212476122E0FAF6
:10476300A3E0FB2274F112080BEAFEEBFF8C0A8D27
:104773000B750801901B99E06E7003A3E06F700C3A
:10478300124834AA0AAB0B1214DB805E121DABEE87
:104793006A7002EF6B7009AA0AAB0B121DB1804A53
:1047A300AC0AAD0BEEFAEFFB121901E9F508901D07
:1047B300ABE07036122261E97030E508702C901B73
:1047C30069E06E7003A3E06F7020EE4F601C750C00
:1047D30061750D1B750E00780C120C937C087D001F
:1047E300AA0AAB0B126860120C74A90802719374C5
:1047F300F212080BEAFEEBFF8C088D09750A011211
:104803004834EEFAEFFB1214D5E964017011901BE2
:1048130099123A9F850882850983126839800EAC04
:1048230008AD09EEFAEFFB121907E9F50AA90A80A8
:1048330011121D9F8A0C8B0DAC0CAD0D22740D1241
:104843000C747F06020A1D74F612080BEAFEEBFFD6
:104853007A0D7B00121433EA4B6062EE2424126556
:104863003DF0EE242512653DA3124902126543A3D0
:10487300A31262D61248DDF0EE1248C31248F2E8E2
:10488300F0A3E91249191248EA126839EE1248CC2A
:10489300126399A3A3A3A3F0EE24331251AEC0E095
:1048A3001248D5D0E01260C81248EAA3A3A3E8F0E7
:1048B300A3E9124911C0E0124E8BD0E0F0023A98FE
:1048C300242AF582E43FF58322242EF582E43FF582
:1048D3008322EA1253043BF583221248E122E08A41
:1048E300828B83A3A3A3221263F8A3A3A3A32212FD
:1048F30048F622123AA78A828B83A3A3A3A322F0AA
:1049030012490722EE2426F582E43FF58322F0EED6
:10491300243212522F22F0EE242C12522F2274F43E
:1049230012080B74FE120D27ECFEEDFFEC24161299
:1049330051AE64057010EC2406FCE43FFD121B53DA
:10494300E970030249CDAC21AD221265F21217D5ED
:10495300852182852283124D6B606B8E828F83E06B
:1049630064017058E875F009A4F8AAF075F009E934
:10497300A42AF974C228F8740839F9E8FAE9FB881B
:1049830082F5837808120F1FEE124A6F120EE14070
:104993002785218285228312458F1251BC1249D269
:1049A3007808120F1F9087167808120E1C8A828BC4
:1049B300837808120F2E800A79A28010EE240F123A
:1049C30068337900800679A1800279C8022C0B1222
:1049D30045F0EE1262C42274F212080B8A0C8B0D9E
:1049E300ECFEEDFFEC1251BCE4F0A3F090872678C7
:1049F30008120F1FEC124A6F120D536067EC240E5E
:104A03001251B5703478B3901B90E07028901BC29C
:104A1300E064017020EC24111251AEF9121C5B8B7F
:104A230009A909EE124CEE3F125B9EEA4960047835
:104A330000800278A18808802EE060046402700A76
:104A4300121B65E9F5087007801DE064037010EE22
:104A5300FCEFFDAA0CAB0D1217F9E9F508800875F8
:104A630008A180037508A3A9080248451262C47807
:104A7300082274F012080B74F5120D27EAFEEBFFFF
:104A8300EA240AFCE43F8C82F583127534124CF855
:104A93007403120D078A828B83125994E9700302FF
:104AA3004B5E7401120D077403120CFF1217D574B9
:104AB30001120F94124D6B7003024B5EE875F009FF
:104AC300A4F8AAF075F009E9A42AF974BE28FC74C5
:104AD3000839FDE508240E125DE5E4F004120F9495
:104AE300123A9FE508124CEE35091268378C828D15
:104AF30083120F7DE5082412125DE5120F5990878A
:104B0300167808120F1F8C828D837808120E7B8C07
:104B1300828D83780C120F1F90870E7808120F1F57
:104B2300780C790812079CE5084509450A450B707E
:104B33002A7401120F94124D0E75F009A4F8AAF00D
:104B430075F009E9A42AF974C628F582740839F5C1
:104B5300837401F07A007B08124D1B8E828F83A32E
:104B6300A3A3A3A3A3A3A3A3A3E02406FCA3E034CA
:104B730000FD8E828F831259941260B6603EEE243C
:104B83000A124CE012459474681245C6E8124CDAD6
:104B930039F5837402F0901B7B120F7D8C828D8319
:104BA300125B8D12577F3CF583120F59908716784D
:104BB30008120F1F901B7B7808120E7B124D567044
:104BC3005D901B49124D06A3A3A3A3A3A3A3A3A371
:104BD300A31257B51214D5E97010125773901B49DD
:104BE30012578570051260B660348E828F83A3A33B
:104BF300A3A3A3A3A3A3A3A3124D0612475912175A
:104C0300FFE960118E828F83A3A3A3A3A3A3124DF5
:104C130042E4F0A3F08E828F83124D28E4F0124D0C
:104C2300566003024CD58E828F83A3A3A3A3A3A3B1
:104C3300127530901B90E06003024CCA901BC2E0D7
:104C430064016003024CCA750A3A750B00780A12B4
:104C53000C977402120CF7880A890B780A120C97C6
:104C6300126B2F120C74E9705BE508240E125DE5DC
:104C73007401124D70C0E0E5082411125DE5D0E027
:104C8300F0E508240F125DE5743A1245C6901B77D0
:104C9300120F7DE5082412125DE5120F5990871655
:104CA3007808120F1F901B777808120E7B908716D7
:104CB3007808120F1F901B777808120D5370081293
:104CC3004D178003124CF8124D5670061256767427
:104CD300A1F0740B026468240EF582E422F8E43F29
:104CE300F9E8FCE9FD8882F58322EA124CF22224DA
:104CF3000FF582E422E508124CF23509F583E4F05E
:104D0300A3F02212709B8E828F8322124D122212E5
:104D13003AA7E8227A007B02901A22E0F91213DF05
:104D2300228A828B83A3A3A3A3A3A3A3A3A3A312D4
:104D33004D3622124569240EF582E438F58322A309
:104D4300A3A3A3124D4A22124569240FF582E43826
:104D5300F583228E828F83A3A3A3A3A3A31245610A
:104D6300240FF582E438F583124D124922124D7453
:104D730022F0852182852283E02274F612080BEA51
:104D8300FEEBFF7A237B00121433EE240AF508E4CA
:104D93003FF509850882125B9E7C237D0079001212
:104DA3001397850882850983124D6B7003024E3E6B
:104DB300EEFAEFFB121B71124D5660748E828F83D5
:104DC300124E7164018E828F83A3A3A3A3A3A37046
:104DD30007124E67740E8021124D6B70101260B66D
:104DE300700B8E828F83A3A3E0A2E05007124E5D67
:104DF300740D8005124E5D74051260C8540364017E
:104E03007007124E457405800B901B91E0C0E012B1
:104E13004E45D0E0124E80F58388821251DB85081F
:104E230082850983124551125B3238F583E9800E7E
:104E3300850882850983125C178003125B5AF0028E
:104E43003A988E828F83A3A3A3A3A3A3A3A3A3A30D
:104E5300124E5722E0125B79A3228E828F83A3A383
:104E6300A3A3A3A3124561125B3838F58322A3A33E
:104E7300A3A3A3A3A3A3A3A3124D36E022124E849C
:104E830022126607F8A3E022EA124E933BF583222F
:104E9300240CF582E42274F112080B74E4120D273A
:104EA3008A0C8B0D8C088D097A237B001214338AAC
:104EB3000A8B0BAE0AAF0BEA4F7003025196125BDB
:104EC3003EE50824151251C7687003A3E0698E827A
:104ED3008F837004740280027401F0E508240DF8D6
:104EE300E43509F98882F583E0FAC3E49AFA95E098
:104EF300FB1251C32AFAA3E03BFB8E828F83A3A349
:104F0300A3A312579C8E828F83A3A3F0EE2420F5D4
:104F130082E43FF583E4F0EE2421F582E43FF58358
:104F2300E4F0EEFAEFFB121C258508828509831253
:104F330051E270098E828F83A374058006901B91C2
:104F43001251D0F0EE2417F50AE43FF50B8E828F51
:104F5300831251DBE9850A82850B83F0EE2416F870
:104F6300E43FF9E508240EFAE43509FB88828983D6
:104F73001245AEE5082410FAE43509FB850A82855B
:104F83000B83E0FC88828983E0F88A828B83E0C309
:104F930098C39CF812521CF0EEFCEFFDAA0CAB0D6B
:104FA300121B6BE9F50B8E828F83E064027006128D
:104FB30057731251A0E50B600302518D750C0075F8
:104FC3000D00901DABE064016005E06402703F12C8
:104FD30051B26008EE24211251B570328E828F8354
:104FE300A3A3A3125B601251E8EE24161251AE1272
:104FF3005211FAE439FB1238A0EA4B60111263C272
:10500300120C931251F6AA0C126860120C74EEFA89
:10501300EFFB121C31E9F50B901DABE06401600856
:10502300E064026003025180E97003025180E50CE1
:10503300450D700302518D8003850E0B1251B26032
:105043000BEE24211251B56003025186850B0E85A8
:105053000C08850D09750A007808120C931251F695
:105063008E828F83A3A3A3A3127579120C74EE24EB
:10507300201251AE600D1251BB74681245C6EE2466
:10508300208015EE24211251AE60151251BB74031A
:10509300F0A37401F0EE2421F582E43FF583E4F0FC
:1050A300EEFAEFFB121C31E9F50B70907C137D00D7
:1050B30079007409120CFF121397741A120F947467
:1050C3000112522764687002A3E0704F8E828F83AF
:1050D300124D42E06405600302503C7C0879FF8E68
:1050E300828F83A3A3A3A3E0242A1257B812141513
:1050F300E9700302503C7C087D0079FF7401120CB7
:10510300FF1213977401120D077A007B0079AB121B
:105113001B4D7419120F9474FC80151251BBE0647B
:10512300037004A3E0640170087419120F9474FFF0
:10513300F0E4F508F5097808120C977402120D07CC
:105143007413120F94AA82AB83125C9D120C7485A4
:105153002182852283E0602B7409120CF788088969
:10516300097808120C977508137509007808120C52
:10517300977C007D00126510120C748006E50C45C7
:105183000D6007AA0CAB0D121439EEFAEFFB1214E3
:10519300398003750B10A90B741C027190EE240661
:1051A300FAE43FFB1214DB22EE240C12522F22EE00
:1051B300242012522F640122EE124CF23FF5832277
:1051C300E508240EF582E43509F583E0221251D572
:1051D300A322E08E828F8322A3E0F9121C7322E0C4
:1051E30054036401221251EC22E0FAE82AF8E43471
:1051F30000F9228E828F83A3A3A3125B641251EC66
:10520300EE241612522F125211FCE439FD22FAE851
:105213002AF8E439F9E8240422125220221260D732
:10522300A3A3A322F012522C22EE240FF582E43F13
:10523300F583E0227901020C4174F412080BEAFEB3
:10524300EBFF8A82F583A3A3A3A3A3A3A3A312457E
:10525300512424F582E438F5831251E2702E8A82B8
:105263008B83124E71702512530AE06405701D1270
:10527300530AA3E0F87401686005740668700712A6
:105283004D2474028005124D247403F0EA240A129B
:105293005C0B125B74E4F0EA2408F8E43F122BFA87
:1052A3002431F582E43AF583E0C0E01268ABA3A3AE
:1052B300D0E0125329CA242EF582E43AF583E0C0E4
:1052C300E01268ABA3A3A3D0E012584FC812530453
:1052D30038123A9D1268AB12531E8A0A8B0BAC0A22
:1052E300AD0B8508828509831257B51214DB850837
:1052F30082850983124759121C31125C06F0022C75
:1053030010240BF582E4228A828B83A3A3A3A3A395
:10531300A3A3A312609DF583888222A3A3A3A31250
:1053230045F0121D9F22125791FAA3E02202523731
:10533300C082C083901B6B7477F0A3741BF0901B27
:105343006D7483F0A3741BF0901B6F7489F0A374C6
:105353001BF0901B71747DF0A3741BF002563A741A
:10536300F412080BEA2408FEE43BFF8E82F5831255
:105373004D0E125B4AE0F50874035508F509125700
:10538300B0F8A3E08882F583E508F0A3A882A98397
:10539300E509600974026509600302544F740C55F2
:1053A30008FC600A74086C600574046C702674024F
:1053B30065097006E508A2E4401A8A828B83A3A3D9
:1053C300A3A3A3A3A3A31255551262A33D1254F0A2
:1053D300A308A983740C6C701C1255512428125510
:1053E3003D2428F582E43DF583A3125ED1F0E82441
:1053F30002F8500109740265097006E508A2E44049
:105403004B125551242A12553D242AF582E43DF5C9
:1054130083A31254FF12555B125ED112555BA31284
:1054230054F7E82404F8500109EC600F74086C6029
:105433000A740C6C600574046C7011125B81242671
:10544300F582E43C1254F0A3A882A9838A828B8359
:10545300A3A3A3A3A3A3A3A312551F54037014E5EB
:1054630008A2E1400E125B811254EA3CF583E0543A
:105473008060081255051254F28019901B3FE0C05A
:10548300E0125505D0E012553288828983125532D5
:1054930004125796A3A882A983E508A2E750458E74
:1054A300828F8312551F888289831255381255249F
:1054B30054036030125B812434F582E43C125ECFE6
:1054C300F0E508A2E1501D8A828B83A3A3A3A3A3C3
:1054D300A3A3A3122BFF2435F582E43A125ECFA3D4
:1054E300F0E82403022C10241EF582E422F5831233
:1054F30054FFF0221254FFA3A3A3F022E088828971
:1055030083228A828B83A3A3A3A3A3A3A3A3E0FCE5
:10551300A3E0CC2432F582E43CF58322E012552447
:1055230022FCA3E0CC2425F582E43CF583E022F0C1
:10553300901B3FE0221260D3E022F582E43DF58325
:105543001254FF12554A221260D7125555228E82E9
:105553008F83E0FDA3E0CD22A312554A242CF582CC
:10556300E43DF58322C082C0838A828B8312562A4C
:10557300FC74035CF98A828B83A3A37401F0E96052
:10558300057402697061740C5CF8600A74086860E1
:105593000574046870137402697005ECA2E4400991
:1055A3008A828B83A3A37402F0740C68700A8A82C4
:1055B3008B83A3A3E02402F07402697005ECA2E4D8
:1055C30040258A828B83A3A3E02404F0E8600F7450
:1055D3000868600A740C68600574046870098A823C
:1055E3008B83A3A3E004F0ECA2E7502A8A828B8387
:1055F300A3A3E004125630123109E0540360178A62
:10560300828B83A3A3E004F0ECA2E150098A828B8E
:1056130083A3A3E004F08A828B83A3A3E004F08036
:1056230016852182852283124E57A3E022F08A82B7
:105633008B83E022120C74D083D082020C41C0828F
:10564300C0838A828B83A3A3A3A3A3A3A3A3A3A39C
:10565300124D6B60098A828B83A3A312566380D792
:10566300A3A3A3A3A3A3A3A312566F22124761125A
:1056730014392212567A22EE240CF582E43FF58384
:105683002274F612080B74F4120D271257BFFCA3F1
:10569300E0F5838C82A3E0C0E07402120F94D0E0A3
:1056A30012586D1258567404120F9412683974020A
:1056B300120F94E0640470141257D524121257B8D1
:1056C3007406120F9412579C241A8035E06401600B
:1056D30005E064067039EA2402F8E43B122BFA125F
:1056E300577F3AF583E0C0E07403120F94D0E012C1
:1056F300578D24131257B87406120F9412579C2413
:105703001B1258567408120F94E8F0A3E9802B7407
:1057130006120F94E4F0A31257D024121257B87450
:1057230008120F941257A9C8241AF582E438F58396
:10573300E0C0E0740A120F94D0E0F07406120F94E4
:10574300124D6B601F7406120F941247591218F50D
:10575300E96401700F1257737406120F9412578580
:1057630064017007AA21AB22121C0D740C023A9536
:10577300121D9F8A088B09AC08AD09222412F582F9
:10578300E42212475D1214D5E922125791221257CF
:1057930096E022F088828983221257A022EAF0A39E
:1057A300EB125796E0221257A0F8A3E022126131C0
:1057B300E022E02406FAA3E03400FB228A828B83F2
:1057C300A3A3A3A3A3A3126874E8F0A3E9F0125759
:1057D300D52212587EE022C082C08374FD120D27A9
:1057E300125804123103C0E07402120F94D0E01275
:1057F30057FE121C137403025637E4F0AA21AB229E
:10580300228A828B83A3A3A3A3A3A31245E78A823D
:105813008B83A3A3E022C082C08374FA120D2712E4
:105823006866125873C0E07402120F94D0E01258E5
:105833004FF5838882A3A3E0C0E07405120F94D0D0
:10584300E01257FE121C197406025637125791F8CC
:10585300A3E022F8A3E03400F922A3A31258D12233
:10586300E02402F8A3E03400F92212579124022223
:105873001245F012587E12588AE022EA2402F8E414
:105883003BF98882F58322E0FAA3E0F5838A82A3B9
:1058930022E50E1238FC350FF583E0FC7D0022C0B3
:1058A30082C0831258C5600A24FC600B24F9600C83
:1058B300800D121BA78008121BAD8003121BB302BD
:1058C300563A8A828B831258CF24FB22A3A3125BFE
:1058D30078E02274F612080B74E4120D27EAFEEB4B
:1058E300FF7401120D078A828B83A3A3A3A3A3A32F
:1058F3001259947409120CF7880889097808120C54
:10590300977402120D077403120CFF125C9D120CA4
:1059130074852182852283E06036741A120F94E025
:1059230060046401702A901B22E070248E828F83AE
:10593300A3A3A3A3A3E070188E828F8312598E6052
:105943003F8E828F83A3A3A312598AE0640760303A
:105953008E828F83A3A3A3A3A3A3A3A3E070148E18
:10596300828F8312585D640560097A347B011216B5
:10597300A9800DEEFAEFFB901B73125B7412230BDD
:10598300741C023A95EEF9125B7B221258CF64061F
:105993002212475D121B532274F412080B74FA127D
:1059A3000D27EAFEEBFF12310F2408F582E43B12C8
:1059B3005BA6240AF582E438125BA6125B531257E6
:1059C300FD121B9B125624F508125B3E852182852E
:1059D30022831268B1E0687003A3E069602EE508D2
:1059E300A2E55028852182852283A3E0FB901B6BCF
:1059F300125B7412230B8521828522831245512465
:105A03000A124D657006125624C2E5F01251AB60BE
:105A130003025B277403120F947436F07402120F9F
:105A230094125B60A3A3E028C0E07404120F94D027
:105A3300E012521CA3A3E0C0E07405120F94D0E05F
:105A4300125CDFF8A3E0F9E849601BE8125B323926
:105A5300F583E0FAE8125B3839F583E02AF8740439
:105A6300120F94E028F07403120CFF1219618A08D4
:105A73008B09A808A909EA497003025B1C8E828F6F
:105A83008312475988828983A3A3125BA0E8125724
:105A93007F391260C4C0E0E8125B4AD0E01260A410
:105AA300C0E0E82425F582E439F583D0E0125CEC0C
:105AB300C0E0E8242EF582E439F583D0E0F07402E7
:105AC300120F94E0FA1257B02AFCA3E03400FDE869
:105AD300125B2C39F5831245C0E82431F582E43991
:105AE300F583EA125CDFFAA3E0FBEA4B6019E824D2
:105AF3002FFAE439FB8E828F83A3A3125B85125B9B
:105B0300383CF5831245AE8E828F83A3A3A3A3A350
:105B1300A3A3A3E8F0A3E9800AEEFAEFFB121BA10B
